:020000022000DC
:1070000000F003206D7302005573020057730200F5
:10701000597302005B7302005D7302000000000000
:107020000000000000000000000000005F7302008C
:1070300061730200000000006373020065730200C8
:1070400067730200677302006773020067730200D0
:107050006773020067730200257F020067730200F6
:107060006773020067730200DD9703006773020015
:1070700067730200677302006773020067730200A0
:1070800067730200692E0400A1CF0200677302003B
:10709000CD2E0400677302003DC803006773020031
:1070A0006773020067730200677302006773020070
:1070B0006773020067730200000000000000000018
:1070C0006773020067730200677302006773020050
:1070D0006773020067730200677302006773020040
:1070E000677302006773020067730200000000000C
:1070F00000000000677302000000000067730200D8
:10710000000000000000000000000000000000007F
:10711000000000000000000000000000000000006F
:10712000000000000000000000000000000000005F
:10713000000000000000000000000000000000004F
:10714000000000000000000000000000000000003F
:10715000000000000000000000000000000000002F
:10716000000000000000000000000000000000001F
:10717000000000000000000000000000000000000F
:1071800000000000000000000000000000000000FF
:1071900000000000000000000000000000000000EF
:1071A00000000000000000000000000000000000DF
:1071B00000000000000000000000000000000000CF
:1071C00000000000000000000000000000000000BF
:1071D00000000000000000000000000000000000AF
:1071E000000000000000000000000000000000009F
:1071F000000000000000000000000000000000008F
:10720000344935480A1A02D0072291438D46334942
:1072100033480A1A06D00722914381F309880222D3
:1072200082F314882F483049304A00F042F8304841
:107230003049314A00F03DF830483149314A00F0D8
:1072400038F831483149324A00F033F83148324990
:10725000324A00F02EF832483249334A00F029F819
:1072600032483349334A00F024F833483349002286
:1072700000F02AF832483349002200F025F832485D
:107280003249091A082902DB0022026041601F48C6
:107290001F49884205D00268043003B4904703BCFC
:1072A000F7E700208646EC4600200021284A904758
:1072B000FEE7884207D0521A05D0037801300B70E0
:1072C0000131013AF9D17047884202D00270013091
:1072D000FAE7704700F0032000E8032000F00320E5
:1072E00000F0032078540400002E00207C2E0020A3
:1072F000A0730200A07302007A33040078540400E3
:10730000002E0020002E0020CC360400CC360400D5
:10731000CC360400CC360400CC360400CC36040055
:10732000CC360400CC36040076540400F454040037
:107330007C2E00207C2E00207C2E0020E059002096
:10734000E0590020E0590020E0590020E05D0020D5
:107350004D7A0200FEE7FEE7FEE7FEE7FEE7FEE706
:10736000FEE7FEE7FEE7FEE700F002B8FFF7FCBF2E
:1073700008484FF00701884385460748804707487B
:10738000016841F470010160BFF34F8FBFF36F8F4D
:10739000FFF736BF00F0032035CC030088ED00E096
:1073A00041DF70470C4B1B6813F4804F03D00B4B2D
:1073B0001B68012B00DC704700B583B0084BD3F885
:1073C0000435084A009285220749022006F0C8FECB
:1073D00003B05DF804FB00BF302E00202C2E0020EF
:1073E00000100140503704004637040010B586B045
:1073F0005068E0B11A4B1B6813F4804F03D0194B4F
:107400001B68032B01DC06B010BD174BD3F8043505
:107410004988147852780490039202940191134A97
:107420000092AC221249042006F09AFEEBE70C4BC6
:107430001B6813F4804FE6D00A4B1B68032BE2DD78
:10744000094BD3F804354988127802920191094A10
:107450000092B1220649042006F082FED3E700BF65
:10746000302E00202C2E0020001001407037040028
:1074700046370400C437040000B583B0012A1ED08B
:10748000022A36D03AB1254AA021032015F0CAFCC1
:1074900003B05DF804FB224B1B6813F4804FF7D058
:1074A000204B1B68032BF3DD1F4BD3F804351F4A19
:1074B000009293221E49042006F052FEE8E70622BD
:1074C00032214FF4F03000F09DFC154B1B6813F493
:1074D000804FDDD0134B1B68032BD9DD124BD3F843
:1074E0000435144A009298221149042006F038FE0F
:1074F000CEE70B4B1B6813F4804FC9D0094B1B68B8
:10750000032BC5DD084BD3F804350B4A00929C22AF
:107510000749042006F024FEBAE700BFE83604005D
:10752000302E00202C2E002000100140F0370400E7
:1075300046370400103804003038040030B587B0F6
:107540000446574B1B6813F4804F03D0554B1B6800
:10755000032B05DC032C12D8DFE804F00E360E36C0
:10756000514BD3F804350190504A0092C82250493B
:10757000042006F0F5FDEDE701238DF814304D4AA7
:107580001378591C11708DF815303223049364233D
:107590000393434B1B6813F4804F03D0414B1B688C
:1075A000032B15DC012C21D9A31E012B49D8022362
:1075B00003AA05A940481BF0F1F805469DF81410F0
:1075C0000E2000F003FC20E000238DF81430D6E7F5
:1075D000354BD3F804359DF814200192374A0092B8
:1075E000E3223349042006F0BBFDDBE7344D288855
:1075F0000EF0F0FE03AA05A928461BF091F80546F7
:107600009DF814100D2000F0E1FB112D3ED8DFE8AD
:1076100005F0183D3D3D093D3D27093D3D3D3D3DC2
:107620003D3D3D091E4B1B6813F4804F03D01D4B9D
:107630001B68032B07DC062232214FF4F03000F0E8
:10764000E1FB07B030BD184BD3F8043501941D4A57
:10765000009240F201121649042006F081FDEAE78B
:107660000F4B1B6813F4804FEBD00E4B1B68032BA2
:10767000E7DD0D4BD3F804350194134A009240F234
:107680000D120B49042006F06BFDDAE7002DD8D06F
:107690000E4A40F21111284615F0C4FBD1E700BF95
:1076A000302E00202C2E0020001001405438040001
:1076B00046370400E52E0020B02E00206838040074
:1076C0007C2E0020843804009C380400E836040036
:1076D0003038032800D9704708B5FFF72FFF08BDE1
:1076E00000B58DB02022002103A81BF0E1FD01238D
:1076F0008DF80C3007238DF80F3006238DF81430E9
:10770000144B0793144B0B93144903A80AF0A2F9E6
:10771000B8B10B2814D1124B1B6813F4804F10D052
:10772000104B1B68032B0CDD0F4BD3F804350F4AAD
:10773000009240F23D120E49042006F011FD00E0D7
:1077400010B90DB05DF804FB0A4A4FF4A17115F0B1
:1077500069FBF6E7F978020015780200E42E0020B4
:10776000302E00202C2E002000100140C8380400CC
:1077700046370400E836040000B583B01D4A0421F2
:1077800046F2010006F0D0FC1B4B1B6813F4804F3F
:1077900003D01A4B1B68032B13DC1BF09BFBE0B9D7
:1077A00000F074FB164800F091FBE0B900F05AFDC0
:1077B00000F074FD00F0A0FDFFF792FF03B05DF84C
:1077C00004FB104BD3F804350F4A009240F24912E3
:1077D0000E49042006F0C4FCDFE70D4A40F24B11CD
:1077E00015F020FBDCE70A4A40F24F1115F01AFBB6
:1077F000DCE700BFFDE00200302E00202C2E002030
:107800003D7502000010014018390400463704009D
:10781000E836040010B582B0194B1B6813F4804F92
:1078200003D0184B1B68032B01DC002411E0164B1E
:10783000D3F80435154A009240F22112144904206D
:1078400006F08EFCF1E7134A4FF4957115F0EAFA51
:107850000134012C12D8104B342000FB04300F4BA4
:1078600003630023836280F82C3080F82D30611C84
:10787000C9B21AF01FFF0028EAD0E4E702B010BD39
:10788000302E00202C2E002000100140483904002A
:1078900046370400E83604007C2E0020D03904006E
:1078A00000B583B00F4B1B6813F4804F03D00E4B11
:1078B0001B68032B0ADC0322C8214FF4F03000F0D0
:1078C000A1FA0AF01BF903B05DF804FB074BD3F8EB
:1078D0000435074A0092B8220649042006F040FC0D
:1078E000E9E700BF302E00202C2E002000100140C0
:1078F000683904004637040008B503781C2B00D013
:1079000008BDFFF7CDFFFBE730B587B0642119480C
:1079100000F0F6F9184B1B789BB100F00FFE00F059
:1079200037FB0AF0DDF8F8B900214FF4F03000F031
:107930005EFA0222C8214FF4F03000F063FA07B07B
:1079400030BD6C460D4D0FCD0FC495E8030084E8A3
:107950000300684600F072F90028DED0084A4FF4B0
:10796000B67115F05FFAD8E7054A40F2711115F0CB
:1079700059FAD9E7D1760200E42E0020B839040084
:10798000E836040010B5044600214FF4F03000F052
:107990002EFA04EB8404620032214FF4C03000F070
:1079A00031FA10BD08B500F063FA08BD00B585B026
:1079B000204B1B6813F4804F03D01F4B1B68032B15
:1079C0001FDC00F06BFC00F097FC03A810F0BEF881
:1079D000184B1B6813F4804F03D0174B1B68032B05
:1079E0001ADC00F045FA00214FF4F03000F0FFF906
:1079F0000422C8214FF4F03000F004FA05B05DF81D
:107A000004FB0E4BD3F804350D4A009270220D4949
:107A1000042006F0A5FBD4E7084BD3F80435BDF8E5
:107A20000C200192084A00927B220649042006F0AD
:107A300097FBD6E7302E00202C2E002000100140AE
:107A40008439040046370400A039040008B5FFF764
:107A500093FEFFF759FFFFF7A3FCFCE72B4B1B78C6
:107A6000002B52D000B585B0012804D0032845D0A2
:107A700005B05DF804FB0023029302A9012014F075
:107A800085FD40BB02A814F0DBFD38BB0123039346
:107A900003A90DF1060010F0ABFD10BBBDF8060008
:107AA00010F01EFA0DF1050110F0BEFBE0B90BF06D
:107AB00089FA9DF8051000200BF04EFDB8B904F0CE
:107AC00019F8C0B9114B00221A70114B1B68002B1A
:107AD000CED09847CCE715F097F9D3E715F094F995
:107AE000D4E715F091F9D9E715F08EF9DFE778467C
:107AF00000F0E6FCE3E715F087F9E3E714F014FE85
:107B00000028B5D015F080F9B2E77047E82E0020C4
:107B1000EC2E002008B5064B01221A70054804F02F
:107B200051F804F033F800B908BD15F06DF9FBE722
:107B3000E82E0020002E002008B503781C2B00D072
:107B400008BD074B1B78002BFAD014F031FE18B992
:107B5000044804F03BF8F3E715F056F9F8E700BFE6
:107B6000E82E0020002E002008B50749074815F030
:107B7000EDFD00B108BD0323002205490969054850
:107B800015F000FEF6E700BF042F00207032002041
:107B9000EC2E00203C31002008B50378023B082B76
:107BA0003FD8DFE803F01C05113E3E2C3E3E360078
:107BB0001E4B5B68002B34D0007A002831D01C4A61
:107BC0000121117098472CE0184B9B684BB3184A61
:107BD000127832B3164A00211170984721E0154BF4
:107BE0001B784BB9114BDB681BB1114A0021117096
:107BF0009847FFF7B9FF14E0FFF78CFF11E0102260
:107C00000A4B59690C4815F047FE50B115F0FCF8C5
:107C100007E08168C06809F0B1FE18B9054B012280
:107C20001A7008BD15F0F0F8F8E700BFEC2E002040
:107C3000E62E0020E72E00203C31002070B586B0F3
:107C400004461F4A03AB07CA03C323F8022B120CD6
:107C50001A701C4E35460FCC0FC594E8030085E81A
:107C60000300736953B3184B009303AB174A1849C9
:107C7000184815F029FD034610B1184606B070BD2E
:107C8000154817F037FA0146124815F049FD03462A
:107C90000028F2D1114817F0A7FB03460028ECD1C9
:107CA0000E4817F0D7FB01460A4815F039FD034688
:107CB0000028E2D1FFF758FF0346DEE70723DCE7A1
:107CC000EC390400EC2E0020997B0200042F0020E8
:107CD000703200203C310020242F0020EC300020A6
:107CE00008B5064B1B681BB906E0044B1B68984798
:107CF00012F0E6FE0028F8DA08BD00BFB03200201E
:107D000010B50C46144B1860144A012114481BF09E
:107D100019F9A0B9610CE00341F26F7200238B42A4
:107D200008BF824210D24FF47A7200231BF05EF932
:107D3000014600220B481BF01BF938B910BD0A4A56
:107D40004A2115F06FF8E5E70521F2E7064A4B21D5
:107D500015F068F8F2E700BFB0320020E17C0200C5
:107D6000583A0400B4320020F839040008B5134B27
:107D70001B6873B14FF0A042D2F80435104909686E
:107D80004B40C2F804350D4A1368013B136023B120
:107D900008BD002015F038F8ECE70A481BF00AF996
:107DA0004FF0A042D2F804350549096823EA0103DF
:107DB000054909680B43C2F80435E9E7D4320020CD
:107DC000D8320020DC3200200433002039B10123F6
:107DD00003FA00F04FF0A043C3F80C0570470123ED
:107DE00003FA00F04FF0A043C3F80805704721B133
:107DF0004FF0A043C3F80C0570474FF0A043C3F801
:107E0000080570475AB338B51346132900D838BD52
:107E1000134A10605B00013B124A13604FF0A0430D
:107E2000D3F804351840104B186000254C0CC803DB
:107E30004FF47A72002310F5FA7044EB05011BF041
:107E4000D5F801462A4609481BF092F80028DED1F1
:107E5000034B1A684FF0A043C3F80C25D7E77047CF
:107E6000D8320020D432002004330020DC3200203D
:107E700008B504481BF09EF80021034B1868FFF773
:107E8000B6FF08BDDC320020D832002008B50D2333
:107E90000BE04FF0A04103F5E072032041F822000F
:107EA00001229A40C1F808250133102BF1D9054A67
:107EB000012105481BF046F800B908BD14F0A4FFE5
:107EC000FBE700BF6D7D02005C3A0400F0B1104A90
:107ED0001060002309E00F4AD25C02F5E0724FF017
:107EE000A0410D4841F822000133032BF3D90B4B7D
:107EF0004FF00042C3F804230020C3F87C01084B74
:107F0000C02283F8062340221A6070470E20704773
:107F1000FC320020603A04000C00030000600040C6
:107F200000E100E010B50024144BC3F87C4103E0ED
:107F3000D11A14E00134E4B2032C1ED84FF0A04350
:107F4000D3F810250E4B195D01238B409343F1D0DC
:107F50000C4B1B680C4AD2F80425991AE8D443F25A
:107F600033339942E6D9084BD3F80425054B1A6000
:107F7000064B1B6820469847DCE710BD00600040B8
:107F8000603A04000033002000100140FC32002061
:107F9000002869D02DE9F043CFB00546334B1B686C
:107FA00013F4804F03D0324B1B68032B0BDC2F4B99
:107FB0001B6813F4804F03D02D4B1B68032B2ADC66
:107FC0004FB0BDE8F08300230F2B0FD8EA5C29499E
:107FD0000C6810095900265C0DA800F8136002F027
:107FE0000F020131A25C42540133EDE70DAA0023D8
:107FF0008DF8543003F1804303F58833D3F804350A
:1080000002921D4A01921D4A009241221C490420FD
:1080100006F0A6F8CBE71B4BD3F80435AA88E9880D
:10802000287A6C7AAE7AEF7A95F80CC095F80DE064
:1080300095F80E8095F80F90CDF82C90CDF828800B
:10804000CDF824E0CDF820C007970696059404905B
:10805000039102922A6801920B4A00924222084937
:10806000042006F07DF8ABE7704700BF302E0020FB
:108070002C2E0020342E0020C83A0400DC3A0400E4
:10808000B53A040000100140E43A040072DF704782
:1080900073DF704774DF70472DE9F047A2B00646E2
:1080A0000F469046314A02F1040900255560D5601B
:1080B0002F480378C3EB431C2E4C644414602E49B4
:1080C000614491601F2191809181013303F001038C
:1080D00003704FF03C0A5246294613A81BF0E8F8FB
:1080E00006238DF84F30ADF8486001238DF84A30F3
:1080F000ADF85C3012AA1892ADF83C60ADF8408043
:1081000011970DEB0A021D928DF8783052462946E0
:1081100068461BF0CDF802238DF800304A46214610
:1081200013A814F025F990B9104B03F10C029968CB
:10813000684614F01DF968B9104A0C491048FFF759
:10814000A5FF082809D070B922B0BDE8F08714F067
:108150005BFEE9E714F058FEEEE700220349084809
:10816000FFF794FFEFE714F04FFEEDE74C330020EC
:10817000083300200C3300205C330020102E002038
:108180000C2E0020B0F5202F0AD2074BA3FB0023B2
:10819000DB0808B103B90123044A93819160704759
:1081A0004FF6FF73F5E700BFCDCCCCCC102E0020EE
:1081B00008B50121054B1878FFF76AFF18B90020B0
:1081C00004F0F6FB08BD14F01FFEF8E70C2E0020AB
:1081D00008B5044B1878FFF75DFF00B908BD14F02F
:1081E00013FEFBE70C2E002076DF70477ADF704726
:1081F0007CDF704708B514F007FE08BD08B503F032
:10820000E9FC08BD00B583B0037823B1012B0BD086
:1082100003B05DF804FB3B214088FFF7E5FF002831
:10822000F6D014F0F1FDF3E7094B1B6813F4804F0F
:10823000EED0084B1B68032BEADD074BD3F804355F
:10824000064A009268220649042005F089FFDFE70C
:10825000302E00202C2E002000100140903B040006
:10826000753B040000B583B014F05EFA68B90023D2
:10827000019301A9012014F089F948B901A814F06B
:10828000DFF940B903B05DF804FB14F0BDFDEEE783
:1082900014F0BAFDF2E714F0B7FDF3E700B585B0CE
:1082A0009DF80C30012262F3030362F307138DF88B
:1082B0000C3011220F4903A8FFF79AFF98B97823D1
:1082C000ADF80430C823ADF806300023ADF808300F
:1082D0004FF4C873ADF80A3001A8FFF787FF28B93B
:1082E00005B05DF804FB14F08FFDE8E714F08CFD99
:1082F000F6E700BFBC3B040000B58BB07823ADF8B7
:108300000430C823ADF806300023ADF808304FF430
:10831000C872ADF80A200693079301AA039240F6AB
:10832000CD4204924FF48032059203228DF818203A
:10833000ADF81A308DF81C30064B0893064B0993A4
:1083400003A814F0D7FB10B90BB05DF804FB14F0D0
:108350005BFDF9E705820200F58102000620704707
:1083600000B587B044F20103984262D01BD80128BF
:1083700036D041F20103984276D1474B1B6813F483
:10838000804F36D0454B1B68002B32DD444BD3F871
:10839000043502920191434A00926322424901202E
:1083A00005F0DEFE25E044F2020398425CD13A4B30
:1083B0001B6813F4804F1CD0384B1B68002B18DD52
:1083C000374BD3F80435108803905268029201911C
:1083D000364A009269223449012005F0C1FE08E0C6
:1083E0002D4B1B6813F4804F03D02C4B1B68002BC4
:1083F00012DC4FF0A0434FF4F032C3F81825C3F855
:108400000C25EFF3108372B64DF6AD6C284B1B783C
:10841000002B3ED030BFF9E7214BD3F80435029250
:108420000191244A009260221F49012005F098FE24
:10843000DFE7194B1B6813F4804FDAD0174B1B682A
:10844000002BD6DD164BD3F8043510680490506825
:108450000390029192680192174A00927322124986
:10846000012005F07DFEC4E70B4B1B6813F4804F21
:10847000BFD00A4B1B68002BBBDD094BD3F804357A
:1084800001910E4A00927B220749012005F068FE07
:10849000AFE707B05DF804FB302E00202C2E002043
:1084A00000100140503C0400213C0400743C0400D6
:1084B000282E0020343C0400943C0400B83C040006
:1084C00000B583B001460023ADF80030044B0193A2
:1084D0006A4644F20200FFF743FF03B05DF804FB75
:1084E000B43C040010B40346044C006859689A6810
:1084F000DB680FC45DF8044B704700BF9C3300205D
:108500000B4B0C4A92E8030083E8030003F10802D6
:10851000094903C982E80300DA79042161F30712EB
:10852000DA711A7A022161F387121A72704700BF5A
:108530009C33002060000010A40000100048704729
:108540009C33002000231F2B09D8074901EBC300EF
:1085500000224280426001F833200133F3E7034BED
:1085600000221A60704700BFAC330020AC340020FA
:1085700030B405460F4B1B6800240AE01F230E4A47
:1085800012F83300A0B102EBC3025288AA4207D00E
:1085900001341F2C0BD85A1E002BEFD01346EEE7E8
:1085A000054A02EBC30252688A42F1D100E0002082
:1085B00030BC7047AC340020AC33002030B40A4AE1
:1085C00013680A4C04EBC30568806960012104F854
:1085D00033100B441360202B01D030BC704713467E
:1085E00000221A60F9E700BFAC340020AC33002051
:1085F000F0B414461D46002300E00133072B0ED8CB
:108600001A0108498A5A8242F7D101EB0312D2E9D2
:108610000267AF4208BFA642EFD1012000E0002070
:10862000F0BC7047B034002030B4C1698269C3889F
:108630000D0A0C06C2F30C01994216D25B1A1344C0
:10864000A3F50053E41845F10005094A1368591CC5
:10865000116003F00703808A064A190102EB031335
:108660005052C3E9024530BC70475B1A1344E9E736
:1086700030350020B0340020C37D002B42D0C378B9
:108680000A7802F0800203F07F0313430B70027834
:108690000B7803F07F0343EAC2130B700378002BBF
:1086A00041D030B48378082B14BF002201224B78CC
:1086B00003F07F0343EAC2134B70C58803F08003C5
:1086C000C5F3861423434B708A7802F0030242EA12
:1086D0008502D2B28A70057A02F0FC02C5F3C104A9
:1086E00022438A70CB7803F01F0343EA4513DBB2C1
:1086F000CB70427A03F0E00302F01F021343CB7009
:1087000030BC7047C3780A7802F0BF029B0103F0C7
:10871000400313430B70027903F0C00302F03F02E1
:1087200013430B70B3E770470023032B31D810B409
:1087300002E00133032B28D8C3EBC302164C04EB31
:10874000021292F84820012AF3D1C3EBC30204EBD2
:108750000212948AC2899442EBD1C3EBC3020E4C3D
:1087600004EB0212D2888A42E3D1C3EBC30204EBCA
:108770000212B2F8582012B1848AA242D9D1C3EBB6
:10878000C303054800EB031000E000205DF8044B34
:1087900070470020704700BF5C350020002300E0D8
:1087A0000133032B16D8C3EBC3020B4901EB0212B2
:1087B00092F84820022AF3D1C3EBC30201EB021264
:1087C000918A828A9142EBD1C3EBC303024800EB4A
:1087D00003107047002070475C35002008B9042062
:1087E00070470820704730B403460C460978C170C2
:1087F00000214162A1680B2903D8217BF9B1012135
:1088000000E0012119700020987029B1A16807319A
:10881000C9080139597218720121D97503F10C0583
:108820006169206985E80300E1899982A16919627B
:10883000217F9975216AD9629A6230BC7047002104
:10884000E0E700000021164B1B688B4226D900236D
:10885000144A02EBC10252689A421DD910B4114A5F
:1088600052F8312002EBC30412F8332082420DD0BB
:1088700001330C4A02EBC10252689A42EFD801312F
:10888000074B1B688B4205D90023F2E760685DF84F
:10889000044B70470020FAE70131D4E7002070470D
:1088A000343500203835002070B58CB006460D46B2
:1088B00014462C22002101A81AF0FAFC0F238DF88F
:1088C0000430ADF808604FF0000365F300038DF845
:1088D0000A308DF80B4001A801F0DAF90CB070BD38
:1088E00030B58DB005460C462C22002101A81AF0A7
:1088F000DFFC10238DF8043002958DF80C4001A8A0
:1089000001F0C6F90DB030BD00B58DB010B913F14E
:10891000020F06D1074B186804F072FA0DB05DF82B
:1089200004FB01218DF804100293039201A801F0C9
:10893000AFF9EFE740350020F8B5069C002960D07C
:108940001E460F4615685168D2F808C0D368E56026
:108950002161C4F814C0A36115695169E561216200
:10896000002363700278D20922705AB30423BB42F9
:1089700049D8E17D41B3037803F07F03E37000231E
:10898000A3709AB143789B0103F4FE53827843EAC3
:108990009203E3808378DB0003F01803C27843EA94
:1089A00052132372C37803F01F03637200236362C0
:1089B0003378032B21D83278144B53F82230E362FA
:1089C0000020F8BD0123D2E70178C1F38011E170E6
:1089D000017801F03F01217142B190F90130002B83
:1089E00002DB0423A370CCE70823FBE70421A1707A
:1089F0000B44BB42C5D90920E3E77846FFF760FD89
:108A0000D9E70920DDE70920DBE700BF743E040059
:108A100070B50C461D4603789BB104263244A26013
:108A200000F10C032360836A6360C36AE360002380
:108A30002374204604F056FD10B963691E442E606D
:108A400070BD0126EAE72DE9F0418EB00D461646CD
:108A50001C46804600282DD0002D2FD0002C31D070
:108A6000636A0233059304F10C00E378002B2DD0E8
:108A70000121A27801AF3B46082A14BF002201223F
:108A800004F003FB0697CDF81C80B2B2ADF82020AD
:108A90000B9515440C95A3788DF83430237B022B6D
:108AA00016D00023ADF8283005A804F0E6FA0EB081
:108AB000BDE8F0817846FFF703FDCDE77846FFF784
:108AC000FFFCCBE77846FFF7FBFCC9E70221D0E7C4
:108AD00023692BB1236909931023ADF82830E3E70C
:108AE0007846FFF7EDFCF5E72DE9F04188B0044644
:108AF0000D46C37D002B3CD0082605FB06F8637AA3
:108B0000AB4238D0257201AB324602A92046FFF7AE
:108B10007FFF074648BB4DB994F8533033B9A3697A
:108B2000C3F30C03E380012384F85330E37D7BB966
:108B300094F8523063B91DBBE06EB4F84A10A278C5
:108B400023468A1A0146FFF77EFF012384F852303C
:108B500007992046FFF790FDE16E324641440198A7
:108B60001AF07DFB02A804F0E3FC384608B0BDE82B
:108B7000F0810C26C1E7B4F84A60A6EB0806C1E70D
:108B80007846FFF79DFCD7E770B505460E4609B15C
:108B900000230B6095F85040002104E0631C85F829
:108BA00050300134E4B26B7AA34210D3EA6C012353
:108BB000A3401A42F5D121462846FFF795FF01460A
:108BC00028B9002EEAD0336801333360E6E708465F
:108BD00070BDF0B589B004460E46154683789A18E4
:108BE000C37D63B10B239A4221D801AB02A9204671
:108BF000FFF70EFF074620B1384609B0F0BD0F233E
:108C0000F1E707992046FFF737FDE37D43B12A4698
:108C1000314601981AF023FB02A804F089FCEBE727
:108C200023462A4601993046FFF70DFFF4E709274E
:108C3000E2E7000010B5044690F84830012B0CD153
:108C400003F092FA237B012B0BD0094BD968014426
:108C500004F1300003F05EFA10BD7846FFF730FCF7
:108C6000EEE7A17D024BDA681B6903FB0121EEE709
:108C70004435002030B583B0002403E02846FFF7D8
:108C8000D9FF0134032C18D8C4EBC4030C4A02EBFF
:108C9000031393F84830012BF3D100230193C4EB65
:108CA000C40502EB051501A92846FFF76DFF04284E
:108CB000E4D0019B002BE4D0E0E703B030BD00BF5F
:108CC0005C35002038B5044690F84830022B09D1B5
:108CD000064B1D6803F048FA411904F1300003F017
:108CE00019FA38BD7846FFF7EBFBF1E74435002071
:108CF00038B5044690F84830022B10D10A4B5D7D00
:108D00005A689B6803FB052503F02EFA411904F10C
:108D1000500003F0FFF9012384F8683038BD78462D
:108D2000FFF7CEFBEAE700BF4435002010B504464C
:108D3000808A02F0E3FD01281CD1237BE3B194F982
:108D40001620002A1ADBE27D4AB1022B18D094F9D2
:108D50000330002B16DBA378B3B900200BE0E278D8
:108D60000AB9012B12D1237893B9A378042B11D11E
:108D7000002000E0102010BD1020FCE70720FAE7DB
:108D80001020F8E70720F6E70720F4E70720F2E7CE
:108D90000020F0E70720EEE738B5044603784BB132
:108DA000C388C2698169808A06F0BAFB054645B965
:108DB000284638BDC2698169808A06F0ABFB05464A
:108DC000F5E7E169002201F00101A08AFFF76CFDDF
:108DD000EEE700002DE9F04780460E4617464B1E91
:108DE000DBB2012B0FD8B7F5C07F10D80024032CBD
:108DF0001AD8C4EBC403314A02EB031393F848308A
:108E00004BB10134F3E77846FFF75AFBEBE77846BE
:108E1000FFF756FBEAE7C4EBC40502EB051538463D
:108E200008F093FDE86600E000255DB3EB6E002BD3
:108E300042D043462C4608F1300ED3F800C05868A3
:108E40009968DA68C4F800C06060A160E26010331D
:108E500010347345F1D10023EB64A5F84A70012E5C
:108E600013D06FF00103AB62002385F86830144B18
:108E7000AB652D66134BAB632D64012002F014FA31
:108E800085F848602846BDE8F0870F4B1B7D85F8C4
:108E90005130002385F8523085F8533085F8503032
:108EA000D8F828206A65A5F858306FF00103AB6246
:108EB000064BAB632D64E0E71D46E3E75C3500201D
:108EC0009B98020001920200443500204D9202005E
:108ED00000B585B000228DF80F20A0B10B460246E8
:108EE00002320A600DF10F01184604F0CAF89DF82D
:108EF0000F3043B10C4B1B6813F0040F03D00B4B26
:108F00001B68032B04DC9DF80F0005B05DF804FB23
:108F1000074BD3F80435074A009240F2064206494F
:108F2000042005F01DF9EEE7302E00202C2E002045
:108F3000001001402C3D04001F3D04002DE9F043CA
:108F40008FB004460E4615461F46D0F818800378A9
:108F50004BB1C288C8F30C03934241D2D21A4244A7
:108F6000A2F50052A26104F10C00E378002B3AD084
:108F70000121A2780DF128094B46082A14BF0022CE
:108F8000012204F082F8C4F81880CDF80890039606
:108F9000A378EA1A92B2ADF81020324408920797EB
:108FA0008DF824300023ADF81830E3787BB3237BB1
:108FB000022B1AD02546002345F8243F2A46217962
:108FC000206A0FF02BFE606AA8B101A9FFF780FFAD
:108FD000002840D12A462179206A0FF01FFEF2E7CF
:108FE000D21A4244BEE70221C3E71023ADF818307D
:108FF00023690593DEE7237B022B30D104F10C01BA
:10900000E0890FF0BDFE0028D1D1052024E0237BAC
:10901000012B01D005201FE0E389ADF80030A38AC1
:10902000ADF802300025012D13D82146002341F868
:10903000243F0EAB03EB450333F8380C0FF00BFE67
:1090400001A9606AFFF744FF08B90135EBE700208A
:1090500002E0052000E000200FB0BDE8F08305200D
:10906000FAE7000070B5F0B00E4614461D4610AB8E
:109070000A4601462046FFF761FF50B1214B1B68AD
:1090800013F0040F03D0204B1B68052B2DDC70B0B0
:1090900070BD2046FFF780FE0028F8D103AB012207
:1090A0008DF80C20A28AADF80E20002204928DF8D3
:1090B000142010AA0692A178711AADF81C1008AA03
:1090C00093E8030082E803000AAB2169E06883E8C3
:1090D0000300A37D8DF83830236A0C93636A0D93E7
:1090E0000F9505A800F0D4FDD1E7084BD3F804355F
:1090F000074A009240F2F2620649062005F030F875
:10910000C5E700BF302E00202C2E002000100140AB
:10911000403D04001F3D040010B50446C06E08F039
:1091200018FC04F1300002F0DDFF94F84830022B07
:109130000AD07022002120461AF0BAF8002084F8E4
:10914000480002F0B1F810BD04F1500002F0CAFF6F
:10915000EFE710B58CB0044690F84830012B0CD1E5
:1091600001238DF80430636D029301A800F090FD97
:109170002046FFF7D1FF0CB010BD7846FFF7A0F9ED
:10918000EEE7000030B585B00D460446A8B194F86E
:109190004830022B15D02946606DFFF7A1FB204611
:1091A000FFF7BAFF114B1B6813F0040F03D0104BED
:1091B0001B68032B09DC05B030BD7846FFF780F94A
:1091C000E5E72046FFF730FAE5E70A4BD3F8043528
:1091D00094F8482002950192074A009240F2F31257
:1091E0000649042004F0BCFFE5E700BF302E002054
:1091F0002C2E0020001001406C3D04001F3D040097
:1092000008B508460021FFF7BDFF08BD08B5037B80
:10921000012B02D0FFF79DFF08BD0121FFF7B2FF30
:10922000FAE7000008B590F8513053B1013B80F8DF
:109230005130002380F85030034B186803F0E0FDF4
:1092400008BDFFF7E3FFFBE74035002010B50C46F3
:1092500091F84830012B03D12046FFF7E3FF10BD02
:109260007846FFF72DF9F7E7062976D1F0B585B0F6
:1092700015460678B20102F4FE5241788478C3782C
:109280001B0443EA0463047943EA042344791C433E
:1092900076B242EA91012846FFF746FA0746E0B166
:1092A000002E2FDBC289A98A8A422BD02B4B1B6848
:1092B00013F0040F3ED02A4B1B68012B3ADD294BDB
:1092C000D3F8043502910192274A009240F26C6271
:1092D0002649022004F044FF2CE0204B1B6813F0C9
:1092E000040F27D01E4B1B68012B23DD1D4BD3F829
:1092F00004351F4A00924FF4CD621C49022004F04D
:109300002FFF17E0002E17DBFD6C2543FD64BCB179
:109310003B78D3B17B7A5A1C01239340013B9D4299
:1093200017D0002187F850103846FFF72DFC38463B
:10933000FFF780FC05B0F0BDAB8AA7F85830E3E733
:1093400003213846FFF71EFFF4E77846FFF7B8F829
:10935000E0E73846FFF7FDFEECE77047302E0020CF
:109360002C2E002000100140C03D04001F3D0400D1
:10937000903D04002DE9F0418AB007460E461446A0
:109380001D461046FFF708FD50B994F80380B8F168
:10939000000F08D12B46224631463846FFF764FFBE
:1093A0000AB0BDE8F0814046FFF74CFA02460028BB
:1093B000F6D08DF80480236A0793A38AADF81230A3
:1093C00005AB2169E06883E80300A37D8DF82030B8
:1093D0000297039623788DF81030E36A09932946A3
:1093E00001A89047DCE710B5547814F0010F03D0C2
:1093F000D47D14B1FFF7BEFF10BDFFF733FEFBE7CE
:1094000008B501390130FFF7EEFF08BDF0B5C7B070
:109410000F46164682783244C37D2BB14FF48073D9
:1094200093427CD3002303E04FF4C073F8E7013389
:10943000032B1AD8C3EBC3043B4D05EB041494F87B
:1094400048100129F3D1C3EBC30105EB01118C8A4C
:10945000818A8C42EBD1C3EBC30105EB0111CC89AE
:10946000C1898C42E3D1082552E00121FFF7B2FC0B
:109470000446002855D032463946C06E19F0EFFE3A
:109480000023459345A92046FFF77EFB054608B11A
:10949000042840D1459B0BBB244B1B6813F0040FE1
:1094A00035D0234B1B68032B31DDB4F84A70802F75
:1094B00028BF80270023BB4214D2E26ED25C1D4934
:1094C0000D68100959002E5C04A800F8136002F022
:1094D0000F020131AA5C42540133ECE72046FFF74A
:1094E000A9FBD9E704AA002302F8173003F180434F
:1094F00003F58833D3F8043502920F4A01920F4ADC
:10950000009240F251520E49042004F029FE002539
:10951000284647B0F0BD2046FFF7FEFDF8E70925D5
:10952000F6E70425F4E700BF5C350020302E00206C
:109530002C2E0020342E0020043E0400DC3A0400CF
:109540001F3D040070B504460D461646FFF7EEFBBE
:1095500030B923782BB1324629462046FFF756FF13
:1095600070BD324629462046FFF733FBF8E700007E
:1095700038B504460D46CB695B780371CB691B781F
:1095800083F00103C370CB6943628B8A0B2B07D82E
:10959000CB7A002B35D10B7B012B02D0002300E0CE
:1095A00001232370002B31D0287B02282BD0FFF71A
:1095B00015F9A070AB8A03440B33174A82FB0323CF
:1095C0005B10013B6372002323720023E37504F1F7
:1095D0000C0395E8030083E80300AB6923622B8941
:1095E000A382AB7AA3752B6AA362DF23E3622846CA
:1095F0000FF0F4FB20B12B78012B0AD0FF23E3629C
:1096000038BD0123CDE7054B987DD0E70423A37037
:10961000DBE72023F3E700BFABAAAA2A44350020EA
:1096200010B54FF4E0720021134819F041FE06F026
:1096300035F90024114B1C6080222146104819F096
:1096400037FE104B104A1A60104A5A604CF25032E2
:109650009A600F49D9601A6104221A759C75082214
:109660005A750C4803F0ACFB0B4B18600B4B1C609D
:109670000B4806F00BFA10BD5C3500203035002099
:10968000B03400204435002080969800F049020054
:1096900020A107008D9802004035002034350020BD
:1096A0000989020008B505F02DFF08BD98B110B575
:1096B0008CB00446036983B1C36983B1836983B104
:1096C00001466846FFF754FFA28A21696846FFF702
:1096D00039FF0CB010BD0E2070470E20F9E70E20A8
:1096E000F7E70E20F5E7000058B310B590B00A4632
:1096F000044643683BB383693BB3014604A8FFF7C4
:1097000072F8134B1B6813F0040F03D0114B1B6846
:10971000062B06DCA268616804A8FFF713FF10B0EF
:1097200010BD0D4BD3F804352278A1690291019246
:109730000A4A009240F2F4720949072004F010FD31
:10974000E8E70E2070470E20E9E70E20E7E700BFAC
:10975000302E00202C2E002000100140143E04006A
:109760001F3D0400037B012B01D00020704730B562
:109770008FB004460D462C4B1B6813F4007F03D0BA
:109780002A4B1B68032B3EDC02A900230393CDF870
:109790000F30E288C2F3861092008DF809202A0E5D
:1097A0008DF80A202A0C8DF80B202A0A8DF80C203F
:1097B0008DF80D506278022A14BF0022012240EA7F
:1097C000C2128DF808200622079201228DF824206B
:1097D000A28AADF826200A938DF814300691226AE9
:1097E0000B928DF82030E389ADF82230E36A0D93B7
:1097F000A37DA3B98DF830306FF0010105A8FFF704
:1098000073FF0FB030BD0A4BD3F80435094A0092FC
:1098100040F262220849042004F0A2FCB4E7074B9E
:109820005B7D8DF83030E7E7302E00202C2E0020B5
:1098300000100140403E04001F3D0400443500205C
:1098400090F84830022B00D0704710B5044690F8CD
:109850006830022B00D010BDC16CFFF783FF0028D9
:10986000F9D1002384F86830F5E7000010B5002432
:1098700007E0C4EBC402130103481844FFF7E0FFFC
:109880000134032CF5D910BD5C35002008B5FFF775
:10989000F1F9FFF7EBFF012008BD10B50C4691F878
:1098A0004830022B06D1022384F868302046FFF7A7
:1098B000C7FF10BD7846FEF703FEF4E7F0B583B0AE
:1098C0000446C5698269C3882F0A2E06C2F30C05B7
:1098D000AB4232D95B1B1344A3F50053F61847F192
:1098E000000732463B46A08AFEF782FE002840F081
:1098F0008B802046FEF752FF054648B3D0F81CC0C7
:109900008269C3884FEA1C214FEA0C60C2F30C0C39
:109910009C4515D2A3EB0C031344A3F50053C018C8
:1099200041F10001B94208BFB0420DD38F4208BFD8
:10993000864230D3284603B0F0BD5B1B1344CDE70D
:10994000A3EB0C031344EAE705212846FFF71AFCB2
:10995000E388E269A169A08A05F0A0FEE8B9627A0D
:10996000531CE17D99B3082202FB03F289B34FF443
:109970008073934230D302212046FFF72BFA05462D
:109980000028D7D100212046FFF7ECFE022100205D
:10999000FEF7A6FFCEE70025CCE7E388E269A169E0
:1099A000A08A05F0F5FE60B1237863B1617A4B1CA3
:1099B0000121994001392046FFF7D4FE2046FFF7E8
:1099C000EBF90025B6E77846FEF77AFDEEE70C22C4
:1099D000CAE74FF4C073CCE70C4B1B6813F0040FBD
:1099E00003D00B4B1B68002B01DC0025A2E7094BC1
:1099F000D3F804350192084A00924FF45C7207498B
:109A0000012004F0ADFBF0E7002593E7302E0020A5
:109A10002C2E002000100140503E04001F3D040089
:109A20002DE9F04182B007460E461446984610468E
:109A3000FFF744FF002846D00546404B1B6813F053
:109A4000040F03D03E4B1B68032B3FDC2846FFF777
:109A500039F92B7B012B47D0EB6C217A01228A400C
:109A6000134230D11A43EA64043E237AE27D002A8D
:109A700042D04FF0080C0CFB03FC697A8B423ED0BD
:109A8000002A41D00823B34240D1AA69A3699A426F
:109A900009D205F10C0E0C340FCCAEE80F0094E89F
:109AA00003008EE80300E86E3246391D604419F069
:109AB000D6FBEC6C2B7873B36B7A5A1C0123934062
:109AC000013B9C422BD002B0BDE8F0811D4BD3F886
:109AD0000435227A01921C4A00924FF465721B49A8
:109AE000042004F03DFBB1E795F86830002BB3D1BA
:109AF0002846FFF7FDF8AFE74FF00C0CBBE70CEB87
:109B00000603A5F84A30C0E70C23BCE70421284629
:109B1000FFF738FBD7E77846FEF7D2FCCCE7E96CD5
:109B20002846FFF71FFE43462A46B5F84A10E86E5E
:109B3000FFF759FC2846FFF7EFFAC4E7302E002064
:109B40002C2E002000100140643E04001F3D040044
:109B50002DE9F04190B000284CD00F4614461E4627
:109B60008046002A48D004AB00933346FEF7E4FE5B
:109B7000054618B1284610B0BDE8F08104A8FFF7EB
:109B8000D5F805460028F5D100230293039302A9D6
:109B900060880FF0F5F828B19DF8113043F001030B
:109BA0008DF811302269E168208905F02FFD38B168
:109BB0009DF8113003F0FE038DF81130002BD9D041
:109BC0009DF81130002BD5D013F0010F01D0039B6D
:109BD00008939DF8103033B1334604AA3946404605
:109BE000FFF71EFFC6E7334604AA39464046FFF793
:109BF00007FCBFE70E25BDE70E25BBE7F8B508B3A8
:109C00000E460546164B1F68F7B93C46B4420FD2C4
:109C100005EBC4035B68D3B115F8340015F9343093
:109C2000002B16DBB8B1FEF70DFEB0B90134EDE73D
:109C30000C4B43F8375003EBC7035E607B1C084AAC
:109C4000136002E00E2700E004273846F8BD0E2717
:109C5000FBE70B27F9E70F27F7E70F27F5E700BF2B
:109C60003435002038350020084B196861B110B533
:109C700004E0064804F0DEF9214624B10C680B79B3
:109C8000002BF9D0F5E710BD704700BF203700204A
:109C900038B5054630B1104B1C68ACB10F4B0122F2
:109CA0001A7004E07846FEF70BFCF4E724683CB138
:109CB0002379002BFAD154F8043C28469847F5E75D
:109CC000064B1B78022B00D038BDFFF7CDFF034BAE
:109CD00000221A70F8E700BF203700201C37002050
:109CE00010B5044630B100232372211D034804F04F
:109CF00076F910BD7846FEF7E3FBF4E72037002045
:109D000010B5044658B10A4B1B78013BDBB2012B5E
:109D100009D8074B02221A700123237210BD78461E
:109D2000FEF7CEFBEFE7211D024804F083F9F5E7CB
:109D30001C370020203700200A8883689B5A07338D
:109D40009BB223F0030313449BB20288043A93426C
:109D500000D900230B80704710B582B00446836899
:109D6000C91AADF806100DF10601FFF7E5FFBDF8C1
:109D70000630A068184402B010BD0088043880B2D4
:109D8000704743888268D018D1520123837070478E
:109D9000826800239370438083807047073189B2C3
:109DA00021F0030189B2428883889A4204D29B1A27
:109DB00099421EDC0020704710B59A420FD90488E2
:109DC000A41AA14217D98B4217D3032C03D9836855
:109DD000134404229A7000234380184604E08268EA
:109DE00013449B780BB1042010BDFFF7D1FF002076
:109DF000FAE7042070470020F6E70420F4E738B5BE
:109E000004460D468368828813448B4202D078460C
:109E1000FEF756FB0023AB70211D2046FFF78CFF99
:109E2000A288A36813449B78042B00D038BD00237C
:109E3000A380FBE710B50C468368428813448B422D
:109E400002D07846FEF73CFB0023A37010BD70B52E
:109E5000054614460E46002944D0002D46D0B6F1E2
:109E6000005F08D94FF08053D3F80C3103F500237D
:109E7000B6EB832F0ED3B6F5000F08D94FF0805301
:109E8000D3F80C3103F50053B6EB832F02D3784699
:109E9000FEF716FB631E3344B3F1005F08D94FF0A1
:109EA0008052D2F80C2102F50022B3EB822F0ED3A0
:109EB000B3F5000F08D94FF08052D2F80C2102F50B
:109EC0000052B3EB822F02D37846FEF7F9FA042C46
:109ED00010D92C8000236B80AB80AE60043C3480B2
:109EE000B37070BD7846FEF7EBFAB6E77846FEF73A
:109EF000E7FAB4E77846FEF7E3FAEAE738B504464E
:109F0000A0B16288A36813449B78012B12D0EFF3B1
:109F1000108572B6A388A16819448B78032B0DD0E5
:109F20002046FFF735FF05B962B638BD7846FEF723
:109F3000C7FAE6E77846FEF7C3FAE8E72046FFF7F8
:109F40000BFFA368C31A638000238370EBE72DE93E
:109F5000F0410E4614460546D0B1EEB16A88AB68B2
:109F600013449B78012B1BD024B32846FFF705FF31
:109F7000A04221D3EFF3108872B621462846FFF79E
:109F80000DFF074680B1B8F1000F16D162B614E09C
:109F90007846FEF795FAE0E77846FEF791FADDE7B6
:109FA0007846FEF78DFADFE721462846FFF7E9FEFF
:109FB0003060E8E7092700E009273846BDE8F0816E
:109FC000F8B50C4615460646E0B1FCB1A378012B66
:109FD00020D12388AB4221D325B3EFF3108772B68B
:109FE00025800223A370F1183046FFF7A5FE738881
:109FF000B288934203D0B268134400229A7007B922
:10A0000062B6F8BD7846FEF75BFADEE77846FEF703
:10A0100057FADBE77846FEF753FADAE77846FEF7B9
:10A020004FFAD9E77846FEF74BFAD6E770B50C46FB
:10A03000054690B1ACB1EFF3108672B6AA88AB6852
:10A0400013449A78042A10D09A78022A15D0032A49
:10A0500018D0052006B962B670BD7846FEF730FA12
:10A06000E8E77846FEF72CFAE5E7291D2846FFF7D2
:10A0700063FEAA88AB681344E6E703229A70236064
:10A080000020E7E77846FEF71BFA0020E2E738B544
:10A09000044680B1EFF3108572B6A088A168014430
:10A0A0008B78042B0BD08878022814BF0020012065
:10A0B00005B962B638BD7846FEF702FAEAE72046EF
:10A0C000FFF74AFE0146EEE738B5054678B1EFF3F3
:10A0D000108472B6A888A96801448878C31EDBB2D0
:10A0E000012B08D82846FFF737FE0146F5E77846EA
:10A0F000FEF7E6F9EBE7022814BF0020012004B9BF
:10A1000062B638BD70B50C46064678B194B1EFF32F
:10A11000108572B6A378012B10D0032B13D12146E2
:10A120003046FFF76CFE05B962B670BD7846FEF7A3
:10A13000C7F9EBE77846FEF7C3F9E8E72146304672
:10A14000FFF778FEEFE77846FEF7BAF9EBE710B5D0
:10A15000EFF3108472B68388816819448B78042BDE
:10A1600006D08878B0FA80F0400904B962B610BD14
:10A17000FFF7F2FD0146F4E708B5064B98680022A8
:10A180001A605A609A60DA601A615A619A6104F042
:10A190005FFF08BD2437002000B585B00A4BDB689F
:10A1A00002228DF8002001934FF480530293074A56
:10A1B0006946012001F0B8FA18B9012005B05DF830
:10A1C00004FB0020FAE700BF2437002040370020BE
:10A1D00000B585B00A4B1B6802228DF80020019360
:10A1E0004FF480530293074A6946012001F09CFA1C
:10A1F00018B9012005B05DF804FB0020FAE700BFA4
:10A200004437002040370020164BDA681379517923
:10A210005B1A03F57F2303F6FF7302EB03339A42C5
:10A2200005D002F580520F4BDA600320704700B56D
:10A2300085B00D4B1B6801208DF8000001930B4B7E
:10A240000393042302930A4A694601F06DFA18B198
:10A25000002005B05DF804FB024B01221A760220B3
:10A26000F7E700BF2437002044370020483700209C
:10A270004037002000B585B00C4BDA680C4B1B68EA
:10A28000043301208DF800000192039340F6FC7323
:10A290000293084A694601F047FA28B90120034BA6
:10A2A000187605B05DF804FB0020FAE7243700209B
:10A2B000443700204037002000B585B00A4B1B68AA
:10A2C00001208DF800000193084B039304230293AF
:10A2D000074A694601F028FA18B9012005B05DF86F
:10A2E00004FB0020FAE700BF44370020303700208D
:10A2F0004037002010B584B0104BDA681478104B4A
:10A300001B68043301208DF800000193039202942E
:10A310000C4A694601F008FA70B9094B1B6804F051
:10A32000FC041C440434054B5C61D9680A780A4477
:10A330001A61012004B010BD0020FBE72437002083
:10A34000443700204037002008B50023092B09D8E6
:10A35000064A52F82320824201D00133F6E7044A2C
:10A36000536002E07846FEF7ABF808BD1C3F0400DE
:10A370002437002010B5214BDB6853B11F4B1B7EE7
:10A380005BB91E4B5B68092B26D97846FEF798F817
:10A3900022E07846FEF794F8F0E77846FEF790F86A
:10A3A000EFE7164A536801335360092B21D97846E9
:10A3B000FEF786F81DE0114B00225A6019E00F4BA2
:10A3C0001B7E1BB10D4B02221A7012E0FFF7D4FE68
:10A3D0000FE00A4B1B7E83B9084B5A68084B53F8B1
:10A3E0002230984704460228E9D00328E3D0012808
:10A3F000D7D0012CEDD0032CEBD010BD243700209A
:10A400001C3F0400104B1B681B685A1E12F1030FFF
:10A4100018D8C3F30B020AB10020704710B50B4ADD
:10A42000D360002313765376012414709360084898
:10A43000FFF78AFF0749204601F064F9FFF79AFF0A
:10A44000204610BD002070474437002024370020EC
:10A4500099A1020059A4020008B50B78032B06D07D
:10A460000B4B1B78012B06D0022B0BD008BD084BE1
:10A4700000221A76F4E7064B1B7E002BF6D1FFF77D
:10A4800079FFF3E70B78032BF0D1FFF775FEEDE7CB
:10A490002437002000B585B0174BDB6818784FF6DD
:10A4A000FF7203F58051184405F0A6FAE0B10246A8
:10A4B000114BD9680B780B44984217D00E4B5B7E3A
:10A4C00083B10E4B01208DF8000001920393042309
:10A4D00002930B4A694601F027F948B90120064B5F
:10A4E000187606E0074BEDE7012002E0012000E0CE
:10A4F000002005B05DF804FB24370020044204006E
:10A50000403700200042040008B5104BDB68187883
:10A51000002203F58051184405F06EFA08B10120BD
:10A5200008BD0A4BDA68137951795B1A03F57F236A
:10A5300003F6FF7302EB03339A4205D002F5805213
:10A54000024BDA600320EBE70220E9E72437002022
:10A55000F0B585B0514BDE6872793379591E8A4265
:10A5600014D006F580510D780D444D490968081D39
:10A570000F7907449B1A06EB03366B88013B9BB2AD
:10A5800047F6FE62934260D92C461AE00120434B05
:10A5900058767EE07846FDF793FF15E024F47F645B
:10A5A00024F00F0404F5805423781C44A64247D9B4
:10A5B000A54247D26388013B9BB247F6FE629342B5
:10A5C00011D92388002BE5D0238804EB830323F4DF
:10A5D0007F6222F00F029342E0D06288B2F5FE4F14
:10A5E000DCD01C46E2E725462FE07846FDF768FF01
:10A5F00015E024F47F6424F00F0404F580542378DC
:10A600001C44A64220D9A5423BD26388013B9BB2A1
:10A6100047F6FE62934211D92388002BE5D02388A8
:10A6200004EB830323F47F6222F00F029342E0D015
:10A630006288B2F5FE4FDCD01C46E2E7254604E016
:10A64000002502E0002500E00025E5B1144B196863
:10A650006A8801F58051384605F0CEF9074690B179
:10A6600001200E4B18768DF8000001950D4B0393D9
:10A67000042302930C4A694601F056F858B92C4657
:10A68000CAE70025E1E7B5FA85F56D09034B5D766C
:10A69000012005B0F0BD0020FBE700BF24370020FB
:10A6A00044370020FC410400403700202DE9F041F0
:10A6B00086B0644B1B692BB1624B5B6933B14FF0C1
:10A6C000000846E07846FDF7FBFEF5E77846FDF723
:10A6D000F7FEF4E77846FDF7F3FE15E025F47F6515
:10A6E00025F00F0505F580552B781D44AF421CD988
:10A6F000AC421ED26B88013B9BB247F6FE6293428E
:10A7000011D92B88002BE5D02B8805EB830323F48C
:10A710007F6222F00F029342E0D06A88B2F5FE4FCA
:10A72000DCD01D46E2E72C4600E000241CB100947A
:10A730003AE00024FAE700230093019B002B5CD150
:10A740004FF00108002C77D0628847F6FF739A42D9
:10A7500072D0B8F1000F73D13A4B5A6922F47F6678
:10A7600026F00F06B61A06F580561C69DF683B799D
:10A770007A799B1A07EB0337002301936388013B27
:10A780009BB247F6FE629342D1D92546B9E7784697
:10A79000FDF796FE23E024F47F6424F00F0404F513
:10A7A0008054237823441C46A742C6D92388019AA3
:10A7B00002EB83029642C0D9009B634023F47F637F
:10A7C00023F00F03002BB8D16388013B9BB247F6FF
:10A7D000FE618B42B1D801922388002BD7D0238809
:10A7E00004EB830323F47F6222F00F029342D2D062
:10A7F0006288B2F5FE4FD6D1CDE7124A52690120E8
:10A800008DF808000392009A059204930E4A02A95B
:10A8100000F08AFF70B90B49019B23F003024B69DA
:10A8200013444B6114B1074B1C618BE77846FDF76D
:10A8300047FEF8E7002000E0012006B0BDE8F08107
:10A840000120FAE7243700204037002000B585B00A
:10A8500040F6F8731B68B3F1FF3F09D0B3F1FF3F37
:10A860000CD07BB1B3F1FF3F37D0A3F580520FE09E
:10A870001E4A1268B2F1FF3FF0D103E01B4A126892
:10A88000002AEFD14FF080514B690A6902FB03F2B5
:10A89000A2F58052164B1A60164B1B6813F4801FEA
:10A8A00016D0154B1B68062B12DD144BD3F804355C
:10A8B00040F6F8710968B1F1FF3F13D0029201919F
:10A8C0000F4A009240F267220E49072003F048FC2D
:10A8D000FFF798FD05B05DF804FB044B1A68A2F57C
:10A8E0008052D5E701490968E8E700BF141000105D
:10A8F00044370020302E00202C2E00200010014074
:10A90000E83E0400CF3E040010B50446B0B1104B41
:10A910001B78BBB10E4BD968E3685879A3EB0032C2
:10A92000914211D31A79121A02F57F2202F6FF72B0
:10A9300003EB0233994209D8012004E07846FDF781
:10A94000BFFDE4E7002010BD0020FCE70020FAE78F
:10A9500024370020024B1878003818BF01207047B8
:10A960002437002010B504460E4B1B7893B923788A
:10A97000032B13D10B4B9C60E268DA6000225A6013
:10A980001A76012018705A76074900F0BBFEFFF7CF
:10A99000F1FC10BD7846FDF793FDE8E77846FDF73A
:10A9A0008FFDE7E72437002059A40200014B186807
:10A9B000704700BF4437002010B5044680B163687B
:10A9C0001BB123680BB1A36813B97846FDF778FD76
:10A9D000A3685A1E134207D10023E360236110BD10
:10A9E0007846FDF76DFDEAE77846FDF769FDF3E788
:10A9F000F8B500B30F4604468368F3B1EFF3108552
:10AA000072B60369C268934211D0016842688668D1
:10AA1000013E334003FB021117B1384618F01FFC0A
:10AA200023690133236155B962B62846F8BD05B9DB
:10AA300062B60525F9E70E25F7E70925F5E70025B4
:10AA4000F3E700000246C0F30B0040BB49B310B46B
:10AA500001F6FF710C0B144B0221C3F80415124BC5
:10AA6000D3F80034002BFAD001460AE00E4BC3F8AD
:10AA700008250D4BD3F80034002BFAD002F5805294
:10AA80000131A142F2D3084B0022C3F80425064B42
:10AA9000D3F80034002BFAD05DF8044B7047102037
:10AAA00070470920704700BF00E0014010F0030F1D
:10AAB0002FD110B4044611F0030F2CD16AB312F059
:10AAC000030F2CD19008174B0122C3F80425154B16
:10AAD000D3F80034002BFAD002E0043404311046DD
:10AAE000421E50B10B68B3F1FF3FF6D023600D4B0F
:10AAF000D3F80034002BFAD0EFE70A4B0022C3F85A
:10AB00000425084BD3F80034002BFAD05DF8044B31
:10AB10007047102070471020F8E70920F6E7092059
:10AB2000F4E700BF00E00140094B1B7813F0040F6D
:10AB300002D00378122B00D07047064B1A68064BE0
:10AB40005A60034B1A786FF382021A70F4E700BF61
:10AB5000E0370020D03700207C37002010B582B0CD
:10AB600001900C46000C012810D12368094A13609B
:10AB700009490B7843F001030B705B0883F0010374
:10AB800003F001031371002002B010BD7846FDF7F9
:10AB900097FCEAE7D0370020E037002010B582B0FC
:10ABA00001900C46000C02280FD12268094B1A6054
:10ABB00022791A71002058719871D871064A137859
:10ABC00043F00203137002B010BD7846FDF778FC25
:10ABD000EBE700BFC8370020E037002010B582B097
:10ABE00001900C46000C032806D1054B1868206024
:10ABF0001B79237102B010BD7846FDF761FCF4E7C4
:10AC0000D037002010B582B001900C46000C03280C
:10AC10000CD1084B2068186022791A71064A137803
:10AC200043F001031370002002B010BD7846FDF719
:10AC300047FCEEE7D0370020E037002010B582B0A7
:10AC400001900C46000C042805D1054B03CB206075
:10AC5000616002B010BD7846FDF732FCF5E700BF39
:10AC6000C837002010B582B001900C46000C0428B3
:10AC70000BD1084B2068616803C3074A137843F07F
:10AC800002031370002002B010BD7846FDF718FCD7
:10AC9000EFE700BFC8370020E037002000B583B0E1
:10ACA0000190000C032806D1054B00221A601A718E
:10ACB00003B05DF804FB7846FDF702FCF4E700BF43
:10ACC000D037002000B583B00190000C042806D1D5
:10ACD000054B00221A605A6003B05DF804FB784609
:10ACE000FDF7EEFBF4E700BFC837002010B582B0D7
:10ACF0000024ADF800400123ADF80230009805F0C3
:10AD0000C2FFADF804400223ADF80630019805F00B
:10AD1000BAFF02B010BD0000154B1B7813F0040FF2
:10AD200025D100B585B0134B5B6803F50053019343
:10AD3000B3F1807F02D905B05DF804FB0E4B1B78A0
:10AD40008DF808300A4A137843F004031370002387
:10AD5000ADF80C300323ADF80E3001A9039805F0CF
:10AD600061FF0028E7D07846FDF7AAFBE3E77047CC
:10AD7000E03700207C370020E137002000B585B0A7
:10AD80000022ADF809200F4B996801911B7B8DF8CB
:10AD900008300D490B780133DBB20B708DF80B30A6
:10ADA000ADF80C200423ADF80E300DEB0301039831
:10ADB00005F038FF10B905B05DF804FB7846FDF7E3
:10ADC0007FFBF8E77C370020E137002000B585B035
:10ADD0000F4B9A6801921A7B8DF808201B8AADF8F8
:10ADE00009300C4B1B788DF80B300023ADF80C307C
:10ADF0000423ADF80E300DEB0301039805F012FFAC
:10AE000010B905B05DF804FB7846FDF759FBF8E78B
:10AE10007C370020E137002000B58DB00B4B1B7B49
:10AE2000012B0ED0094A926804928DF808300390E5
:10AE300002238DF8043001A8FEF72AFF0DB05DF85B
:10AE400004FB024A9268013A0492EEE77C37002044
:10AE500008B51B481B4B036000F0B4FE1A4B1B786F
:10AE600013F0200F25D103F00303032B14D1174B4C
:10AE70001968174A916019791173B3F805001082A7
:10AE8000DB79144A1370144A1279934212D089B9AB
:10AE90000F4B00221A6007E00D4B00221A609A60E7
:10AEA0001A731A82FFF76AFF094B1A685A60FFF794
:10AEB00033FF08BD084B1A68054B1A60F4E700BF62
:10AEC000BC37002029AB0200E0370020C837002043
:10AED0007C370020E1370020D037002010B582B049
:10AEE0000024ADF800400323ADF80230009805F0CF
:10AEF000CAFEADF804400423ADF80630019805F011
:10AF0000C2FE074B1C605C609C60DC601C61054BF2
:10AF10001A7864F345121A70FFF7FEFE02B010BDF6
:10AF20007C370020E037002038B50C4D00242C6021
:10AF30006C60AC60EC602C6101F016F9084B586055
:10AF4000084A9A60084ADA601C615C61074B1A780B
:10AF500064F3C3021A706C6038BD00BF7C370020F8
:10AF600058370020B5B0020000879303E037002077
:10AF700008B50C4B1B7813F0100F00D008BD0A4821
:10AF80000A4B036000F01EFEFFF762FFFFF7AEFE04
:10AF9000074801F081F8034A137843F01003137057
:10AFA000ECE700BFE0370020703700200DB2020050
:10AFB0005837002010B501F08BFE174B1B7B1BBBD5
:10AFC000154B9B7B2BBB144B1A8A41F282639A422E
:10AFD00006D8124B1B7813F0080F05D0012300E0B0
:10AFE00001231BB9082410E00023FAE70A4B0122D1
:10AFF0001A7300241C829A6801329A60FFF7BEFE21
:10B000002046FFF709FF00E0082401F0A5FE2046D6
:10B0100010BD0824F9E700BF7C370020E03700208E
:10B0200010B501F055FE214B5B7BABB11F4B9B7BF9
:10B0300003BB1E4B1A8A41F282639A4206D81C4B0C
:10B040001B7813F0080F05D0012300E001239BB10A
:10B05000012302E00023FAE700231C460BB3134B45
:10B0600000225A731B7B4BB1012B0ED07846FDF7A3
:10B0700027FA16E00023F0E70023EEE7FFF79AFF38
:10B0800078B17846FDF71CFA0BE0084B00201860F9
:10B09000586018731882FFF7BFFEFFF76FFEFFF7C7
:10B0A0003BFE01F059FE204610BD00BF7C3700205A
:10B0B000E037002008B52C4B1B7BDBB1012B2ED0D9
:10B0C0007846FDF7FDF9284A138A01339BB21382B3
:10B0D000264AA2FB03121209C2EB0212A3EB42039F
:10B0E0009BB2002B3DD0204B5B8A13B1013B1E4A23
:10B0F000538208BD1C4B1A8A41F282639A4206D8D9
:10B100001B4B1B7813F0080F07D0012300E001232D
:10B11000002BD8D0FFF784FFE5E70023F8E7124BB8
:10B120001B8A41F28262934206D8114A127812F0C9
:10B13000080F14D0012200E00122002AC3D042F2FD
:10B14000B012934202D9084B01225A73FFF768FFED
:10B150000028C8D1044B5B7B012BB4D1C3E700228C
:10B16000EBE7FFF733FEBEE77C370020898888884D
:10B17000E037002010B5244B1B7B002B35D1044653
:10B18000214B5B8A2BBB1AB91F4B9B688B4205D3A3
:10B19000FAB11D4B9B6801338B421AD21A4B9B6844
:10B1A0002A338B4223D3184B9B7B03BB164B9960EE
:10B1B00000221A605A601A8242F6065159825A7366
:10B1C0001A73FFF7DBFDFFF7A7FD2046FFF724FE0C
:10B1D0000DE062B10C4B9B6801338B4207D10A4BE7
:10B1E00001225A73FFF71CFF01E0012B00D010BDB4
:10B1F000002AFCD1044B9B688B42F8D1024B012200
:10B200005A73FFF70DFFF2E77C3700200378042B19
:10B2100000D0704743681B78002BFAD010B58468C3
:10B22000027E437E012A14BF00220122416904F1FB
:10B230001000FFF79FFF10BD10B5184B1A685B6830
:10B240009A4226D20446154B1B7B012B14D0144B7B
:10B250009A4213D2114B1A685B68403B9A4215D24E
:10B26000EFF3108172B60D4A1368581C106023600A
:10B2700001B962B6002010BD0A4BE9E7074B012275
:10B280005A73FFF7CDFE0028EAD1E3E7FFF744FD4C
:10B29000E6E7FFF741FD0F20EDE700BF7C37002018
:10B2A000FFFF7F0000E0FF0008B538B10D4B012221
:10B2B0009A730D4A13680133136008BD0A4B1B686B
:10B2C0005BB1094A1368013B1360002BF5D1054BB4
:10B2D00000229A73FFF7A4FEEFE77846FDF7F0F837
:10B2E000EFE700BF7C3700204C37002000B58DB061
:10B2F000ADF808008DF81020039103238DF8043079
:10B3000001A8FEF7C5FC0DB05DF804FB014B986881
:10B31000704700BF7C370020054B1B7B012B02D000
:10B32000034B98687047024B98680138704700BF1C
:10B330007C370020044B9B68584010F0010F00D070
:10B34000013B1846704700BF7C370020014B187B3B
:10B35000704700BF7C37002038B50D4B1B7813F0C9
:10B36000200F01D0082038BD094A43F02003137094
:10B37000084DA860297300242C82FFF7FFFC2046AB
:10B38000FFF74AFD2C606C60FFF7C6FC2046EAE739
:10B39000E03700207C3700202DE9F041002624E032
:10B3A0002449BC2303FB04F3CA5A0132CA520221C6
:10B3B000284602F087FC01370221284602F052FCA1
:10B3C000014679B11B4ABC2303FB0423D3F8088050
:10B3D000B8F1000FE4D0BC2303FB04F3D25A30468B
:10B3E000C047DDE797B90136F6B2022E1FD83446C2
:10B3F000BC2303FB06F308330E4D1D440435022124
:10B40000284602F02FFC01460027DAE7284602F022
:10B41000C1FC0828E7D1074BBC2202FB0434A36817
:10B42000002BE0D00022044930469847DBE701209A
:10B43000BDE8F081EC370020543F040008B5082334
:10B4400083731023437300F11C03436103230373CD
:10B4500000F1180303610C3002F06EFC08BD00001F
:10B4600008B50378012B06D0022B06D07846FDF7ED
:10B4700027F8002002E0292000E0014808BD00BFB5
:10B48000084C010008B50378012B07D0022B15D01A
:10B490007846FDF715F84FF4FA730AE08368591AF5
:10B4A00021F0030303EB9103DB0003EB910303F5AE
:10B4B000FA730748984228BF184608BD8368591A8E
:10B4C000090B044B03FB01F303F5FA73F1E700BF2B
:10B4D00060850100084C010038B5044601210C309C
:10B4E00002F0C0FB054678B1084BC4F89C3000233D
:10B4F000C4F8A0306168FFF7C5FFC4F8A800C4F81D
:10B50000AC40012384F8B830284638BD2DB602007F
:10B5100010B50446FFF7E0FF20B104F19C000EF0E7
:10B5200009FA00B910BD7846FCF7CAFFFAE7000037
:10B53000F8B505460C46164617680378012B19D155
:10B540001249A1FB043149098B00AC68E41BB4EB40
:10B55000810F00D31C468CB1686827F00307E968A7
:10B56000224639443844FFF7A1FA58B933681C44DD
:10B570003460F8BD7846FCF7A3FFE1E77846FCF7B6
:10B580009FFFE9E77846FCF79BFFEFE77D0CCEC70E
:10B59000F8B506460C46154617680378022B17D1F6
:10B5A000114BA3FB04231B0C1A03B468E41BB4EB7C
:10B5B000033F00D314467CB1706827F0030721468F
:10B5C0003844FFF73FFA58B92B681C442C60F8BD8B
:10B5D0007846FCF775FFE3E77846FCF771FFEBE789
:10B5E0007846FCF76DFFEFE7EB0661C538B5054619
:10B5F0000C4611462378012B06D0022B0FD078463B
:10B60000FCF75EFF002304E0021D2046FFF790FFD9
:10B61000A3686868984214BF0020012038BD021D4D
:10B620002046FFF7B5FFA368F3E700002DE9F843D4
:10B630000F46D1F8A850254B1B786BB90446A5F5E9
:10B64000FA7501F10C080121404602F00BFB064699
:10B6500048B14FF0000924E00EF0A8F9002387F864
:10B66000B830BDE8F8837846FCF72AFFF1E70EF022
:10B670009DF90121404602F025FB00237B6087F8FD
:10B68000B830134B186801F0BBFB3846FFF740FF9A
:10B69000E7E7A4EB00093046FFF7E2FE4844A84282
:10B6A0000DD8A5EB090231463846FFF79FFF002869
:10B6B000DDD101F0E5F9B0EB0409ECD5E9E70EF0D6
:10B6C00075F93846FFF724FFCBE700BFE8370020C5
:10B6D000E437002010B5084801F072FB074B1860F2
:10B6E000002406E0064BBC2000FB0430FFF7A6FE5A
:10B6F0000134022CF6D910BD99B30200E4370020C2
:10B70000EC37002038B504460D46022805D8054818
:10B71000BC2303FB0404A56038BD7846FCF7D0FECB
:10B72000F5E700BFEC3700202DE9F84305460C464D
:10B730001746022816D8CCB12378012B1AD0022B39
:10B740003ED16368C3F30B03002B31D1A368C3F36D
:10B750000B03002B30D1A368002B34D17846FCF7C3
:10B76000AFFE30E07846FCF7ABFEE4E77846FCF746
:10B77000A7FEE1E7636813F0030F0DD1E36813F050
:10B78000030F0DD1A36813F0030F0DD1A368D3B934
:10B790007846FCF795FE16E07846FCF791FEEDE75B
:10B7A0007846FCF78DFEEDE77846FCF789FEEDE77D
:10B7B0007846FCF785FEC9E77846FCF781FECAE7C4
:10B7C0007846FCF77DFEEFF3108872B6BC2606FBC8
:10B7D00005F606F108032A4E1E44043600213046C1
:10B7E00002F040FA814678B30021304602F06AFA4E
:10B7F00020686168A268E368C9F80000C9F804100D
:10B80000C9F80820C9F80C302FB11D4ABC2303FB2E
:10B8100005235B883B801A4ABC2303FB05235A8817
:10B8200001325A8093F8B83083B9164B1B7813B1A4
:10B830000024A1460CE0124BBC2000FB0530FFF7B2
:10B840004BFE8146002403E0042401E00024A146CD
:10B85000B8F1000F00D162B6B9F1000F09D0BC20D9
:10B8600000FB05F09830064D284404300EF062F8D5
:10B8700010B92046BDE8F8837846FCF721FEF8E7CA
:10B88000EC370020E837002038B50446EFF3108588
:10B8900072B610B9164B1B6873B18CB1144A136899
:10B8A00001331360124B1B68003B18BF0123114A80
:10B8B000137005B962B638BD7846FCF701FEECE7B7
:10B8C0000B4B1C68013C1C6034B1EBE7BC2000FB57
:10B8D0000420FFF71DFE0134022CE3D8064ABC23E6
:10B8E00003FB042393F8B830002BF4D1EEE700BF3C
:10B8F000203A0020E8370020EC37002018B1830BF5
:10B90000024AD05C70470020704700BF643F0400CB
:10B9100012DF704700B583B001F0C0FE40B10C4BA0
:10B920001B6813F0400F03D00A4B1B68012B02DC8D
:10B9300003B05DF804FB084BD3F804350190074AC7
:10B9400000926C220649022002F00AFCF0E700BFD8
:10B95000302E00202C2E002000100140C03F04009B
:10B96000B33F040070B58AB00EF096FD48B30646AA
:10B9700000238DF8103005AC05460FCD0FC42B68A1
:10B980002360727D052A04D9337D03F00F03072B52
:10B990001ED1174B1A688AB104AB0393337DC3F3EE
:10B9A00003038DF80430737D062B1BD9063B8DF8FD
:10B9B000053006F11D03029301A8904730460EF0B2
:10B9C0004BFD0EF085FD80F00100C0B20AB070BDE5
:10B9D000307D04AB063A06F11D0100F00F000DF0BA
:10B9E0006FFAD6E700238DF805300293E4E700BF35
:10B9F000283A00200B4B1B78032B00D0704700B572
:10BA00008DB0084B04221A702C22002101A817F0D7
:10BA10004FFC1C238DF8043001A8FEF739F90DB056
:10BA20005DF804FB243A002070B582B02E4B1B78E1
:10BA3000002B4FD10446002850D0067A0F2E01D09B
:10BA4000062E4DD105F080FFE06870B1FCF74AFD8D
:10BA50000DF10700FFF75CFF054600283BD19DF87C
:10BA60000730012B04D0022535E0FCF749FDEFE754
:10BA7000FCF768FD00F0FCFA304601F0D7F8E078FA
:10BA800000F020F900F0C8FE0DF0D6FE17480EF0C9
:10BA9000BBFD0DF0BDFB0DF0F5F9FFF71BFE05F04A
:10BAA0002DF800F0DFFC05F00FFF05F0D3FC204679
:10BAB00001F002FDFDF7B4FD04F014FBFCF74EFCB1
:10BAC00008B106280ED10A4B00221A60064B01224B
:10BAD0001A7000E00825284602B070BD0E25FAE76E
:10BAE0000725F8E70546F6E7243A002065B9020085
:10BAF000283A002010B582B01E4B1B78012B0DD0C8
:10BB00005AB282B3033BDBB2012B2ED80DF002FFF9
:10BB1000044658BB174B02221A7027E00EF07AFC3D
:10BB200001F0DAFCFDF7BEFDFCF718FC0446B8B1E5
:10BB3000062815D0104B1B6813F4804F16D00F4BFE
:10BB40001B68012B12DD0E4BD3F8043501900D4A12
:10BB500000924FF4AF720C49022002F001FB05E0A5
:10BB600001F090F8D2E7082400E00824204602B053
:10BB700010BD00BF243A0020302E00202C2E0020C3
:10BB800000100140EC3F0400B33F040008B5094B2E
:10BB90001B78022B01D0082008BD064B03221A7027
:10BBA00005480DF06BFE0028F6D07846FCF788FCBF
:10BBB0000020F1E7243A0020F5B9020008B5FDF7AE
:10BBC00075FD08BD08B5FEF78BF808BD08B5FEF792
:10BBD00097F808BD08B500F0E5FD002008BD08B5E0
:10BBE00007F062FA08BD0000064A136801331360CB
:10BBF000B3F1704F02D0034B18687047134601220F
:10BC00001A60F8E72C3A002010B5044618B100235A
:10BC10002360636010BD7846FCF752FCF7E738B547
:10BC20000C46054668B184B100236360EFF31083CE
:10BC300072B62A686AB16A6854606C6003B962B609
:10BC400038BD7846FCF73CFCEDE77846FCF738FC5D
:10BC5000EAE72C60F1E710B5044658B1EFF3108322
:10BC600072B6206808B142682260226832B103B916
:10BC700062B610BD7846FCF723FCEFE76260F6E79A
:10BC800010B5044608B1206810BD7846FCF718FCD2
:10BC9000F9E735DF7047000008B54FF0FF30FFF7D8
:10BCA000F8FFBFF34F8F0549CA6802F4E062044B06
:10BCB0001343CB60BFF34F8F00BFFDE700ED00E003
:10BCC0000400FA05072814D8DFE800F0080C150472
:10BCD000110F0A066420704714207047FA2070473D
:10BCE0001E2070474FF4FA707047322070474B2087
:10BCF0007047FA207047962070470000024B586842
:10BD0000103840B2704700BF00ED00E00346002845
:10BD10000FDB5B11084A52F82330424200F01F004B
:10BD200002F01F0258BF504223FA00F000F0010059
:10BD3000704700F11F03ECE700E100E046DF7047C9
:10BD4000F8B504460D464B1EDBB2012B09D8002383
:10BD500023616361A361E3612046FFF7EFFF0120E8
:10BD600016E07846FCF7ACFBF1E7CA5CCE1852004F
:10BD7000D2B2767842EAD612CA5401339BB20E2B65
:10BD8000F3D9CB7B5B00CB73002F08DB0130C0B253
:10BD9000A8420BD8214611F9207F0023EFE794F841
:10BDA0002F3083F0870384F82F30EFE7F8BD2DE9BB
:10BDB000F04190B084460C4696461F4602F10F08AB
:10BDC0004FEA281604AD0068DCF80410DCF80820FF
:10BDD000DCF80C300FC50EF00F055FEA181302D027
:10BDE0007DB1002300E00023984663B1012104A83F
:10BDF000FFF7A6FFB8F1000F1AD0701E0001102344
:10BE00000EE00123F0E70221F1E7013B9BB222188B
:10BE1000D25C10A9194411F8101C4A400DF80320F7
:10BE2000002BF2D100250C950D950E950F9533E062
:10BE3000711EADB22A4604EB0111684617F00FFAE5
:10BE400080230DF805306B1C03E000220DF8032061
:10BE500001330F2BF9DD10230AE0013B9BB21DF8E3
:10BE6000032010A9194411F8101C4A400DF80320B2
:10BE7000002BF2D1D6E7013A92B210AB134413F87B
:10BE8000100C63189B5C584008AB9854002AF2D100
:10BE900004A8FFF753FF0135731EAB4202DD2901F1
:10BEA0001022F3E710230AE0013B9BB210AAD1183D
:10BEB00011F8402C11F8101C4A4008A9CA54002B54
:10BEC000F2D104A8FFF73AFF0CAC0FCC38607960D0
:10BED000BA60FB6010B0BDE8F081000010B5044608
:10BEE000134B1B6893B14168114B1B685B68CB1AFD
:10BEF000002B0BDB0E4B1B6818465B691BB15A68A5
:10BF0000521A002AF8DB6361446103E0084B1A68A7
:10BF100062611C60064A93889BB201339BB2938096
:10BF200013B10123237010BD7846FCF7C9FAF8E776
:10BF3000343A002038B505461CE07846FCF7C0FAD4
:10BF40006369204A13600023636193889BB2591E82
:10BF500089B29180F3B1A36803B302232370A3686D
:10BF600021692846984700F0FFF805462378DBB2A0
:10BF7000022B17D0134B1B681BB3124B1B685B685B
:10BF80005B1B642B1DD50F4B1C682378DBB2012B88
:10BF9000D6D0D2E77846FCF793FADCE77846FCF790
:10BFA0008FFADAE7E26812B900232370E2E76368E8
:10BFB000134463605B1B642BF9D42046FFF78EFFAC
:10BFC000D8E738BD343A002010B50446144B1B683E
:10BFD000834207D0124B1B68D3B15A69A2420ED0DC
:10BFE0001346F9E743690E4A136093889BB2591EC2
:10BFF00089B2918063B97846FCF762FA08E0626919
:10C000005A6107498B889BB25A1E92B28A8013B13B
:10C010000023237010BD7846FCF752FAF8E700BF02
:10C02000343A002008B5064B1B6833B1044B1B683B
:10C030000449586800F046F908BD00F0A1F9FBE793
:10C04000343A002061C0020008B500F08DF8FFF717
:10C0500071FF00F089F8FFF7E5FF012008BD00003F
:10C0600008B5024B186800F0CBFE08BD303A00203E
:10C0700008B5064B00221A605A60054800F0A0FE81
:10C08000044B186000F063F808BD00BF343A00208C
:10C0900049C00200303A002010B5044600F084FF89
:10C0A00080B19CB1A368ABB12378DBB2012B15D072
:10C0B000002363612046FFF711FF00F055F8FFF7FA
:10C0C000B1FF10BD7846FCF7FBF9EAE77846FCF7CC
:10C0D000F7F9E7E77846FCF7F3F9E5E77846FCF788
:10C0E000EFF9E5E710B5044600F05EFF50B16CB122
:10C0F0002046FFF769FF0023636100F035F8FFF782
:10C1000091FF10BD7846FCF7DBF9F0E77846FCF7C5
:10C11000D7F9EDE738B504460D4600F045FF70B19C
:10C120008CB12046FFF750FF002363616560204615
:10C13000FFF7D4FE00F018F8FFF774FF38BD78461B
:10C14000FCF7BEF9ECE77846FCF7BAF9E9E708B581
:10C1500016F046FF00B108BD16F0BCFE0028FAD06C
:10C160007846FCF7ADF9F6E770B4EFF3108172B6DC
:10C17000184B1A68184BD3F80455D3F80431012B27
:10C1800022D001B962B645EA026500266B01EA0ECB
:10C190005B1B62EB0602510241EAD351580243197C
:10C1A00041EB0600810141EA93619A01D31A61EBE8
:10C1B00000005B1946EB000013F580437041DB0B78
:10C1C00043EA404070BC7047034BD3F8045501323A
:10C1D000D7E700BF3C3A00200010014010B50A4BE1
:10C1E0004FF40032C3F84823C3F80823074B1B68F9
:10C1F0002BB1064B1C68FFF7B7FFA04710BD784670
:10C20000FCF75EF9F5E700BF00100140483A002056
:10C21000EFF3108172B6264B0022C3F80421254AA1
:10C2200013680133136001B962B6234B1B68002BFE
:10C230003DD0214B1A68013A1A601B68002B36D199
:10C2400003F1804303F58833D3F804251B4B1B68A7
:10C250009A421ED2EFF3108272B6154BD3F8043512
:10C260000133164909688B4210D3114BD3F80435BA
:10C2700002330F49C1F8443502B962B60C4B4FF492
:10C280000032C3F84423C3F8042370470B4B1B68E8
:10C29000EFE710B50A4B1B682BB1094B1C68FFF781
:10C2A00063FFA04710BD7846FCF70AF9F5E7704731
:10C2B000001001403C3A0020403A0020443A00205F
:10C2C000483A002030B583B00446002301930D4660
:10C2D000002936D0244B1D60FFF746FF031B002BBF
:10C2E00033DB0023590CD803204C214A00230019CA
:10C2F0004FF0000444EB010116F078FEEFF31083D9
:10C30000019372B61B4BD3F80435022838BF0220C4
:10C31000C3F1FF1202F57F42824218D30344154A4B
:10C32000C2F844354FF40033C2F84433C2F8043342
:10C33000114A1460114A1460019B03B962B603B03C
:10C3400030BD7846FCF7BCF8C4E7231ACAE70344BB
:10C3500003F17F4301331A0E013207490A6023F0CB
:10C360007F43064A1360E7E7483A002020A1070010
:10C3700040420F0000100140403A0020443A0020A3
:10C38000074B4FF40032C3F84823C3F808230023B7
:10C39000044A1360044A1360044A1360704700BFE4
:10C3A00000100140403A0020443A0020483A002062
:10C3B00030DF704731DF704710B4034602684068D1
:10C3C000A2EB70129C6880EAF4301860D9680C44C3
:10C3D0005C60114499601044D8605DF8044B70476C
:10C3E00070B582B00D46064608B100240BE07846D1
:10C3F000FCF766F8F9E79DF807103019FFF7DAFF48
:10C400009DF807301C44A5420DD90DF10700FFF738
:10C41000CFFF9DF80730002BF7D02A1B9342EAD9B3
:10C420008DF80720E7E702B070BD000030B583B09B
:10C4300005460024019404210DEB0100FFF7D0FF15
:10C44000074B2B60019B6B60AB60EB6003E0284601
:10C45000FFF7B2FF0134132CF9D903B030BD00BF90
:10C46000ED5EEAF17047000070B582B000241EE076
:10C47000194E33680193A5B204F58073ADF8063008
:10C48000019804F000FC7368019305F58173ADF821
:10C490000630019804F0F7FBB368019305F5827547
:10C4A000ADF80650019804F0EEFB0134E4B2012C23
:10C4B000DED9094CE06804F0E6FB206904F0E3FBF8
:10C4C000606904F0E0FBA06904F0DDFBE06904F0C2
:10C4D000DAFB02B070BD00BF1440040048DF7047B3
:10C4E00049DF70474ADF7047044B01225A7143F21B
:10C4F000B0629A6043F69822DA607047983A00205A
:10C50000094B03221A74094A5A611A6840F6D86323
:10C510009A4204D9054B43F2B0629A607047034BCC
:10C5200040F6D8629A607047783A0020983A002026
:10C5300008B50F4B1B78022B12D0032B08D0012B10
:10C5400003D07846FBF7BCFF0EE0022303740BE038
:10C55000084B00225A71084999600849D9608271D4
:10C5600003230374034B4361014B00221A7008BD7F
:10C57000A93A0020983A0020A0860100FF1FA107D9
:10C5800038B5044600250574012343710E4A13682B
:10C590000133136000F0D2FA0DF082FA23680B4ADF
:10C5A0001168283101FB03F1094AA2FB0121A3EB29
:10C5B0009141084A7839284600F03CFA00B938BD64
:10C5C0007846FBF77DFFFAE7AC3A0020943A00206A
:10C5D00083DE1B4301C5020010B5044600238360BF
:10C5E000C36003680D4A92680260817991B10121AC
:10C5F000017403B90A4B991A6161B1F57A7F01D3CD
:10C600009A4202D94FF47A736361FFF76DFF0123F9
:10C61000A37110BDFFF7B4FFF7E700BF983A002001
:10C620008096980010B50C4631B1C3680133C360E1
:10C630004269036813440360836801338360012205
:10C640000274426952084261012B0DD0022B19D0AD
:10C6500042690368134417498B4222D840F6D763D6
:10C660009A4221D800231DE0B2F5FA7F05D040F6AA
:10C67000D8639A42ECD84361EAE7002CF7D1002353
:10C680004361E5E7C368022B06D0012BE0D1002C03
:10C69000DED100234361DBE70268064B9B1A43614E
:10C6A000D6E7002313B110BD0123FBE7FFF768FFB6
:10C6B000F9E700BF8096980043791BB90D4B002223
:10C6C0001A70704710B504460DF006FA23680A4A3E
:10C6D0001068283003FB00F0084AA2FB0020A3EBFF
:10C6E0009040783800F05AFA00236371014B002221
:10C6F0001A7010BDA83A0020943A002083DE1B4334
:10C7000008B5254B01221A71244B1B7813B1244B19
:10C710001B781BB3204B00221A7404281AD8DFE8B8
:10C7200000F00314110C07001B48FFF755FF1CE035
:10C7300001211948FFF776FF17E000211648FFF79F
:10C7400071FF12E00DF058F90FE000F0B9F90DF0AB
:10C750008DF90AE07846FBF7B3FE06E000F090F9A9
:10C760000D4B18601846FFF7E3FE0B4B1B7C023B9A
:10C77000DBB2012B08D9084B1B7C022B08D00648E2
:10C7800000230371103008BD0348FFF795FFF2E75F
:10C79000014B01221A76F2E7783A0020A93A0020EC
:10C7A000A83A002008B50438042814D8DFE800F0BF
:10C7B000182614030E00164B1B7E012B0BD1FFF71E
:10C7C0008FFE40B17846FBF77BFE04E0104B002261
:10C7D0001A760DF0A5F908BD7846FBF771FEFAE769
:10C7E000FFF782FE0B4840F6D8638360FFF77AFEBE
:10C7F0000028F0D07846FBF763FEECE70548FFF72A
:10C8000071FE0028E7D07846FBF75AFEE3E700BF49
:10C81000783A0020983A002010B40E4A0023137092
:10C8200013710121517143F2B064946043F698246E
:10C83000D460094A1060094A1370094A1370094A02
:10C840001360094A137153711360137691715DF887
:10C85000044B7047983A0020943A0020A83A0020F0
:10C86000A93A0020AC3A0020783A002008B5104BD5
:10C870001B7E012B08D0022B17D00BB1002008BD66
:10C880000C48FFF72BFE40B90B48FFF72BFE40B9D1
:10C89000074B02221A760020F1E77846FBF710FEDC
:10C8A000F2E77846FBF70CFEF2E71120E7E700BF5E
:10C8B000783A002001C70200983A00200B4B1B7CFD
:10C8C000023BDBB2012B0BD9094B1B78012B09D0A2
:10C8D000022B09D0032B01D00020704701207047A4
:10C8E000012070470120704701207047783A0020EE
:10C8F000A93A0020014B1868704700BF783A002021
:10C900000D4B5B790BB90020704710B50A4B1C68C2
:10C910000A4B1B68283303FB04F3094AA2FB0323D9
:10C92000A4EB9344783C00F0ABF80346201A00D403
:10C9300010BD181BFCE700BF783A0020943A002095
:10C9400083DE1B43014B5879704700BF783A0020C3
:10C95000014B1879704700BF783A0020024B187ECF
:10C96000003818BF01207047783A0020EFF3108399
:10C9700072B6054A527922B1044A4FF48071C2F866
:10C98000001103B962B67047783A002000E100E078
:10C9900008B5054B1B7E022B00D008BD034B0122BE
:10C9A0001A70FFF7E3FFF8E7783A0020A93A002071
:10C9B00008B5074B1B7E022B00D008BD012804D010
:10C9C000044A1370FFF7D2FFF7E70323F8E700BF2D
:10C9D000783A0020A93A002008B5094B1B782BB102
:10C9E00048B9084B1B7813B1012300E00023044A27
:10C9F000107013B908BD0023F9E7FFF7B7FFF9E797
:10CA0000A83A0020A93A002010B4094B00F15002C6
:10CA1000002443F8224000F110040122A240C3F890
:10CA2000042300F5A87043F820105DF8044B70470C
:10CA300000800040022817D810B5EFF310840C4B8B
:10CA40001C6072B60B4B43F820200B4B002243F8BE
:10CA500020200A4B1B7823B9054B186830B962B601
:10CA600005E0FFF7D1FFF7E707207047002010BD72
:10CA7000C03A0020B03A0020CC3A0020BC3A002056
:10CA8000EFF310820A4B1A6072B60A4B1B7863B13F
:10CA9000094B0022C3F84C210122DA64D3F84C057B
:10CAA000034B1B6803B962B67047044B1868F7E77D
:10CAB000C03A0020BC3A002000800040C43A002068
:10CAC0002DE9F041002411E00027174B43F82470B2
:10CAD000012303FA05F5154EC6F80853FFF7D0FFFA
:10CAE000C04704F1500346F823700134022C18D8D3
:10CAF00004F150030D4A52F82330002BF5D0D2F840
:10CB0000043304F11005EB4013F0010FEDD0064B98
:10CB100053F82480B8F1000FD6D17846FBF7D0FC4B
:10CB2000D2E7BDE8F08100BFB03A002000800040AD
:10CB3000014B1B6818447047C83A002010B5002309
:10CB40000CE0114A03F5A871002042F8210003F11E
:10CB5000500142F8210052F821200133022BF0D974
:10CB60000A4B1B681BB90A4B4FF480721A60094BC1
:10CB700001221A70FFF7F8FA0446FFF781FF241A22
:10CB8000054B1C6010BD00BF00800040C03A002073
:10CB900000E100E0BC3A0020C83A0020002307E092
:10CBA00000220C4941F823200B4941F8232001338E
:10CBB000022BF5D9094B1860094B00221A70094B5A
:10CBC0004FF0FF32C3F80823074B4FF48072C3F8CD
:10CBD00080217047B03A0020CC3A0020C43A0020AF
:10CBE000BC3A00200080004000E100E008B5037876
:10CBF0003BB1012B04D1436813B1C16880689847E9
:10CC000008BD4368002BFBD080689847F8E7000018
:10CC1000044B1B780F2B04D0034B4FF48022C3F836
:10CC200000217047243C002000E100E010B5104CCA
:10CC300020701048104B0360102343608360FDF7A1
:10CC4000BBFE0E48FEF7E0FF23780F2B0FD0072B1B
:10CC50000AD8EC221A4112F0010F05D05B01DBB2B9
:10CC6000074A82F8123302E07846FBF729FC10BD30
:10CC7000243C0020D83A0020EC3A0020283C002038
:10CC800000E100E008B50F4B1B780F2B19D00E4BBD
:10CC900093F812335A09EC23134113F0010F0DD00E
:10CCA0000A4B9B682BB1094A136843F48023136035
:10CCB00007E0054B4FF480221A6002E07846FBF74C
:10CCC000FFFB08BD243C002000E100E000580020EC
:10CCD00038B5EFF3108472B6194A1368591C116005
:10CCE00003BB184B1B780F2B1CD0EFF3108272B6CE
:10CCF000154B9B68E3B9144901238B60134BD3F8A0
:10CD00008000134D28400860C3F88050D3F8840099
:10CD100048604FF0FF31C3F884100E4B00211970AA
:10CD200002B962B6064B1B6833B104B962B638BDAE
:10CD3000084B01211970F3E77846FBF7C1FBF4E7D4
:10CD4000EC3B0020243C00200058002000E100E0E3
:10CD5000FC06FFBD253C002010B5EFF3108472B631
:10CD6000124B1B68F3B1114A1368013B1360B3B94E
:10CD70000F4B1B780F2B12D00E4B1A780E4B9B6863
:10CD80006BB162B9EFF3108172B60B4B18680B4AA6
:10CD900010605868506000229A6001B962B604B908
:10CDA00062B610BD7846FBF78BFBDCE7EC3B00205E
:10CDB000243C0020253C00200058002000E100E039
:10CDC00010B5044680B10C4B1B680A2B10D8EFF34A
:10CDD000108272B6084B1868411C1960074B43F863
:10CDE000204002B962B610BD7846FBF769FBEAE75E
:10CDF0007846FBF765FBEAE7F03B0020F43B0020B8
:10CE000038B504460D4B1B68834213D9EFF31085E8
:10CE100072B661090A4A04F01F04012303FA04F4FC
:10CE200052F82130234342F82130FFF7F1FE05B9D3
:10CE300062B638BD7846FBF743FBE7E7F03B0020DE
:10CE4000203C002070B50D461646044658B175B119
:10CE5000EFF3108372B6A560E660002222742460AE
:10CE600003B962B670BD7846FBF72AFBEFE7784658
:10CE7000FBF726FBECE7000038B5044650B1A36889
:10CE800063B1EFF3108572B6237C5BB1112005B955
:10CE900062B638BD7846FBF713FBF0E77846FBF740
:10CEA0000FFBEEE70123237421460348FEF7B7FE8C
:10CEB000FFF7AEFE0020EAE7283C002010B504464C
:10CEC00008B1207C10BD7846FBF7FAFAF9E70000BC
:10CED00070B584B02C4B1B7823B901252A4B1D70EB
:10CEE00000240AE07846FBF7EBFAF6E7274B53F805
:10CEF000243098470646F0B10134254B1B68A34205
:10CF00001ED96109234A52F8213004F01F00C340A2
:10CF100013F0010FF0D0EFF3108672B6012303FA7D
:10CF200000F052F8213023EA000342F82130002EAD
:10CF3000DCD162B6DAE72046FFF762FF3546DBE771
:10CF40001548FEF788FE0AE07846FBF7B9FAA368B1
:10CF5000E0689847002323740F48FEF77CFE20B159
:10CF60000468237C002BF2D1EEE769460B48FDF7FD
:10CF70003FFD18B96846FFF739FEF6E7024B00227D
:10CF80001A70284604B070BD303C0020F43B0020ED
:10CF9000F03B0020203C0020283C0020D83A002014
:10CFA00008B5FFF795FF08BD00B583B0FEF7A6FEF4
:10CFB0008DF807009DF807305BB213F1100F18D001
:10CFC0009DF807305BB2002B21DB03F1604303F5D2
:10CFD000614393F800335B090093154B1B78009A6B
:10CFE000934220D0009A934217D3002003B05DF8FB
:10CFF00004FB0F4B1B780F2B01D10120F6E7122009
:10D00000FEF784FE08B10020F0E70120EEE703F010
:10D010000F03084AD35C5B09DEE71220FEF776FEB9
:10D0200018B10020E2E70120E0E70120DEE700BFC1
:10D03000243C002014ED00E046DF704770B58CB052
:10D0400003460E4614466D46006859689A68DB68C8
:10D050000FC530687168B268F3680FC56846FFF79E
:10D06000EBFF08AD0FCD20606160A260E3600CB003
:10D0700070BD08B5FEF79BFE08BD08B502F0E7F8E5
:10D0800008BD08B502F01CF908BD38B5022931D831
:10D090004CB2002C54D100297ED11970817A5A7873
:10D0A00061F306025A70C17AD2B261F3C7125A70A4
:10D0B000C168C1F3074201F47F44224300249A70FF
:10D0C000120ADA70197101890A0A42EA0122A3F8E8
:10D0D0000520DC711C7201690A0202F47F0242EA37
:10D0E0000162080A00F47F40024342EA1162C3F879
:10D0F000092038BD03294FD1197000215970C46827
:10D10000C4F3074204F47F452A439A70120ADA7086
:10D110001C710489220A42EA0422A3F80520D9716D
:10D12000197201690A0202F47F0242EA0162080AE6
:10D1300000F47F40024342EA1162C3F80920D8E7B5
:10D140001970597801F0800162F3C7115970C168F4
:10D15000C1F3074201F47F4422439A70120ADA7045
:10D16000197101890A0A42EA0122A3F805204188BF
:10D170000A0A42EA0122A3F8072001690A0202F41E
:10D180007F0242EA0162080A00F47F40024342EA59
:10D190001162C3F80920ACE77846FBF791F9A8E7DC
:10D1A00070B584B00D461446064668B162B10023DE
:10D1B000009301930293039323462A46314668461F
:10D1C000FFF757FF04B070BD7846FBF779F9EEE73B
:10D1D0002DE9F04184B00E4614461D460B9F804653
:10D1E00010B10AB103B117B97846FBF769F96B467C
:10D1F000324641462046FFF73CFF3B469DF828203B
:10D2000029466846FFF735FF04B0BDE8F08100000D
:10D210002DE9F0418EB00E4614461F46054608B172
:10D2200001B113B97846FBF74BF9002C4DD0102C07
:10D230004FD82A4B049305AA042104A8FFF7B0FF96
:10D240006B461022294605A8FFF713FF22463146F8
:10D2500005A816F004F80EAB2344012203F8242C91
:10D26000A21805AB92B219466846FFF702FF9DF877
:10D27000233003F07F033D4605F8013B224631464B
:10D2800009A815F0ECFF04F110080EAB9844022336
:10D2900008F8243C1134A4B22B46224605A968465E
:10D2A000FFF7E7FE05AE28686968AA68EB680FC655
:10D2B000032308F8243C07F11103224605A9684618
:10D2C000FFF7D7FE0EB0BDE8F0817846FBF7F8F81F
:10D2D000ADE77846FBF7F4F8ABE700BF736D6B3250
:10D2E00030B589B00C460546F8B1F1B1114B039346
:10D2F00004AA042103A8FFF753FF04AB1022294618
:10D300001846FFF7B6FE0C4B93E8030001908DF82A
:10D31000081004AB052201A91846FFF7AAFE06ABC8
:10D3200003CB2060616009B030BD7846FBF7C8F8D8
:10D33000DCE700BF736D6B333440040030B587B059
:10D340000C460546E8B1E1B1104B019302AA042155
:10D350000DEB0100FFF724FF02AB1022294618460F
:10D36000FFF787FE0A4B009302AB0422694618467A
:10D37000FFF77FFE9DF8173003F03F03237007B0DF
:10D3800030BD7846FBF79CF8DEE700BF736D6B3469
:10D390006964360110B5044678B123789BB1E26820
:10D3A000B2F1807F11D2E27A0AB1022B0FD094F948
:10D3B0000A30002B05DB012006E07846FBF780F8F9
:10D3C000EBE7002000E0002010BD0020FCE700207B
:10D3D000FAE730B587B00446037C8DF80030026868
:10D3E0008368D27A32B30822134409330193236845
:10D3F000029363680393E368049305A9684602F007
:10D400004BFBE0B1237C012B09D02568FDF784FF9D
:10D41000286120680C30FDF70FFF054660B92168D0
:10D42000059800F020FA059B093363610025284622
:10D4300007B030BD0422D7E702F0B4FBF7E70425BC
:10D44000F5E70000F0B583B004460D466946008953
:10D450000BF096FC18B10026304603B0F0BD07462D
:10D46000012004F05FFA06460028F5D0A37A012BCC
:10D470001DD92378012B0CD02B78012B11D00D4B0B
:10D480001B68002BE8D0A27A61882089984706465D
:10D49000E2E7694660880BF073FC0028ECD03E465A
:10D4A000DAE705F07BFE0028E9D10646D4E73E46E0
:10D4B000D2E700BF343C002008B538B14268054BC4
:10D4C0001A60FDF731FD03F045F808BD014B00225D
:10D4D0001A60F6E7343C002008B5FDF749FD03F07B
:10D4E00079F808BD10B5044668B123687BB123689C
:10D4F0005B6983B1237C012B11D8E3689BB1204683
:10D50000FFF767FF10BD7846FAF7DAFFEDE77846D8
:10D51000FAF7D6FFEBE77846FAF7D2FFEAE7784664
:10D52000FAF7CEFFE9E77846FAF7CAFFE7E7000027
:10D53000F0B5C7B0064630B3736943B3336853B32D
:10D5400033685B695BB3706900F0F3F90546254BFE
:10D550001B6813F0020F3BD0234B1B68042B37DDF5
:10D5600000231C2B1FD8EA5C2049086814095900C5
:10D57000075D05AC04F8137002F00F020131825C04
:10D5800062540133EDE77846FAF79AFFD4E778461C
:10D59000FAF796FFD2E77846FAF792FFD0E7784697
:10D5A000FAF78EFFCFE705AA00238DF84E3003F17E
:10D5B000804303F58833D3F8043502920C4A019274
:10D5C0000C4A00924FF495720B49052000F0C8FDFB
:10D5D00000232A46B168306800F0FAFA02F0BAFA7D
:10D5E00047B0F0BD302E00202C2E0020342E00201D
:10D5F00094400400DC3A040087400400F0B589B090
:10D6000004460E461546827A013A827202900495CB
:10D610004FF0FF320392DF22059201228DF818208D
:10D620001B78934218D102A8FFF7D3FE0746E0B15A
:10D63000154B1B6813F0020F1FD0144B1B68012BF6
:10D640001BDD134BD3F80435124A0092A92212496C
:10D65000022000F085FD10E005F0A0FD0028E2D1D9
:10D66000059B83F002030593DDE72A4631460798C0
:10D6700015F0F5FD02A8FFF75BFFA37A0133A37253
:10D68000384609B0F0BD00BF302E00202C2E0020FF
:10D69000001001409C40040087400400F0B5D5B064
:10D6A000002800F0BA800E461746054600F047F9FC
:10D6B000421B29464CA815F0D2FD594B1B6813F0AC
:10D6C000020F31D0574B1B68042B2DDDB646802E40
:10D6D00028BF4FF0800E00230FE0E85C524A11682B
:10D6E00002095C0011F802C005AA02F813C000F09C
:10D6F0000F000134095C115501337345EDD305AAC0
:10D70000002302F81E3003F1804303F58833D3F879
:10D7100004350292454A0192454A009240F24F1266
:10D720004449052000F01CFD002300934CAB2A4621
:10D73000314646A800F002FA044610B1204655B022
:10D74000F0BD46A8FFF726FE0028F7D0344B1B6833
:10D7500013F0020F30D0334B1B68042B2CDDB44682
:10D76000802E28BF4FF0800C0FE04CAB1B5D2E4A83
:10D77000106819096200455C05A901F8145003F00E
:10D780000F030132C35C8B5401346445EDD305AA09
:10D79000002302F81C3003F1804303F58833D3F8EB
:10D7A00004350292244A0192214A00924FF4AC724D
:10D7B0002049052000F0D4FC4B9B23B3394646A8F2
:10D7C00005F0A2FC314646A800F0ABF8C5B23B46D6
:10D7D00046AA29460DF23910FCF7BAF90446394633
:10D7E00046A8FFF72FFE90B13B462A460DF23911AD
:10D7F00046A8FFF703FF0028A0D14999BDF82001F2
:10D80000FAF7DCFE9AE77846FAF75AFED6E7499926
:10D81000BDF82001FAF7D2FE90E70E248EE700BF94
:10D82000302E00202C2E0020342E0020CC4004006E
:10D83000DC3A040087400400DC4004004B78DB093C
:10D84000C3724B7803F07F0383728A78CB781B0214
:10D8500043EA02430A791343C3604A798B7943EA66
:10D8600002230381704738B50C460546002840D096
:10D87000002C42D02089FEF741F8012841D194F9CB
:10D880000A30002B41DBE368B3F1807F41D263694A
:10D89000002B42D0236903F001022B7803F07F03B1
:10D8A00043EAC2132B706269127803F0800302F01E
:10D8B0007F0213432B70E27A6B7803F07F0343EA15
:10D8C000C213DBB26B70A27A03F0800302F07F0216
:10D8D00013436B70E3681A0CAA701A0AEA702B7172
:10D8E00023891A0A6A71AB7163881A0AEA712B726A
:10D8F00038BD7846FAF7E4FDBAE77846FAF7E0FD76
:10D90000B8E77846FAF7DCFDB9E77846FAF7D8FDCC
:10D91000B9E77846FAF7D4FDB9E77846FAF7D0FDCB
:10D92000B8E7C37A1BB10820081A093870470420E9
:10D93000FAE70938704707307047093070470130FF
:10D94000704770B588B004460D4616460023009314
:10D950008DF804300269130203F47F0343EA026383
:10D96000110A01F47F410B4343EA1263CDF80530FD
:10D970002846FFF7E0FF0368CDF8093082888379F5
:10D98000ADF80D208DF80F30606904AA694611309A
:10D99000FFF754FB3046FFF7D2FF04462846FFF757
:10D9A000CEFF06234BB1013B9BB2C25C08A91944D0
:10D9B00011F8101C4A40E254F4E708B070BD0000B2
:10D9C0002DE9F041D2B004460D4617461E469DF89B
:10D9D000648100238DF84731ADF8283149934EAB6F
:10D9E00046931046FFF7A7FF47903046FFF7A3FF87
:10D9F0004B90589B6361324639462046FFF7A1FFA2
:10DA000031462046FFF71AFF2089FDF777FF0128EE
:10DA100011D1A5F10902E37A23B108239A4203D276
:10DA2000002309E00423F9E7E1682089FAF7A0FD63
:10DA3000E8B9012300E0002383B3E37ACBB10821E6
:10DA4000C9B28DF834116D1A073DADB2ADF8205151
:10DA5000479B1D444C95B8F1000F0ED0B8F1010F53
:10DA600009D07846FAF72CFD4FF0000805E00023B6
:10DA7000E2E70421E4E74FF003084EAB0022414601
:10DA80002046FFF702FB6369013345930DF247110E
:10DA900045A8FFF7F6FA9DF8473123B99DF84701ED
:10DAA00052B0BDE8F081F379307A40EA032060801B
:10DAB000FDF724FF20701B4B1B6813F0020FEDD005
:10DAC000194B1B68032BE9DDBDF82061802E28BFB0
:10DAD000802600230FE04B9AD25C14490C68100991
:10DAE0005900255C04A800F8135002F00F02013120
:10DAF000A25C42540133B342EDD304AA002302F8DE
:10DB0000163003F1804303F58833D3F804350292CD
:10DB1000074A0192074A0092DF220749042000F0D9
:10DB20001FFBBBE7302E00202C2E0020342E0020BF
:10DB300044410400DC3A0400374104002DE9F04779
:10DB400084B00E4615461F469DF83090804618B1A9
:10DB500012B10BB19A4202D17846FAF7B1FCA6F1A4
:10DB60000903142B30D82878C009FDF7E3FBC8F867
:10DB700010000023C8F8143095F800A00AF07F0ABE
:10DB80000293039317E00134012C12D804AB03EB8A
:10DB9000840353F8080C60B1CDF8049000903B4624
:10DBA0002A4631464046FFF70BFF0028EBD0002005
:10DBB0000BE0029B33B103AA02A950460AF0F0FF22
:10DBC0000024E1E7052000E0092004B0BDE8F0876B
:10DBD000F0B58FB00D4616461C46074650B16EB1E3
:10DBE000012C0FD89CB1012C10D07846FAF768FCB4
:10DBF00000240CE07846FAF763FCF0E77846FAF781
:10DC00005FFCEDE77846FAF75BFCEBE703240AAB31
:10DC1000002221463846FFF738FAFB7A03B308237F
:10DC20008DF824307B69013301930AAB02933046AF
:10DC3000FFF781FE03900790A91C89B2ADF8101080
:10DC40000023ADF8183005930844089001A8FFF7A9
:10DC500014FA324631463846FFF773FE0FB0F0BD76
:10DC60000423DDE738B50D460446C8B12378AB423E
:10DC70001AD9EDB962682378134413F8013CA178EE
:10DC80000B44DBB212789B1ADBB2CBB16368585DF0
:10DC9000A378013B1840A368627802FB003038BDCE
:10DCA0007846FAF70DFCE1E77846FAF709FCE0E779
:10DCB0006268531913F8013C525D9B1ADBB2E4E72A
:10DCC0000020ECE738B50C460546A0B12B78A342FE
:10DCD00015D9C4B96A682B78134413F8013CA978A4
:10DCE0000B44DBB212789B1ADBB21BB16A68135D7E
:10DCF0000133135538BD7846FAF7E2FBE6E778467C
:10DD0000FAF7DEFBE5E76A68131913F8013C125DC8
:10DD10009B1ADBB2E9E710B5044640B10023227834
:10DD20009A4208D962680021D1540133F7E7784656
:10DD3000FAF7C6FBF2E710BD10B5044643786BB1A5
:10DD40002378012B0ED9A36883B1636893B1A378BC
:10DD5000A3B15A1E134217D0002310E07846FAF7F9
:10DD6000AFFBEDE77846FAF7ABFBECE77846FAF75E
:10DD7000A7FBEAE77846FAF7A3FBE8E700232BB115
:10DD80002046FFF7C8FF10BD0123F8E77846FAF7F1
:10DD900097FBF5E738B50C46054678B12B78A342DA
:10DDA00010D99CB96A682B78134413F8010CAB782E
:10DDB0001844C0B21378C01AC0B238BD7846FAF71A
:10DDC0007FFBEBE77846FAF77BFBEAE76B681A190B
:10DDD00012F8010C1B5DC01AC0B2EEE728B108B5FD
:10DDE00029B1FFF7ABFA002008BD0E2070470E20C6
:10DDF000FAE770B130B583B00B4661B100248DF8FD
:10DE0000074001220DF10701FFF702FA204603B097
:10DE100030BD0E2070470E20F9E7000000B330B58A
:10DE20008BB00C460546E9B11031FFF759FA0E4B9D
:10DE300009930E4B93E803000790ADF8201003AA56
:10DE4000042109A8FFF7ACF901940623009307AB5E
:10DE500003AA10212846FFF7BBF900200BB030BD04
:10DE60000E2070470E20F9E76E6B626B584104007C
:10DE7000E8B130B58BB00C460546D1B10E4B0993D5
:10DE80000E4B93E803000790ADF8201003AA04217D
:10DE900009A8FFF785F901940623009307AB03AAAD
:10DEA00010212846FFF794F900200BB030BD0E205A
:10DEB00070470E20F9E700BF6E6B696B5841040094
:10DEC00010B330B587B00C460546F9B1104B01933D
:10DED00002AA04210DEB0100FFF762F902AB102248
:10DEE00029461846FFF7C5F89DF816301B0203F4C3
:10DEF0007C536FEA43436FEA53439DF81720134363
:10DF00002380002007B030BD0E2070470E20F9E7B7
:10DF10007674616410B50B4682692AB10168406865
:10DF200003FB0010904710BD04684268002103FB0A
:10DF3000024015F0BDF9F6E738B505460024AB6898
:10DF4000A34205D921462846FFF7E4FF0134F6E74E
:10DF5000013BEB6038BDF8B504460F46C5680026A6
:10DF60000BE02168626805FB0211384615F044F9A0
:10DF700088B9012316E001361D46A368B34210D9C3
:10DF80006369002BEDD02268616805FB01213846EA
:10DF90009847034630B96B1E002DECD1A368013BB6
:10DFA000E9E700231846F8BD10B5C3680133C36024
:10DFB0008268934208D003694BB10268C468406824
:10DFC00000FB0420984710BD0023C360F3E70368FB
:10DFD000C468426802FB043015F041F9F3E770B5FC
:10DFE0000E46044648B141B12368B34209D02568C2
:10DFF00065B926600023336017E07846FAF760FAC7
:10E00000F2E77846FAF75CFAF1E725462C682CB17E
:10E01000B442FAD17846FAF753FAF6E735B12EB1A1
:10E02000B54202D02B6833602E6070BD7846FAF797
:10E0300047FAF5E738B505460C4689B180B12B683B
:10E04000BBB1A34210D01A461B680BB1A342FAD150
:10E050008AB1A34211D1236813600020206038BD2B
:10E060007846FAF72DFAEAE723682B600020206053
:10E07000F5E70520F3E70520F1E70520EFE72DE9B7
:10E08000F0410E461746054608B101B112B978466F
:10E09000FAF716FA2B68B34204D02C6834B14FF06B
:10E0A000000809E07846FAF70BFAF6E72E60002040
:10E0B00030600FE0A0462C4654B131462046B847A8
:10E0C00030B92568AE42F5D17846FAF7F9F9F1E7AB
:10E0D00014B10F20BDE8F081B8F1000F09D046B1AE
:10E0E000B04504D0D8F800303360C8F80060002094
:10E0F000F0E77846FAF7E4F9F2E7000030B583B0CC
:10E1000010461A4606AC54F8045B00900B460549CD
:10E1100000200CF0E5FE2246294600200CF0ECFD24
:10E1200003B030BD60410400034B1860034B19601D
:10E13000034B1A60704700BF302E00202C2E0020A9
:10E14000382E002030B583B0044C246824B1079DDC
:10E150000195069D0095A04703B030BD382E0020E4
:10E1600030B585B008AC54F8045B03940194009575
:10E17000FFF7E8FF05B030BDC3681A795979521A24
:10E1800003EB023342699B1A8068181A704770B516
:10E190000579012D01D9002070BD0446066830467E
:10E1A000FFF7EAFF3DB9A3899B00834205DB736853
:10E1B0002BB90020F0E70023F7E70020ECE701206F
:10E1C000EAE738B505460C4610F0030F0DD114F000
:10E1D000030F0ED10023B3EB940F0ED255F823207A
:10E1E000B2F1FF3F0BD10133F5E77846FAF768F952
:10E1F000EDE77846FAF764F9ECE7012038BD002036
:10E20000FCE770B5054600240EE0002300E0002383
:10E21000184643B35379A3421CD1EB6833441A79AF
:10E220002B699A421AD101342B69A3421AD9EB689F
:10E23000260303EB04329B5D083BDBB2F62BE6D8EA
:10E240005379FF2B04D01379FF2BDED00123DFE7B6
:10E250000023DDE77846FAF733F9DEE77846FAF788
:10E260002FF9E0E7012070BDF0B585B004460368E2
:10E27000DB68187819795A79891AE28903EB013138
:10E28000184401F0B9FB07462568AB68002B45D060
:10E2900021688E6826F47F6323F00F0303F5805511
:10E2A000A81BA2899300B0EB820F45D9F51804F1A1
:10E2B0000C02A3899B0001208DF8000001960392B7
:10E2C000029300226946FDF72FFA00285AD1012057
:10E2D0008DF800000195324B039304230293314AD9
:10E2E0006946FDF721FA002850D19FB1226839888C
:10E2F000536803EB8103536001208DF80000019700
:10E30000294B039304230293264A6946FDF70CFA2E
:10E3100000283FD1A660002005B0F0BDEB6818785A
:10E3200019795A79891A47F6FF7203EB01311844BB
:10E3300001F062FBA860ABE7CA68117992F805C0EA
:10E34000A1EB0C0102EB0132954227D0834202D1AE
:10E350002B781D44ABE701208DF800000196134B8C
:10E3600003930423029300226946FDF7DDF928B9DF
:10E370002E782E44A58906EB850598E77846FAF7AE
:10E380009FF8F5E77846FAF79BF8A0E77846FAF7A2
:10E3900097F8AAE77846FAF793F8BBE70120BBE7BE
:10E3A000044204005E3D0020FC41040000420400E1
:10E3B00010B584B004460368DB68187819795A7977
:10E3C000891AE28903EB0131184401F015FBE0B131
:10E3D0000346A060216800884A6802EB80024A6018
:10E3E00001208DF800000193094B0393042302934D
:10E3F000084A6946FDF798F910B9002004B010BD2D
:10E400007846FAF75DF80020F8E70220F6E700BF4B
:10E41000FC4104005E3D002070B584B005460368F1
:10E42000DE68437B06EB033608213046FFF7C9FE62
:10E4300080B9002403E07846FAF742F80134072C4B
:10E4400008D8335D05F10802125D9342F6D0FF2B28
:10E45000F4D0F0E7083501208DF80000019603950F
:10E4600008230293054A6946FDF75EF910B90020BA
:10E4700004B070BD7846FAF723F8F8E75E3D002057
:10E4800000B585B00368DA681B691B0302218DF8AB
:10E49000001001920293074A69460120FDF744F9F2
:10E4A00018B9002005B05DF804FB7846FAF708F8C3
:10E4B000F7E700BF5E3D002082890379012B0FD072
:10E4C00010B59200022B11D00BB1012010BD00F14C
:10E4D0000C01806814F090FEB0FA80F04009F5E776
:10E4E00083685888B0FA80F0400970470368DB6899
:10E4F000447B0822811803EB043014F07DFEB0FA4F
:10E5000080F04009E2E7000038B501460C48FBF70F
:10E51000F9FD0C4B5D6845B938BD236800222260C7
:10E520009A68D8689047A542F6D00648FDF793FB55
:10E5300004460028F1D17846F9F7C2FFEDE700BFA5
:10E54000383C00204C3D00202DE9F04104461746A0
:10E550000E4611B9FFF7B0FF58B10EB104F10C0728
:10E5600025682379042B5BD8DFE803F0053A415A8C
:10E5700050000326F2E73EB1AB69002B50D0324683
:10E580003946284698474BE0D4F80880B8F8003060
:10E59000C3B1B8F8003008EB830323F47F6222F0A4
:10E5A0000F02934212D0B8F80220B2F5FE4F0DD000
:10E5B000AB605A8847F6FF739A42DDD07846F9F788
:10E5C0007FFFD9E77846F9F77BFFE2E728F47F6819
:10E5D00028F00F0808F5805898F800304344E7E722
:10E5E000EB69EBB13246E1892846984718E02B7871
:10E5F000012B07D1627B237B013B9A4210D102237E
:10E600002B700DE07846F9F75BFFF3E7BEB92B7886
:10E61000012B01D000232B702B6A0BB128469847A1
:10E62000094B9C4203D303F582739C4202D978467E
:10E63000F9F746FF201FFFF767FFBDE8F081784636
:10E64000F9F73EFFE3E700BF443C002000B583B08C
:10E650000023019382B201A90548FBF778FC20B999
:10E660000198043003B05DF804FB0020FAE700BF16
:10E67000383C002070B50546002436E01020FFF736
:10E68000E5FF0646002861D00223037108230372C8
:10E69000042343721023C372837244732B69037380
:10E6A0004FF6FF73C3810560294B984203D303F5EE
:10E6B0008273984202D97846F9F702FF36F8042CA3
:10E6C000311F2448FBF77CFC0EE0002300E0002310
:10E6D00053B3EB6833445B79A34229D1EB681E4402
:10E6E00032792B699A4227D101342B69A34227D969
:10E6F000E868260300EB043040F6FC710430FFF7B5
:10E7000060FD0028BAD1EB689A199B5D083BDBB22B
:10E71000F62BDCD85379FF2B04D01379FF2BD4D000
:10E720000123D5E70023D3E77846F9F7C9FED0E700
:10E730007846F9F7C5FED1E77846F9F7C1FED3E789
:10E74000054B1868FEF75CFB002070BD0420FCE759
:10E75000443C0020383C0020543D002038B505469C
:10E76000C3681C781C4400200DE07846F9F7A8FE29
:10E7700019E024F47F6323F00F0303F580531A7824
:10E78000134420461C46EB681A795979521A03EB58
:10E7900002339C4215D262884FF6FF739A4210D022
:10E7A0002388002BE1D0238804EB830323F47F62CA
:10E7B00022F00F029342DCD06288B2F5FE4FE0D126
:10E7C000D7E738BD38B50446FCF79EF858B920465F
:10E7D000FFF7C4FFA06050B1428847F6FF739A422A
:10E7E00011D1002038BD7846F9F76AFEEFE7E268FC
:10E7F0001378134459884FF6FF72914201D00020DC
:10E80000F0E7A360EEE70820FFF720FF0546C0B160
:10E810000323037104600C4B984203D303F5827306
:10E82000984202D97846F9F74BFE35F8042C291F97
:10E830000648FBF7C5FB064B1868FEF7E1FA002017
:10E84000D0E70420CEE700BF443C0020383C002045
:10E85000543D0020F8B506794379F61A00EB0636E8
:10E8600004782518002711E02B88F3B12C8805EBDC
:10E87000840424F47F6323F00F039C4219D06B8837
:10E88000B3F5FE4F15D0A6421CD925466B884FF62E
:10E89000FF7293421AD047F6FF72934216D0002BB4
:10E8A000E2D12B8807EB8307DEE77846F9F708FE0D
:10E8B000DCE725F47F6424F00F0404F5805423780A
:10E8C0001C44E0E77846F9F7FBFDDEE73846F8BD83
:10E8D00070B584B005460068FFF740FF044600B3FA
:10E8E000638813BB2E682388002B30D0238804EB69
:10E8F000830323F47F6222F00F0293422BD06288BD
:10E90000B2F5FE4F27D0B3602B689968DB681A799F
:10E910005879121A03EB0233994225D3002004B030
:10E9200070BD7846F9F7CCFDDAE701208DF80000DC
:10E930000194244B039304230293234A6946FCF772
:10E94000F3FE0028CED07846F9F7BAFDCAE778463C
:10E95000F9F7B6FDCAE724F47F6323F00F0303F54C
:10E9600080531A781344CEE72388F3B1238804EB4D
:10E97000830323F47F6222F00F02934219D062884E
:10E98000B2F5FE4F15D001208DF8000001930F4B1A
:10E990000393042302930C4A6946FCF7C5FE002842
:10E9A000BCD07846F9F78CFDB8E77846F9F788FDD2
:10E9B000DCE724F47F6424F00F0404F5805423780A
:10E9C0002344E0E7FC4104005E3D002004420400D3
:10E9D00008B50379042B13D8DFE803F00306090C0C
:10E9E0000F00FFF741FC08BDFFF7E2FCFBE7FFF774
:10E9F00013FDF8E7FFF76CFFF5E7FFF741FDF2E7DE
:10EA00007846F9F75DFD0020EDE700002E4B1B78FE
:10EA1000022B57D110B582B040E00023019301A929
:10EA20002A48FBF703FB90B9019C201D284B186076
:10EA3000284B01221A70FFF7AAFB58B30323224A7E
:10EA40001370626813706068FBF78CFF22E0224B42
:10EA50001B6803B19847012002B010BD1C4B186819
:10EA6000FFF7B6FF1D4B187018B91A4B02221A7027
:10EA700010E0184B03221A700CE0154B1B68EBB129
:10EA8000134B18688268154B1978FFF75DFD114B21
:10EA900000221A700C4B1B78022BDCD10D4B1B781B
:10EAA000032BF7D801A252F823F000BF1BEA0200A3
:10EAB0005DEA020057EA02007BEA02007846F9F7B5
:10EAC000FFFCDDE7012070475C3D0020383C002062
:10EAD000603D0020483D0020583D0020643D00205E
:10EAE00008B5074B1B88934200D008BD054B1B7827
:10EAF000022BFAD1034B03221A70FFF787FFF4E7CA
:10EB00005E3D0020483D002008B54FF48272104958
:10EB10001048FBF79CF910490120FCF7F3FD0F4862
:10EB2000FEF74EF90E4B186000230E4A13700E4A82
:10EB300013800E48FDF768F8FBF788FE18B10C4B00
:10EB400003221A7008BD0A4B02221A70FAE700BFAE
:10EB5000443C0020383C0020E1EA02000DEA0200BB
:10EB6000543D0020483D00205E3D00204C3D0020EB
:10EB70005C3D00202DE9F04F85B00F469146009393
:10EB8000834650B10120FCF77FFEFBF70FFF019099
:10EB90004FF0000AD04601259CE07846F9F790FC3A
:10EBA000F0E7019901F5805102910AF101019142CA
:10EBB00013D0327816447288013A92B247F6FE6159
:10EBC0008A420ED84EB1019A131D107972880299AB
:10EBD000184400F011FF00B10290019B0433029E23
:10EBE00089E003F50053344603951D4616E0784648
:10EBF000F9F766FC15E024F47F6424F00F0404F5B3
:10EC0000805423781C44A5421DD9A6421ED2638895
:10EC1000013B9BB247F6FE62934211D92388002B39
:10EC2000E5D0238804EB830323F47F6222F00F02F4
:10EC30009342E0D06288B2F5FE4FDCD01C46E2E79A
:10EC4000039D2646BEE7039D0026BBE7039D0026E5
:10EC5000B8E7002343B108F10108B9F1000F03D070
:10EC600000992046C8470546238823B3238804EB30
:10EC7000830323F47F6222F00F0293421FD0628845
:10EC8000B2F5FE4F1BD01C46B44221DA012D1FD134
:10EC90006288531E9BB247F6FE618B42D9D837B1CA
:10ECA00079883B884A40134203D00023D2E70123EE
:10ECB000D0E70123CEE77846F9F702FCD6E724F443
:10ECC0007F6424F00F0404F5805423782344DAE7AA
:10ECD0000AF1010ADBF8102052450FD9012D0DD1A0
:10ECE000DBF80C4004EB0A3303F580560199096800
:10ECF00099423FF456AF1C781C44C5E70020FCF74E
:10ED0000C3FD404605B0BDE8F08F38B50C4605465A
:10ED100030B100231A4621462846FFF72BFF38BDA5
:10ED20007846F9F7CDFBF4E770B50D461446064674
:10ED300058B16B1E9BB247F6FE6293420BD947F661
:10ED4000FF739D4205D0002306E07846F9F7B8FB33
:10ED5000EFE7012300E0012393B1802C14D833782E
:10ED6000B3B104F11000FFF771FC40B1002303714F
:10ED7000C5810334A4080134848140F80C6B70BD54
:10ED80007846F9F79DFBE8E77846F9F799FBE6E75F
:10ED90000020F4E710B504460F4B984203D303F567
:10EDA0008273984202D97846F9F78AFB0C3C0A4BE9
:10EDB0009C4203D303F582739C4202D97846F9F74B
:10EDC0007FFB34F8042C211F0448FBF7F9F8044BAF
:10EDD0001868FEF715F810BD443C0020383C0020B0
:10EDE000543D002070B50D46064658B16B1E9BB2CF
:10EDF00047F6FE6293420BD947F6FF739D4205D05A
:10EE0000002306E07846F9F75BFBEFE7012300E01B
:10EE100001230BB31020FFF719FC044600B30123B4
:10EE20000371C5814FF6FF73838106600D4B9842D5
:10EE300003D303F58273984202D97846F9F740FB71
:10EE400034F8042C211F0848FBF7BAF8074B186860
:10EE5000FDF7D6FF002070BD7846F9F731FBD9E702
:10EE60000420F8E7443C0020383C0020543D0020BA
:10EE70002DE9F0410546FBF747FD58B9EC6894F8D9
:10EE8000008004EB08073E46AB68BB4206D8002072
:10EE9000BDE8F0817846F9F713FBEFE734F8083066
:10EEA000B3B134F8084007EB840424F47F6323F003
:10EEB0000F039C4203D07B88B3F5FE4F1AD127F491
:10EEC0007F6727F00F0707F580573C783C4411E037
:10EED0007846F9F7F5FAE4E77846F9F7F1FA0FE042
:10EEE00024F47F6323F00F0303F580531A7813444F
:10EEF00026461C46AB68A34210D02388002BEBD0DB
:10EF0000238804EB830323F47F6222F00F029342F1
:10EF1000E6D06288B2F5FE4FEAD1E1E77288531E6F
:10EF20009BB247F6FE618B4201D90020B0E7EB6847
:10EF300018783146184400F05FFD30B1864206D0A3
:10EF400041882846FFF74EFFA2E70020A0E70020F7
:10EF50009EE7000030B583B004460D462F4B1B687A
:10EF600013F4801F03D02E4B1B68062B25DC0023D7
:10EF700023702B68C3F30B036BBB6B68FE2B2ED87F
:10EF80002A686B68A868E968E26023616061A16132
:10EF90002A696B69E26123620023A36063602046F3
:10EFA000FFF72FF900282ED02046FBF7ADFCD0B19B
:10EFB00003232370002003B030BD1A4BD3F804356F
:10EFC0000A680192184A009240F236321749072027
:10EFD000FFF7C6F8CBE77846F9F772FACDE778463F
:10EFE000F9F76EFACCE72169E068FFF733FC60605F
:10EFF0002046FFF7E7FB0028DDD1022323702046DF
:10F00000FFF736FFD7E7012323702046FFF732FBD7
:10F010000028D0D1E3680833A360CCE7302E00206D
:10F020002C2E002000100140E8410400D7410400CC
:10F0300008B50648FBF78BF808B9002008BDFBF7B8
:10F0400089FC08B90120F9E70020F7E7383C0020E7
:10F0500010B590B10446C368187819795A79891A9D
:10F0600047F6FF7203EB0131184400F0C5FCA060C5
:10F0700078B10223237000236360084B02221A70C8
:10F0800007490120FCF73EFB064B1868FDF7B8FE68
:10F0900010BD7846F9F714FAEBE700BF5C3D00209D
:10F0A000E1EA0200543D002008B5FBF77FFC08BDF3
:10F0B00050B110B50446064B1B6813B17846F9F7FA
:10F0C000FFF9034B1C6010BD014B00221A60704712
:10F0D000583D002046DF70472DE9F04707460E46B1
:10F0E0008589012411E0013B9BB2C1181EF8012063
:10F0F0001CF803A082EA0A0208F80120002BF2D1D2
:10F10000A5EB0905ADB20134A4B2BDB1230A43EAAF
:10F110000423F3833046FFF7DDFFA946102D28BFF7
:10F120004FF01009D7F81880601E0001D7F808E0EA
:10F1300006F1200C5FFA89F94B46DFE7BDE8F0875E
:10F140002DE9F0478146884617461C4600F1100518
:10F1500000F1200616E052464146281914F07FF8C7
:10F160002744BFB2103FBFB2D0441DE0013B9BB269
:10F17000F45CEA5C5440EC54002BF7D14846FFF7AE
:10F18000A9FF002497B1C4F1100A5745E3DA3A46C3
:10F190004146281914F063F83819C0F11002002113
:10F1A000284414F085F800271023E5E7BDE8F08730
:10F1B00070B505460C461646838A002B3BD040228C
:10F1C00095F82030023B03EBD3735B10DB0003F0B8
:10F1D0003803134343F0010323746B6818685968BC
:10F1E0009A68C4F81100C4F81510C4F819201B7BE4
:10F1F0006377AA89130A43EA0223E3832046FFF7D1
:10F2000069FFAB8A6BB1B3F57F4F16D2AA8A130A96
:10F2100043EA022323820223AA8A29692046FFF7B0
:10F220008FFFAA896AB995F8202004F120013046A1
:10F2300014F015F870BD0022C2E77846F9F740F9DE
:10F24000E4E70023A9682046FFF77AFFEBE730B533
:10F250008DB0044603686D46186859689A68DB6883
:10F260000FC5E26969462046FFF7A2FFE5696368BA
:10F2700001228DF81020186859689A68CDF811009D
:10F28000CDF81510CDF819201B7B8DF81D3000230B
:10F29000ADF81E306846FFF71DFF94F820304BB1E3
:10F2A000013B9BB2EA5C0CA9194411F8101C4A40BE
:10F2B000EA54F4E769462046FFF70EFF0DB030BD73
:10F2C00070B590B004460E4690F82030102B35D81B
:10F2D000236804AD186859689A68DB680FC5A3896C
:10F2E00083BBA568A369A3606A4604A92046FFF70B
:10F2F0005FFF636801228DF82020186859689A68BA
:10F30000CDF82100CDF82510CDF829201B7B8DF8F4
:10F310002D300023ADF82E3004A8FFF7DBFE94F863
:10F3200020303BB3013B9BB210AAD11811F8402CFE
:10F3300011F8101C4A400DF80320F2E77846F9F75F
:10F34000BFF8C5E7636801228DF820201868596866
:10F350009A68CDF82100CDF82510CDF829201B7B27
:10F360008DF82D300023ADF82E3004A92046FFF78C
:10F37000B3FEB6E7A56094F82020E169684613F073
:10F380003BFFB0FA80F04009307010B070BD000053
:10F39000F8B5FBF7BBFF0546002407E07846F9F710
:10F3A0008FF813E01B4B1B6816E001341A4B1B68E7
:10F3B000A3422CD9194E06EBC406164B1F88F388BE
:10F3C0009F4203D001339BB29F42E7D1F28897421C
:10F3D000E8D2104B1B68013B1B0C1B0413449D42DD
:10F3E000E3D06A1E9A42E0D00B490B685A1E0A60AD
:10F3F0000B4B33F8121023F81410084B03EBC40620
:10F4000003EBC20393E8030086E80300CEE7014B59
:10F410001D60F8BD683D00206C3D0020703D00205F
:10F42000B03E002008B50378022B00D008BDFFF7DE
:10F43000AFFFFBE72DE9F843884616461F46002438
:10F440002C4D2D68A5423ED92B4D05EBC405AB884C
:10F45000834201D00134F3E7274D05EBC405274B68
:10F46000B3F80090EB88994503D001339BB29945DE
:10F4700019D1EA8891451AD2204B1B68013B1B0C1D
:10F480001B0413449E4215D09E421AD901232BB16E
:10F49000194B03EBC402D68043F8348007B13C60BB
:10F4A0000020BDE8F8837846F9F70AF8E1E7134B46
:10F4B0001B68E4E7104A52F834209045E4D9012350
:10F4C000E5E70023E3E7272D01D90420E9E70A4B0C
:10F4D00003EBC5029080D68043F83580084B4FF689
:10F4E000FF7223F8152007B13D600135014B1D6007
:10F4F0000020D6E76C3D0020703D0020683D0020D4
:10F50000B03E002008B5FBF701FF014B186008BDB5
:10F51000683D002008B50023FFF78CFF08BD000000
:10F520002DE9F04782B007460C4616461D468B4231
:10F5300018D801AB324621463846FFF77BFF074615
:10F5400060B9DDF804802E4B33F818204FF6FF73B6
:10F550009A420BD1019A2A4B23F81250384602B036
:10F56000BDE8F0877846F8F7ABFFE2E7254B03EB01
:10F57000C809254BB3F800A0B9F806309A4503D066
:10F5800001339BB29A452ED1B9F8062092452ED26E
:10F590001D4B1B68013B1B0C1B041344194A52F8FA
:10F5A00038C0174A32F81820190A1806CCF30C0391
:10F5B00093421FD2D21A6244A2F50052801841F140
:10F5C0000001330A3206C4F30C06AE4215D2AE1B5C
:10F5D0003444A4F50054121943F10003994208BFC2
:10F5E0009042BBD2B6E77846F8F76AFFCCE7064B05
:10F5F0001B68D0E7D21A6244E0E7AE1B3444EAE766
:10F60000B03E0020703D0020683D00202DE9F04113
:10F610000E46154600241E4B1B68A34235D91D4BD0
:10F6200003EBC4039B88834201D00134F3E7194FF5
:10F6300007EBC407184BB3F80080FB88984503D04C
:10F6400001339BB2984510D1FA88904511D2124BE4
:10F650001B68013B1B0C1B0413449D420CD09D42B4
:10F6600011D9012080F0010010E07846F8F728FF5A
:10F67000EAE7094B1B68EDE7064A52F83420964248
:10F68000EDD90120EEE70020ECE70020BDE8F08195
:10F690006C3D0020703D0020683D00202DE9F843BE
:10F6A0000646884691461F468B420CD80024344BB0
:10F6B0001D68A54261D9334D05EBC405AB88B34243
:10F6C00005D00134F3E77846F8F7FAFEEEE72E4B63
:10F6D00033F814204FF6FF739A4201D100204DE019
:10F6E000284D05EBC405294B1E88EB889E4203D0AC
:10F6F00001339BB29E4231D1EA88964232D2234BEB
:10F700001B68013B1B0C1B0413441E4A52F8345067
:10F710001D4A32F81420190A1806C5F30C03934247
:10F7200023D2D31A2B44A3F50053C01841F1000192
:10F730004FEA19234FEA0962C8F30C04BC4217D2FE
:10F740003F1BB844A8F5005812EB080243F1000330
:10F75000994208BF90420ED301200FE07846F8F797
:10F76000AFFEC9E7094B1B68CCE7D31A2B44DCE793
:10F770003F1BB844E8E7002000E00020BDE8F88324
:10F780006C3D0020703D0020B03E0020683D002010
:10F790002DE9F8430646884691461F468B420CD811
:10F7A0000024334B1D68A5425ED9324D05EBC405DC
:10F7B000AB88B34205D00134F3E77846F8F780FE12
:10F7C000EEE72C4D05EBC4052B4B1E88EB889E42C3
:10F7D00003D001339BB29E4235D1EA88964236D29D
:10F7E000254B1B68013B1B0C1B041344214A52F898
:10F7F0003420224931F81440190A1806C2F30C03C8
:10F80000A34227D2E51A1544A5F50055421941F146
:10F8100000034FEA19214FEA0960C8F30C05AF4213
:10F820001BD97F1BB844A8F5005810EB080041F124
:10F8300000014FF6FF75AC4212D0994208BF9042CA
:10F8400010D0002011E07846F8F73AFEC5E70A4BE1
:10F850001B68C8E7E31A9D18D8E77F1BB844E4E7A4
:10F86000002002E0012000E00020BDE8F88300BF96
:10F870006C3D0020703D0020683D0020B03E00201F
:10F8800008B50021034B19604FF4A072024813F031
:10F890000FFD08BD6C3D0020703D002008B50348F9
:10F8A000FCF790F9FFF7ECFF08BD00BF3C2E0020ED
:10F8B000F0B5C7B00C4616460546F0B12CB3E1B220
:10F8C0000139C9B22878E0B1012820D02C4B1B683F
:10F8D00013F4807F03D02B4B1B68012B1CDC284BBF
:10F8E0001B6813F4807F10D0264B1B68032B0CDDA4
:10F8F000802C28BF802400232BE07846F8F7E0FD19
:10F90000DCE73246681C0EF011F947B0F0BD324614
:10F91000681C00F0D3FEF8E71B4BD3F804350190C8
:10F920001A4A00924C221A490220FEF719FCD6E727
:10F930006A1CD25C174807681609580017F806C0F9
:10F9400005AE06F813C002F00F020130BA5C325463
:10F950000133A342ECD305AA002302F8143003F1CB
:10F96000804303F58833D3F8043502920A4A0192A2
:10F970000A4A00924D2206490420FEF7F1FBC4E733
:10F98000302E00202C2E0020001001405C4204008C
:10F9900053420400342E002084420400DC3A040068
:10F9A0002DE9F0410546E0B10F4616461C46DAB196
:10F9B000E3B1FF291CD01C2B1CD803F102085FFA0D
:10F9C00088F808F1010109F064FC054648B180F8A7
:10F9D00011802B238374C77422463146143013F0F0
:10F9E0003EFC2846BDE8F0811546FAE70025F8E719
:10F9F0000025F6E70025F4E7F8B506460D4617465C
:10FA0000884201D8344613E07846F8F759FDF9E703
:10FA10007846F8F755FD21E024F47F6424F00F04C4
:10FA200004F5805423781C44A5422AD9A6422BD23F
:10FA30006288BA4226D024F47F6323F00F0303F5D3
:10FA40008053AB4207D3B2F5FE4F16D0238804EBA8
:10FA50008303AB4213D22388002BD9D0238804EB35
:10FA6000830323F47F6222F00F029342D4D0628892
:10FA7000B2F5FE4FD0D01C46D6E7002402E00024A9
:10FA800000E000242046F8BD0024FBE7014B18608D
:10FA9000704700BF283F002070B50E46054678B17C
:10FAA00096B12B78012B13D8284B1B6AA3B96B682E
:10FAB0001D2B15D82B78012B16D0254B1C6820E068
:10FAC0007846F8F7FDFCEBE77846F8F7F9FCE8E74D
:10FAD0007846F8F7F5FCE7E77846F8F7F1FCE6E753
:10FAE0007846F8F7EDFCE5E7EB68B3F1FF3FE4D0CB
:10FAF00003F50073012BE0D97846F8F7E1FCDCE769
:10FB00002468BCB1A4F108002A6914F8033C1A4225
:10FB1000F6D054F8083C1B68294698470028EFD1D6
:10FB200014F8042C012303FA02F208490B6A134368
:10FB30000B62E5E7054B1B6A23B16A68034B03F8C8
:10FB4000012B3360014B186A70BD00BF043F0020D9
:10FB50002C3F002010B5114B1B6A13B1104B1C68D1
:10FB600004E07846F8F7ACFCF8E724688CB1A4F11F
:10FB700008000A4B1A6A14F8041C01238B401A422D
:10FB8000F3D054F8083C5B68044911F8012B9847FE
:10FB9000EBE7024B00221A6210BD00BF043F0020B9
:10FBA0002C3F002010B50F4B1B6A13B10E4B1C6885
:10FBB00004E07846F8F784FCF8E7246874B1A4F10F
:10FBC0000800084B1A6A14F8041C01238B401A42DF
:10FBD000F3D054F8083C9B689847EEE7014B0022AD
:10FBE0001A6210BD043F00202C3F00202DE9F04197
:10FBF0000F4616461C46804650B1074B1D682DB176
:10FC00002346324698F804103846A847BDE8F081EC
:10FC10007846F8F755FCF0E7283F002070B50C4611
:10FC200015460646D8B1F4B10DB3FF2D23D0236895
:10FC30002BB363683BB3A368002B28D0184B1B7809
:10FC40001F2B28D83460164A1378591C1170337151
:10FC5000757106F108011348FEF7C1F970BD7846C9
:10FC6000F8F72EFCDFE77846F8F72AFCDCE7784661
:10FC7000F8F726FCD9E77846F8F722FCD7E778466C
:10FC8000F8F71EFCD5E77846F8F71AFCD3E7784674
:10FC9000F8F716FCD2E77846F8F712FCD2E700BF77
:10FCA000003F00202C3F0020054B5B6833B14FF62E
:10FCB000FF72934202D0013B014A5360704700BF7C
:10FCC0003C3F002000B583B0019040F20713B3EB36
:10FCD000104F09D1064B00221A605A609A60DA6010
:10FCE0001A6103B05DF804FB7846F8F7E9FBF1E729
:10FCF0003C3F00202DE9F04104460F4616461D46C4
:10FD00005B68C3B10A232370002323732B88E3812C
:10FD1000DFF82C80B8F800006082FBF7EFFD20745C
:10FD20006B68A3616760A66098F80C302377FF23A7
:10FD30002362BDE8F0817846F8F7C2FBE2E700BF36
:10FD40003C3F002000B58DB003460D4A127B02F007
:10FD50007F028DF800200B4A127800218DF80110E7
:10FD60008DF802200322694603A8FFF7C3FF6FF056
:10FD7000020103A8F9F7B8FC0DB05DF804FB00BF61
:10FD80003C3F0020643F00200E4B1B88CBB100B5E8
:10FD900083B00D4B1B683BB10B4B1B686846984703
:10FDA00030B103B05DF804FB7846F8F789FBF3E760
:10FDB0006846FFF7C7FF003818BF0120034B1870D3
:10FDC000EFE770473C3F0020A03F0020853F002028
:10FDD00008B5094B1B7818420CBF012200228A4249
:10FDE00000D008BD4340044A1370044BDB89034232
:10FDF000F7D0FFF7C9FFF4E7643F00203C3F002045
:10FE000000B583B00191C1F30741012902D003B0CD
:10FE10005DF804FB0028FAD111780120FFF7D8FF24
:10FE2000F5E700B583B0019110B103B05DF804FBB4
:10FE300011780220FFF7CCFFF7E7000008B5037840
:10FE4000012B00D008BD034B1B78002BFAD0FFF725
:10FE50009BFFF7E7853F002008B5144B1B8823B1B3
:10FE6000124B5B6813B1012300E000238BB1104BF0
:10FE70001B6893B10E4A13681846B3F5E16F28BFAB
:10FE80004FF4E1600B4901FB00F111611B1A136093
:10FE900008BD074B00221A61FAE7FFF705FFFFF7DD
:10FEA00073FF024B9A68024B1A60E3E73C3F002065
:10FEB000683F002040420F0030B583B001900C46EF
:10FEC00040F20713B3EB104F09D1074D0FCD20605F
:10FED0006160A260E3602868206103B030BD7846AD
:10FEE000F8F7EEFAF1E700BF3C3F002010B50D4BEC
:10FEF0001B789BB10C4B9B681C46B3F5E16F28BF88
:10FF00004FF4E1641B1B094A1360FCF72DF9084903
:10FF100001FB04010748FCF7FDF810BD0024034B6A
:10FF20001C60F2E7843F00203C3F0020683F002037
:10FF300040420F006C3F002008B5044B00225A607D
:10FF40009A600348FCF7CEF808BD00BF3C3F002094
:10FF50006C3F002070B582B001900C4640F2071350
:10FF6000B3EB104F36D12088FBF7C8FC02283FD0F6
:10FF70006368B3F5004F03D94FF6FF72934239D14E
:10FF8000A368B3F5803F37D894F90C30002B35DBEC
:10FF90001B4D26460FCE0FC533682B6023882BB927
:10FFA000A5F1100300225A609A601A73154B1B7852
:10FFB000A3B1134B5B684FF6FF72934214BF00234B
:10FFC000012313B10E4B9B6873B9FFF7B5FF0020F7
:10FFD00002B070BD7846F8F773FAC4E7084B5B6867
:10FFE000003B18BF0123ECE7FFF780FF0020EFE79D
:10FFF0000720EDE70720EBE70720E9E70720E7E721
:020000023000CC
:100000003C3F0020843F00200D4B9B681BB1013B0F
:100010000B4A9360704710B58CB00A48FCF762F841
:10002000074C0021A1602C2201A813F041F90623FE
:100030008DF80430029401A8F9F72AFE0CB010BD27
:10004000543F0020883F002003780A2B47D1C38902
:10005000234A1288934242D1418A214A52889142CE
:100060003DD18268032A3AD11D4A9268002A36D0CF
:1000700000B58DB01A4A5268B2F5004F02D2013273
:1000800017494A6005228DF8042041680A7802F079
:100090007F028DF808200A7802F07F02007F121A92
:1000A000D2B20132D2B28DF80920897801F00F0165
:1000B000ADF80A10ADF80C3093B2094A9289934218
:1000C00001D2074A9381064AD289934201D9044A50
:1000D000D38101A8F9F7DCFD0DB05DF804FB704792
:1000E000543F002008B501210C48F9F787FD80B97D
:1000F0000B4B0C4ADA600C4B0C4A9A600C4ADA60E3
:100100000C480D4B0360F9F7EBFD0C4B01221A7004
:1001100008BD7846F8F7D4F9EAE700BFA842040022
:10012000683F002059FE0200883F002009000300BC
:1001300040420F00303F00203DFE0200843F00207F
:1001400070B590B0044600283ED00FA90DF13E00D6
:1001500008F032FEA368B3F5803F43D82088FBF750
:10016000CDFB012804D02088FBF7C8FB002839D13B
:100170006088FBF7C3FB58BB254B0BAD0FCB85E865
:100180000F00A3681BB122880AB1618861BB204BB4
:1001900000221A805A809A601E48FBF7A3FF2C2287
:1001A0000021684613F084F806238DF80030BDF86E
:1001B0002E305BB30BAB0193154B02936846F9F7F6
:1001C00067FD002010B070BD7846F8F779F9BCE7FC
:1001D0006088FBF793FB0328CED06288BDF83E30E1
:1001E0009A42C9D00720EDE7094C22806180A360C4
:1001F000084DEE68FBF7B8FF31182846FBF78AFF79
:100200007F23A3810023E3816360C8E70023D2E753
:10021000543F0020883F002000487047543F002092
:10022000004870473C3F002008B50146034B0022C0
:100230001A70034B186800F0F5FC08BD843F0020DD
:100240009842040008B5044B186000B108BD784618
:10025000F8F736F9FAE700BFA03F0020114B196804
:1002600048680288013202EB820293005B089BB26D
:10027000B3F5167F28BF4FF416730A2B38BF0A2335
:1002800083804A6893780133DBB29370022B00D0ED
:100290007047044A1368596800238B7012685268CB
:1002A0001380F5E7A440002000B583B00190084B0F
:1002B00001221A70074808F0B3FFFBF755FF064B01
:1002C000D96801441846FBF725FF03B05DF804FB2D
:1002D00084400020A43F00208C40002010B582B054
:1002E00001900C46000CB0F5837F04D1044B1B78C1
:1002F000237002B010BD7846F8F7E2F8F6E700BFC9
:100300008440002010B582B001900C46000CB0F57E
:10031000837F0BD12478114B1B7803B954B903B1F7
:10032000A4B10E4B1C70002002B010BD7846F8F747
:10033000C7F8EFE70A4808F073FFFBF715FF094B12
:10034000D96801441846FBF7E5FEEAE7044808F0DF
:1003500099FF0448FBF7C6FEE3E700BF8440002096
:10036000A43F00208C40002030B585B005460846EB
:1003700014466B460D222946FCF77BFE6B4603CBE9
:100380002060616005B030BD2DE9F04792B00446B1
:100390000DF147025449002008F06AFC0CE0191BDB
:1003A0009288524B03FB02F38B4213D90DF14702A3
:1003B0004D49002008F05CFC4B4B1B68002B5BD0C8
:1003C0005868FFF74BFF484B1B685A689368E11A5F
:1003D000E6D5E4E7FAF79AFF0546FAF7B7FF9DF886
:1003E0004730022B4BD0404A11680831022B14BF12
:1003F000002201229DF8303062F30003012814BF6F
:100400000022012262F341036FF387038DF830303D
:100410000B4653F8102F5B68CDF83120CDF83530FE
:100420002B0203F47F0343EA05632A0A02F47F42A6
:10043000134343EA1563CDF839300DF13D020CA8A2
:10044000FFF792FF15230CAA01212948FFF7A8FA0C
:10045000014688B101230371254808F057FF254B59
:100460001B6813F0020F03D0234B1B68042B0ADC1C
:100470001D4B1B685B689C6012B0BDE8F0871A4A90
:1004800011683031B2E71D4BD3F804359DF83110B7
:100490009DF832009DF833609DF834709DF835C0AA
:1004A0009DF836E09DF837809DF838909DF8302013
:1004B000C2F3400A02F001020B950A92CDF824A083
:1004C000CDF82090CDF81C80CDF818E0CDF814C000
:1004D0000497039602900191094A0092F722094974
:1004E0000520FDF73DFEC3E7A440002040420F0079
:1004F000A43F0020302E00202C2E002000100140B0
:1005000008430400FB42040008B5FBF72DFEFFF78B
:100510003BFF08BD08B5FFF737FF08BD30B583B016
:1005200005460C4608220131103012F065FE10B16C
:10053000002003B030BD6A4629462046FFF714FF6D
:10054000082204F10D01684612F056FEB0FA80F060
:100550004009EEE710B582B00023154A1360154C30
:10056000154AE260154AA260236104210DEB0100E7
:10057000FBF736FFFBF7F8FDE2680199B1FBF2F3F8
:1005800002FB1313184460600D4C34230D4A0E49CE
:10059000204608F0B9FF4FF47A71204608F032FF88
:1005A0000A4A04210A48FCF7FBFD02B010BD00BF57
:1005B000A44000208C400020809698001505030080
:1005C000A43F0020404000200905030074400020A3
:1005D0004C43040008B5074B1B7803B108BD06481F
:1005E00008F01EFE0548FBF757FD024B01221A706A
:1005F000F4E700BF84400020A43F00208C4000208E
:1006000000B585B08DF807000DF10701054B18689E
:1006100000F008FB10B905B05DF804FB7846F7F769
:100620004FFFF8E79843040000B583B00DF10701D0
:10063000064B186800F008FB20B99DF8070003B0CE
:100640005DF804FB7846F7F73BFFF6E798430400B4
:1006500070B5049E68B30D46014666B3304601246A
:1006600000F8014B747863F30004012A14BF0022E0
:10067000012262F341046FF3870474700B4653F850
:10068000102F5B68C0F80120C0F805302B0203F47E
:100690007F0343EA05632A0A02F47F42134343EAD5
:1006A0001563C0F8093006F10E02FFF75DFE002069
:1006B00070BD0E20FCE70E20FAE700002DE9F04F98
:1006C0009BB017460446F8B100231893D4F80930BC
:1006D0001D0205F47F0545EA03651A0A02F47F420C
:1006E000154345EA1365464B1B6813F0020F03D010
:1006F000444B1B68042B0BDC661C0DF1670218A928
:10070000304608F0B5FA61E07846F7F7D9FEDBE746
:100710003D4BD3F804356178A078E67894F804C0AE
:1007200094F805E094F8068094F8079094F808A0EF
:100730002278C2F3400B02F001020B950A92CDF829
:1007400024B0CDF820A0CDF81C90CDF81880CDF8BD
:1007500014E0CDF810C00396029001912B4A00924C
:100760004FF4D1722A490520FDF7FAFCC4E7784618
:10077000F7F7A6FE2FE09DF867300BB321461898D7
:100780003030FFF7CBFED8B1189A30322CE001336D
:100790000B8004238DF83430214611F80D3BC3F350
:1007A00040008DF84C00C3F300038DF84D301295D6
:1007B000189B0E930F92109711910DA8F9F768FAF4
:1007C0000DF1670218A9304608F052FA189B9BB148
:1007D0005B68002BCBD0214618980830FFF79EFEAF
:1007E0000028C8D0189A0832189B59680B884FF611
:1007F000FF708342CBD1CCE71BB0BDE8F08F00BFC8
:10080000302E00202C2E0020001001405443040004
:10081000FB420400C0EBC000014B03EB80007047BB
:10082000C4330400014B03EBC0007047AC36040036
:1008300082B0019189B203681A88914202D00020E7
:1008400002B070475B88BDF80620934205D8C18886
:100850000B44934203DC0020F2E70020F0E7012084
:10086000EEE7000010B582B00190074C074B9C42A8
:1008700006D001992046FFF7DBFF10B91C34F5E7DD
:100880000024204602B010BDC43304009C3604008E
:1008900002460548054B984204D00388934202D093
:1008A0000830F7E700207047AC360400CC3604006F
:1008B0002DE9F04182B00546884601921F460B4C57
:1008C00000E008340A4A94420CD022681168284695
:1008D000FFF7AEFF0028F4D066683A46019940461B
:1008E000B047EEE702B0BDE8F08100BF9C360400DF
:1008F000AC36040030B583B00446019103685D88CE
:10090000C5EB1145C388AB4203D9A069284403B0A5
:1009100030BD7846F7F7D4FDF7E7000070B5164D07
:100920001DE07846F7F7CCFD23E01C34B44215D027
:10093000A54213D02A681088236819888842F4D108
:1009400052885988E3880B449A42EEDAEB881A44BD
:100950009142EADA7846F7F7B3FDE6E71C35074E31
:10096000B54208D02B685B88EA881344B3F5803F12
:10097000D7D2014CDAE770BDC43304009C360400C2
:1009800030B593B02A4C3DE07846F7F799FD43E047
:10099000019800F054FB26E0A269535D23F00103A7
:1009A0005355A269535D43F0040353550135E38861
:1009B000AB4226D9A3695B5D03F00502012AF5D19C
:1009C00022681068019005EB1040ADF8060013F0A6
:1009D000020FDDD0236902A901989847A28802A9D5
:1009E000019800F001FB0028D6D0052801D013B0F3
:1009F00030BDA269535D23F001035355D6E70025AE
:100A0000D5E71C340B4B9C42F1D023681888FFF7C4
:100A10003FFF05460028B7D0AB78012BEFD0022B63
:100A2000EFD1054B1B78002BEBD00025BFE700BFB3
:100A3000C43304009C360400A840002070B582B086
:100A40000446084601911546E36811469847064654
:100A500010B1304602B070BD01992046FFF74AFF41
:100A6000037843F00303037023681888FFF710FF2F
:100A700040B1FFF785FF2B46019A00212046FFF782
:100A800017FFE6E77846F7F71BFDF2E770B58EB083
:100A900001900E461446114601A806F07AFF01980F
:100AA000FFF7E0FE88B105468388A3420FD8C368EC
:100AB00031460198984708B1012509E00199284677
:100AC000FFF718FF0223037014E0022500E0002561
:100AD0002C22002103A812F0EBFB14238DF80C301C
:100AE0008DF810500198CDF812000696079403A8CF
:100AF000F9F7CEF801200EB070BD000010B582B03D
:100B0000FFF70CFF0020FFF785FE04460020FFF7EB
:100B100089FE02460849094BC91A8908084BA3FBFC
:100B20000131084B0093084B08481B1ADB0820468C
:100B300000F0DAF902B010BD9C360400C4330400A2
:100B400025499224950B0300CC360400AC360400F2
:100B500008B5024800F090FA08BD00BF8D0A0300F6
:100B60000A4A0B4B9A420CD00023D188994206D9ED
:100B70009169C95C11F0050F05D10133F5E71C320D
:100B8000EFE7002070470120704700BFC433040026
:100B90009C36040030B58DB00446D0F80200FFF753
:100BA00061FE0546B8B1D4F802102846FFF7A2FE50
:100BB0000546037813F0040F11D02B7823F00403BB
:100BC0002B702378022B0ED0FFF7CAFFD0B1FFF7AE
:100BD000D7FE0DB030BD7846F7F772FCE3E77846F4
:100BE000F7F76EFCE9E72C22002101A812F060FB68
:100BF00013238DF80430D4F80200029001A8F9F70D
:100C000047F8E1E70021064B19702C2201A812F0E9
:100C10004FFB12238DF8043001A8F9F739F8D8E713
:100C2000A840002010B582B0019049B10C46FFF7F2
:100C300019FE38B122460199FFF700FF02B010BD3E
:100C40000E20FBE70520F9E730B583B00190B1B184
:100C50000D46FFF707FE044698B1037A33B12369C6
:100C6000294601989847002003B030BD0199FFF74D
:100C700041FE037813F0020FF1D10820F4E70E20B3
:100C8000F2E70520F0E710B582B00190FFF7EAFD2A
:100C9000D8B104460199FFF72DFE037813F0020F37
:100CA00015D003F0FD0343F00103037063690BB13A
:100CB00001989847FFF764FE0023019A012120461E
:100CC000FFF7F6FD002002B010BD0520FBE708206D
:100CD000F9E72DE9F041804607683E68FF250024CA
:100CE00005E016F82430FF2B0ED00134E4B23B7936
:100CF000A3420BD9FF2DF4D016F92430002BF0DAE3
:100D00007846F7F7DDFBECE72546EEE7FF2D02D04E
:100D1000AB4200D8FF2588F80450BDE8F081F8B553
:100D200005460C4616464B78FF2B06D003689F6895
:100D3000BFB131466078B84790B1A378FF2B05D09A
:100D40002B68DF688FB13146A078B847E378FF2B76
:100D500013D0AB79DBB2012B0BD1E3786B7101209F
:100D6000F8BD7846F7F7ACFBE3E77846F7F7A8FB62
:100D7000E9E77846F7F7A4FBEFE70120F0E72DE974
:100D8000F04107460E469046427901680C680D799D
:100D900004EB8505194613B9D2B203791BB904EBEC
:100DA0008104043410E0AC42FBD2237883F080034A
:100DB0009342F6D00434F6E7424621463846FFF720
:100DC000AEFF034658B90434AC4207D22378B3428D
:100DD000F2D013F0800FF6D0002300E00023184675
:100DE000BDE8F08138B50C46054648B164B12C60C9
:100DF00063796B710023AB712846FFF76AFF38BD3A
:100E00007846F7F75DFBF1E77846F7F759FBEEE731
:100E100070B50D461646044690B1A3790133DBB296
:100E2000A3710023324629462046FFF7A8FF10B9D8
:100E30002379FF2B08D1A379013BDBB2A37170BDED
:100E40007846F7F73DFBE8E7324629462046FFF7AC
:100E500096FFF0E78079003818BF0120704770478F
:100E600001460023094A12689A420CD9084A1268BE
:100E700002EBC30032F833208A4201D00133F1E79C
:100E800043681A8070470020704700BFAC400020C4
:100E9000B440002050B10188013189B200231846C6
:100EA0000F4A12689A421AD930B407E00021F5E7D8
:100EB000204601330A4A12689A420ED9094A12683A
:100EC00002EBC30432F833208A42F2D30028EFD079
:100ED0000588AA42EDD22046EBE730BC7047704748
:100EE000AC400020B44000202DE9F8438846154668
:100EF0001C46089E074688B1B8F1000F12D0ADB16C
:100F0000C4B1354B00221A60344B1D60344B1C6059
:100F1000A6B1304600F034F900242AE07846F7F70D
:100F2000CFFAE9E77846F7F7CBFAE8E77846F7F73C
:100F3000C7FAE5E77846F7F7C3FAE2E7294EE8E7AC
:100F40007846F7F7BDFA73685D88B9F8040000F0D9
:100F5000C5F9B9F8063003FB0055B5F5803F1AD244
:100F600073685D807268B9F8063091880B4493808D
:100F70000134444513D2C4EBC40307EB830957F88B
:100F800023301888FFF76CFF06460028D8D0436846
:100F9000002BD8D1D4E77846F7F792FAE0E700249F
:100FA00009E07846F7F78CFA204600F09CF90A4AE7
:100FB0001368034413602046FFF76CFF044640B1FA
:100FC000A378002BF0D0606800F0ECF80028EBD09C
:100FD000E7E7BDE8F88300BFB0400020B440002040
:100FE000AC4000205F0E030070B582B00190144643
:100FF0000E46A1B1BCB1BDF80400FFF731FF0546B4
:10100000A8B16B685B88B3B16B68BDF80620DA8065
:1010100022463146686800F017F902B070BD784684
:10102000F7F74EFAE6E77846F7F74AFAE3E7784645
:10103000F7F746FAE5E77846F7F742FAE4E710B53E
:1010400082B0019080B2FFF70BFF044658B163688D
:101050005B8863B16368BDF80620DA80606800F0E1
:1010600008F902B010BD7846F7F72AFAEFE778469C
:10107000F7F726FAEEE7000038B5054608B1002478
:1010800008E07846F7F71CFAF9E72946586800F0B7
:1010900009F90134064B1B68A34207D9054B1B68AD
:1010A00003EBC4039A78002AF3D0EEE738BD00BF03
:1010B000AC400020B440002000B583B00B46496826
:1010C0004288CA8059680988ADF80410ADF8062036
:1010D000014631F8042B02F18042013A1B6892006C
:1010E00001989847024B185C03B05DF804FB00BF01
:1010F0003444040000B583B0134602B102238DF8D6
:10110000003030F8083CADF802304B88ADF80430C0
:10111000034B1B686846984703B05DF804FB00BFAB
:10112000BC40002000B583B07AB901238DF80030AF
:1011300030F8083CADF80230ADF80410044B1B68E1
:101140006846984703B05DF804FB0223EEE700BF52
:10115000BC400020704700B58DB02C22002101A8B2
:1011600012F0A6F80E238DF8043001A8F8F790FDD0
:101170000DB05DF804FB08B5FDF796FF08BD000053
:1011800008B5054B00221A70044B1860FDF7BCFC33
:101190000348FDF78DFF08BDB8400020BC4000208B
:1011A0005711030070B58AB00446438803F6F773FD
:1011B000DB081B4AA2FB03239E091A4D2A7802EB87
:1011C00093132B70FFF7D7FF2B78A0EB033004F1BC
:1011D00008050490059663880693134B0793134BF9
:1011E0000893134B0993134B1B6813F4801F03D010
:1011F000114B1B68062B05DC04A92846FDF7AAFE47
:101200000AB070BD0D4BD3F80435228802920190CC
:101210000B4A0092F2220B490720FCF7A1FFEBE7F3
:1012200005081020B8400020F51003002511030028
:1012300055110300302E00202C2E002000100140FC
:1012400008440400EB43040070B50C461546C18801
:101250000830FDF769FD50B106462A4621460430A4
:1012600011F0FDFF3046FDF795FD002070BD042014
:10127000FCE730B583B004464FF6FF73ADF8043099
:10128000C388ADF8063000F1080501A92846FDF72E
:101290003CFD28B1E1882846FDF7A4FD03B030BD30
:1012A0000520FBE730B583B00C46054658B174B154
:1012B000009401956B46084A002105F10800FDF7EE
:1012C00059FC03B030BD7846F7F7FAF8EFE77846F7
:1012D000F7F7F6F8ECE700BFB9100300073080B26B
:1012E00020F0030070478378022B0ED143685888A2
:1012F0000330800800EB800200EBC2009B88642270
:1013000002FB030000F5FA707047002070470000F0
:1013100010B50A4B834202D07846F7F7D1F8084B54
:101320001B6833B1064C206800F013FB00232360D8
:1013300010BD7846F7F7C4F8F4E700BFC0400020BE
:10134000D8400020F8B50D461446114B834202D018
:101350007846F7F7B5F80F4B1B681B69A34212D309
:101360000C4E37682246294607F1140011F077FF2A
:1013700039460948FAF753FC00233360074B1868D5
:10138000FBF73EFDF8BD7846F7F79AF8E8E700BFAF
:10139000C0400020D8400020CC400020D440002095
:1013A00010B50C46104B834202D07846F7F788F808
:1013B000236913F0200F13D00C4B1B680BB10120D5
:1013C00010BD6068143000F0C0FA084B186048B1D6
:1013D00023780372E368C360636803610020EFE76A
:1013E0000120EDE70220EBE7C0400020D8400020BC
:1013F00030B587B0002300930193029303930493C5
:10140000059303238DF800301048FAF724FC0446B6
:10141000CCB1E3680193257AFAF7A6FE0246E368A9
:1014200029460B48FEF7E2FB6A46216904F11400E5
:10143000FCF734F90548FAF70EFC0546204600F0A3
:1014400088FA2C46E4E7012007B030BDCC400020EC
:10145000C040002008B50748FBF7B2FC064B1860F7
:10146000202206490648FEF7D9FB0648FAF7CCFBCE
:1014700008BD00BFF1130300D4400020384404002D
:10148000C0400020CC40002030B583B001900D4614
:10149000C0F30744012C17D80D4804EB84035A010C
:1014A00000EB43131B792B7083586B7004EB84049F
:1014B00000EB4414636F03F5FA73064AA2FB03239F
:1014C0009B096B8003B030BD7846F6F7F9FFE3E780
:1014D000E8400020D34D621030B583B001900D4636
:1014E000C0F30744023CE4B2012C09D804EB8404A5
:1014F000054B03EB441494F82C302B7003B030BD33
:101500007846F6F7DDFFF1E7E840002010B582B03D
:101510000190C0F30744012C19D804EB8403154A49
:1015200002EB43131B79B3B1012C1CD004EB8403F1
:101530005B01104A0121D15004EB84040D4800EBFB
:1015400044101421043007F05DFF02B010BD78464E
:10155000F6F7B6FFE1E704EB840002EB401004303D
:1015600007F05EFEE0E704EB84035B01014A012122
:10157000D150E1E7E840002030B583B001900D463E
:10158000C0F30744012C0CD86B78013BDBB2072B6E
:1015900038D86B88143B9BB2B3F5917F05D90720EF
:1015A00031E07846F6F78CFFEEE704EB8403174A48
:1015B00002EB43131A792B7803B18AB103B9C2B98C
:1015C0006A78124804EB84035B01C25004EB840484
:1015D00000EB44106988043007F014FF002012E08B
:1015E00004EB8400094B03EB4010043007F018FEB5
:1015F000E6E704EB8400054B03EB4010043007F0F2
:1016000041FEDDE7072003B030BD00BFE840002009
:1016100010B582B00190C0F30744023CE4B2012C43
:101620000AD804EB8404064800EB4410002104307F
:1016300007F02AFF02B010BD7846F6F741FFF0E749
:10164000E840002030B583B001900D46C0F3074458
:10165000023CE4B2012C0BD804EB8404064800EBF6
:1016600044102978043007F00FFF002003B030BD8C
:101670007846F6F725FFEFE7E840002010B584B084
:101680000190C0F30744043CE4B2012C0DD802A839
:1016900007F014FF04EB8404064800EB441002A991
:1016A000043007F08AFE04B010BD7846F6F708FF54
:1016B000EDE700BFE840002030B583B001900D4653
:1016C000C0F30744043CE4B2012C08D82B7813F093
:1016D000FE0308D0022B06D0072003B030BD7846A9
:1016E000F6F7EEFEF2E704EB8404044800EB441046
:1016F0002946043007F061FE0020EEE7E8400020B4
:1017000030B583B001900D46C0F30744043CE4B209
:10171000012C0ED804EB840464016834074B1C448C
:1017200054F8043F2B60A288A379AA80AB7103B060
:1017300030BD7846F6F7C4FEECE700BFE840002075
:1017400010B50D4B834202D07846F6F7B9FE0B4B2D
:101750005B686BB1094C207800EB8000084B03EB11
:1017600040106168043007F019FE0023636010BD6B
:101770007846F6F7A5FEEDE7DC4000202842002081
:10178000E8400020F8B50F461546134B834202D0BF
:101790007846F6F795FE114B5B68C3B10F4E74683F
:1017A0002A23A3746B1C63742A46394604F1130080
:1017B00011F055FD307800EB8000094B03EB401031
:1017C0002146043007F0A2FD00237360F8BD78467F
:1017D000F6F776FEE2E700BFDC400020284200205A
:1017E000E840002010B50C46144B834202D07846E6
:1017F000F6F766FE124B5B6813B17846F6F760FEAB
:101800002078616800EB80000E4B03EB4010023142
:10181000043007F03EFD0A4B586068B1E36803608E
:10182000237803EB83035B01064AD35803712278C4
:10183000034B1A70002010BD0220FCE7DC400020A2
:1018400028420020E840002010B50B460438054926
:10185000401A4011044C04FB00F0C1B20348FEF7EB
:10186000C5F910BDE8400020CDCCCCCCDC40002038
:1018700001280ED800B583B0074B1B68019300F513
:101880008070ADF806000198FFF7CCF903B05DF861
:1018900004FB0720704700BF4444040001280ED811
:1018A00000B583B0074B1B68019300F58070ADF85D
:1018B00006000198FFF7C8F903B05DF804FB0720A4
:1018C000704700BF4444040070B5104C0126254603
:1018D00045F8046B4FF480730D4A0E49284607F013
:1018E00013FE284607F09CFCC4F8A060A4348023B3
:1018F000094A0021204607F007FE204607F090FC29
:10190000324606490648FEF789F970BDE8400020D6
:101910003C420020491803003C4300205C44040082
:10192000DC40002010B50446012806D804EB8404EE
:10193000044800EB4414207910BD7846F6F7C0FD4A
:10194000F4E700BFE8400020704708B511F0B6FB8F
:1019500008BD08B511F0FAFB08BD08B50020FAF77C
:101960009BF908BD10B50446FDF762FB10B1237862
:101970000E2B00D010BDFFF7F0FFFBE770B586B06F
:1019800004460D46C38AADF810300323ADF812307B
:1019900004A806F0A7F8064610B1304606B070BDA0
:1019A0000DF116022146208A06F092FB0646002819
:1019B000F3D105AB2A46BDF81610E08A06F026FEE4
:1019C00006460028E9D1217E01F00101D4F8120079
:1019D000F9F7C2FC08BBBDF8140010F081FA064606
:1019E0000028DAD10F4B1B6813F4002FD5D00E4B13
:1019F0001B68062BD1DD0D4BD3F80435227E02F097
:101A000001020292D4F812200192094A0092C622E1
:101A100008490720FCF7A4FBBFE77846F6F750FD1E
:101A2000D9E700BF302E00202C2E002000100140EE
:101A3000C4440400B444040008B5FAF715FD03F0EB
:101A4000B6FA05F0F9FFF9F749FA08BD08B507F04D
:101A5000EBF908BD70B582B000283CD00E460446B4
:101A6000F9F7E2FF054610B1284602B070BD06F056
:101A700025F803F0A5FA206910F002FA05460028BF
:101A8000F2D1237F0193A369009363695922002156
:101A9000124810F06FFD05460028E5D1236A03B116
:101AA0009847FFF755F805F0B1FF044603F092F8A8
:101AB0000B2C09D00B2807D0FFF7C8FF044638B914
:101AC000002ED1D03470CFE7FFF7B6FF0B25F3E738
:101AD00001F078FAF4E70E25C6E700BFBC4300200A
:101AE00008B5FFF7B3FF10B9FAF704F808BD01F025
:101AF00055FB0028F8D001F0B1FAF5E708B5FDF77D
:101B000097FA10B1FFF729FF08BD0248FAF75AF813
:101B1000FAE700BF482E002076DF70477FDF70476E
:101B20008FDF704790DF7047A8DF7047AADF7047EC
:101B3000AEDF7047B1DF7047B5DF704710B431B921
:101B400083B2934208D808465DF8044B7047401AA8
:101B5000904203DC0320F7E70120F5E70220F3E7DA
:101B6000002313B14FF6FF7070470A494FF4A87273
:101B700002FB0312918B4FF6FF72914201D00133A9
:101B8000EFE704494FF4A87202FB0312908398B266
:101B9000704700BF14440020002313B14FF6FF70BC
:101BA000704706494FF4A87202FB0312928B8242DF
:101BB00001D00133F1E798B2704700BF1444002010
:101BC00090F83601003818BF0120704790F8EC00FB
:101BD0000B79013B984214BF002001207047032974
:101BE00007D890F835318B4205D0FF2B05D0002067
:101BF000704700207047012070470120704708B5EA
:101C00000B4613211888FFF787FF08B1082800D179
:101C100008BD7846F6F754FCFAE7000070B584B0CA
:101C20008088FFF79DFF4FF6FF73984201D104B003
:101C300070BD04460F4E4FF4A87505FB00F505F185
:101C40002001314405F118003044D8220C3108300D
:101C5000F8F7FDF83544002385F80C3103238DF89F
:101C600000308DF80140B369D6F86C11684698478A
:101C7000DDE700BF14440020D0F8E81051B110B5E2
:101C800004460430F8F73EFA0023C4F8E83084F83C
:101C9000EC3010BD7047000030B585B0FFF77CFF19
:101CA0004FF6FF73984221D00446114B4FF4A872AF
:101CB00002FB00F202F11800184404301344D3F878
:101CC00004519DB1FFF7D8FF01238DF800308DF846
:101CD00001406B7AC3F305038DF808306B680193FC
:101CE000034B9A69D3F86C116846904705B030BD34
:101CF00014440020F0B585B0054686883046FFF7CD
:101D00004BFF4FF6FF73984221D00446EF88162F01
:101D100006D9442F1DD83D46452F28BF452500E054
:101D2000172529463046FFF707FF08BB033DADB234
:101D30001B484FF4A87303FB0404E583194B1B688D
:101D400013F0010F03D0184B1B68032B03DC05B005
:101D5000F0BD4525E5E7154BD3F804350195144A48
:101D600000924FF4107213490420FCF7F9F9EEE7E2
:101D70000C4B1B6813F0200FE9D00B4B1B68012B99
:101D8000E5DD0A4BD3F804350395029701900A4A22
:101D900000924FF4117207490220FCF7E1F9D6E7EF
:101DA00014440020302E00202C2E00200010014072
:101DB0003C4504002F4504004C45040010B5044682
:101DC00000F59C70FAF78EF9002384F83631FF2372
:101DD00084F8353110BD0000F8B50646B8B90E4C90
:101DE0004FF4A87505FB06F505F118062644371DC6
:101DF0003846FFF7E3FF3846FFF73EFF06F10800DD
:101E0000F8F77CF82C444FF6FF73A383F8BD7846AF
:101E1000F6F756FBE3E700BF1444002010B584B08A
:101E20008088FFF7B9FE4FF6FF73984201D104B0E6
:101E300010BD0446FFF7D0FF04238DF800308DF865
:101E40000140034B9A69D3F86C1168469047EEE75E
:101E50001444002010B50446FAF786F903490144FA
:101E600004F59C70FAF756F910BD00BF002D310142
:101E70002DE9F0478EB00F4616460546002870D073
:101E800000296ED0002100296FD05A4A28681060BE
:101E9000AB88938097612B88ADF8343001208DF8A2
:101EA000360006320DA9FFF73FFE002840F08F8074
:101EB000AB88ADF834300023069307930893099359
:101EC0000A930B930C9304228DF8182001210A46E3
:101ED00061F307128DF814200A4661F307128DF89A
:101EE0001520894041F001018DF81610ADF80E3033
:101EF0000DAA009205AA0192ADF80830ADF80A309B
:101F00004222ADF80C2004933A4800F110036A46CF
:101F100006A9C088FFF70AFE00285CD16B88ADF8DF
:101F20003430002306930793089309930A930B9385
:101F30000C9310238DF818302E4800F108036A46E0
:101F400006A9C088FFF7F2FD002848D1294BC3F845
:101F50006C61294B1B68B3F1FF3F44D00EB0BDE864
:101F6000F0877846F6F7ACFA8CE7224B4FF4A8726C
:101F700002FB01F418194FF0140CA0F81EC04FF02A
:101F8000FF0C80F851C101F1010801FB02221A4443
:101F90001A49D16004F11809994409F10402C0F802
:101FA00064214FF6FF7282832034234403F10C0432
:101FB0004FF0D80A52460021204611F079F95246D6
:101FC000214609F10800F7F742FF41465BE77846F2
:101FD000F6F776FA6CE77846F6F772FA9EE77846F7
:101FE000F6F76EFAB2E70648FAF7EAFE024B186017
:101FF000B4E700BF14440020542E0020FF1B030050
:1020000029240300F0B583B00D4614461E4607464A
:1020100040BB032D2AD8422C2CD81D4B4FF4A8725C
:1020200002FB0732928B4FF6FF739A422ED0A21D0D
:10203000002301934FF4A87000FB07F01830144BF5
:10204000184492B201A90830F7F781FFB0B901989E
:10205000466001340472437A65F3050343720A3023
:1020600003B0F0BD7846F6F72BFAD2E77846F6F7DC
:1020700027FAD0E77846F6F723FACEE7042801D10D
:102080000020EDE77846F6F71BFAF9E70020E7E7CE
:102090001444002038B504460D46B9B1D4B9114AEC
:1020A0004FF4A87303FB04239A8B4FF6FF739A42F5
:1020B00014D04FF4A87303FB04F01830094B1844F4
:1020C000A5F10A010830F8F71DF838BD7846F6F793
:1020D000F7F9E3E77846F6F7F3F9E0E77846F6F73D
:1020E000EFF9E6E71444002008B54FF4A87303FBAA
:1020F00000F01830044B18440830F8F728F880F046
:102100000100C0B208BD00BF1444002070B50646EF
:1021100080B90A4C4FF4A87505FB06F505F5A470C7
:1021200020440C30F9F7DEFF2C441321A08BFFF77D
:10213000F3FC70BD7846F6F7C3F9EAE714440020D3
:102140002DE9F047CCB00446D0F8E870DFB194F840
:10215000EC203B7A9A421AD23D7A94F8ECA0B4F87B
:1021600002904A4651462846FFF7E8FC064600F131
:10217000FF385FFA88F8B8F1010F10D958B1032879
:1021800009D000250CE07846F6F79AF9DFE77846A3
:10219000F6F796F9E0E7A5EB0A05ADB200E04D468B
:1021A000A94541D394F8EC203B1D134403F1050EDF
:1021B0005A7966F387125A710023CDF823318DF8CE
:1021C0002731ADF81E515B4B1B89ADF82031CDF89E
:1021D0002CE10DF58F734A9301238DF82231564B74
:1021E0001B6813F0010F37D0544B1B68062B33DDEF
:1021F000A946802D28BF4FF0800900234B4517D2F8
:102200001EF803204E49D1F800C0100959001CF8EF
:1022100000A007A800F813A002F00F0201311CF87B
:10222000022042540133E9E77846F6F749F9B9E765
:1022300007AA002302F8193003F1804303F588331D
:10224000D3F8043502923F4A01923F4A0092A822F5
:102250003E490720FBF784FF48A92088FFF768FC68
:10226000814643F20143984229D0B9F1080F37D093
:10227000B9F1130F14D0B9F1000F03D1BDF81E311D
:10228000AB4202D07846F6F71BF994F8EC205319CC
:10229000DBB2013BDBB2B8F1010F2BD984F8EC3093
:1022A000B9F1000F2BD0244B1B6813F0010F03D0A2
:1022B000224B1B68062B2ADC4CB0BDE8F0870023BC
:1022C0001A4619462088FFF735FC28B948A9208806
:1022D000FFF72EFC8146C8E77846F6F7F1F8F5E7F8
:1022E0002088FFF759FC4FF6FF739842D8D0FFF7CC
:1022F0000DFFD5E73A44527A1F447A72CEE70123A4
:1023000084F8F030124B1868FAF77AFDCBE7114BDE
:10231000D3F80435628804960392BDF81E21029218
:10232000CDF804900C4A0092DB2208490720FBF705
:1023300017FFC1E714440020302E00202C2E00206F
:10234000342E002090450400DC3A04002F450400A0
:10235000542E0020001001409C45040038B504466E
:10236000051D2846F7F793FE00B938BD04F1E801D2
:102370002846F7F75BFE30B9D4F8E8303BB1204689
:10238000FFF7DEFEF1E77846F6F79AF8F4E77846CD
:10239000F6F796F8F3E7000070B505460E4611B360
:1023A0002DBB164B4FF4A87202FB05F202F1180484
:1023B0001C44043413449A8B4FF6FF739A421AD08C
:1023C0004FF4A87000FB05F018300C4D284436F887
:1023D0000A2CA6F10A010830F7F7F2FD2046FFF7B4
:1023E000BDFF002070BD7846F6F76AF8D8E778465A
:1023F000F6F766F8D5E70820F4E700BF144400209C
:1024000010B50446D0F8E8100431FFF7DFFB30B117
:102410002088FFF741FC2046FFF7A0FF10BD2046B3
:10242000FFF78EFEFAE7000010B500240CB1012082
:1024300010BD0C4A4FF4A87303FB042393F80C312E
:102440000BB90134F2E710464FF4A87303FB04F311
:102450001A44002182F80C11183318440430FFF795
:10246000CFFFEEE7144400202DE9F04784B0054685
:102470000E464FF4A87303FB00F318332D490B44A9
:102480001F1D541EA4B233789B09022B04D0032BCA
:102490001FD0FFF73BFE19E03846FFF7DBFC254B6A
:1024A0004FF4A87000FB05F55F1997F85201054439
:1024B00005F584751D442246711C05F1080010F0D5
:1024C000CEFE97F85221144487F8524104B0BDE87B
:1024D000F087DFF860904FF4A87808FB00F809EB6C
:1024E000080A9AF85201404400F584704844224694
:1024F000711C083010F0B3FE00238DF800308DF809
:1025000001509AF851318DF8043008F584734B442A
:10251000083302939AF852211444ADF80C40D9F8CC
:102520001830D9F86C11684698473846FFF746FCD2
:10253000CCE700BF14440020F0B585B005460C463A
:102540004FF4A87303FB00F318331E490B44181D06
:10255000013A96B223789B0905D0012B19D0284661
:10256000FFF7D4FD13E000238DF800308DF8015003
:1025700014F8013BC3F305038DF804300294ADF861
:102580000C60104B9A69D3F86C116846904705B0FF
:10259000F0BDFFF75FFC0B4F4FF4A87000FB05F593
:1025A00005F5847038443246611C083010F057FE3F
:1025B0002378C3F305032F4487F8513187F852611C
:1025C000E5E700BF14440020F0B585B004468088DC
:1025D000FFF7E2FA4FF6FF73984209D00546E38809
:1025E0002B4A9289934205D0294A128A934214D0E9
:1025F00005B0F0BD228A022AF6D1A37C13F0010FA8
:10260000F6D005238DF800308DF80100204B9A6933
:10261000D3F86C1168469047EAE7278A012F0CD956
:102620001B4A4FF4A87303FB052393F85231C3F1FF
:1026300042039F421ED9002300E000231BB34FF446
:10264000A87606FB05F606F11803114E1E44043663
:10265000A17C01F03F013046FFF7C1FA98B1304646
:10266000FFF7AEFA40B13A4604F112012846FFF7EF
:10267000FBFEBDE70123E1E73A4604F112012846DB
:10268000FFF75AFFB4E72846FFF740FDB0E700BF69
:102690001444002000B585B00388103B472B27D891
:1026A000DFE803F024292679262626262626262654
:1026B000262626262685266C26262C26262626260F
:1026C00026262626262626262626262626262626AA
:1026D000262626262626262626262626262626269A
:1026E000262626263C2665262694263FFFF796FAC0
:1026F00005B05DF804FBFFF791FBF9E7037A012BC6
:10270000F6D102238DF8003083888DF80130314BEB
:102710009A69D3F86C1168469047E9E7FFF754FFD0
:10272000E6E78088FFF738FA4FF6FF739842DFD06C
:10273000284A4FF4A87303FB0023D3F8043163B194
:10274000244B4FF4A87202FB0030012380F80C31B7
:10275000214B1868FAF754FBCAE74FF4A87303FB40
:1027600000F0183010440430FFF7F8FDC0E70023F4
:102770001A4619468088FFF7DDF9B9E70022009272
:10278000019269468088FFF7CDF90028B0D07846DD
:10279000F5F796FEACE700231A4685218088FFF7FF
:1027A000BDF90028A4D07846F5F78AFEA0E70023FB
:1027B0008DF800308DF8013069468088FFF7B0F958
:1027C000002895D07846F5F77BFE91E7FFF792FA5F
:1027D0008EE700BF14440020542E002011307047B3
:1027E00082B0024B01221A7002B07047582E0020AE
:1027F00010B50446C36C63B10848201A8010084B1A
:1028000003FB00F0E16C80B2FFF744FC0023E364BB
:1028100010BD7846F5F754FEEEE700BF04460020F1
:10282000A737BDE910B5044620B1A4F15000FFF769
:10283000DFFF10BD7846F5F743FEF6E738B50446EE
:10284000C36C73B10B4D651BAB100B4D05FB03F552
:10285000ADB2E16C2846FFF79FFD30B90023E36479
:1028600038BD7846F5F72CFEECE7E16C2846FFF71B
:1028700011FCF3E704460020A737BDE9F8B50C4684
:102880001646054678B171B1A5F1500755F8043CDC
:102890006BB13246214655F8040C10F0E0FC384686
:1028A000FFF7CCFFF8BD7846F5F70AFEECE778466F
:1028B000F5F706FEEDE70000F8B504460D461646AE
:1028C0001F46C36C13B17846F5F7FAFD0848201A85
:1028D0008010084B03FB00F03B46B2B2294680B2A1
:1028E000FFF790FBE06408B10020F8BD0420FCE78E
:1028F00004460020A737BDE970B50C46054638B13F
:1029000031B1A5F1500615F80C3C2BB9012070BD72
:102910007846F5F7D5FDF4E7A3685988304600F00E
:10292000EAFE0028F2D0E368626800213046FFF733
:10293000C3FF0028EBD00220E9E7000010B582B009
:102940000C4C0DF1070204F11C01002006F090F977
:10295000E3690BB102B010BD0DF1070204F11C01D7
:10296000002006F085F9E369002BF3D17846F5F7EE
:10297000A7FDEFE78445002008B500F1450200F10E
:102980004801002006F074F908BD00B587B00023A7
:102990008DF8043002684368CDF80520CDF8093081
:1029A000092201A941F62800F5F776FB07B05DF88A
:1029B00004FB30B58FB005460C4600230A93ADF8F2
:1029C0002C3008210DF12E00F9F70AFD210A41EA09
:1029D0000424ADF8364006AA0AA92846FAF72EFBC9
:1029E00001238DF8043008AB03CBCDF80500CDF8FA
:1029F0000910DDF82E20DDF83230CDF80D20CDF8AD
:102A00001130112201A941F62800F5F745FB0FB05E
:102A100030BD000010B582B0104BDC6993F8203057
:102A20000CB13BB908340D4B5B782BB1012B08D0AE
:102A300002B010BD3034F6E704F11000FFF7A5FF37
:102A4000F6E70DF1060101A806F0B6F9BDF804108D
:102A500004F11800FFF7ADFFEAE700BF844500204E
:102A600008B5FFF76BFFFFF7D5FF08BD2DE9F04173
:102A700082B00446884615461E46002316220121D0
:102A8000FFF71AFF20B10427384602B0BDE8F081F5
:102A90000746E36C00939DF82030324629464046B5
:102AA000FDF7D6FD18B92046FFF7C8FEECE77846DB
:102AB000F5F706FDF7E700002DE9F04782B0814603
:102AC000884617469A46002426461CB1304602B076
:102AD000BDE8F0870B4B5C2505FB043595F84430C9
:102AE0000BB90134F1E7CDF800A03B464246494618
:102AF00004485C2505FB0400FFF7B8FF0028F0D070
:102B00000426EEE7044600200378042B00D070472B
:102B100010B50446C3681B78012B00D110BD0169B4
:102B20000848FBF718FA0028F8D1637E227E616915
:102B3000A068FFF7C1FF0028F0D121690148FBF729
:102B400033FAEBE7A845002010B5034C201DF9F738
:102B5000C9FA0023237010BD8445002010B5044637
:102B600000F053FD0023A36410BD70B582B004468D
:102B700019E03035F8F7CAFB0646F8F7E7FB0346DD
:102B800094F84520003A18BF0122009232462946A7
:102B90002046FFF76BFF70B904F1450204F14801CC
:102BA000002006F065F8A56C2DB194F84530002B97
:102BB000DFD10835DEE702B070BD10B50446084627
:102BC000FFF70CFE0246002302212046FFF774FEA9
:102BD00008B1002010BDE06CFAF7AFFEFAE730B59F
:102BE00083B004460D461146012200922A46FAF7A8
:102BF000A5FF58B9E37A2BB1A37A2BB9638833B90F
:102C0000012004E0002002E0002000E0002003B0EA
:102C100030BD012A01D00920704708B5097800F0BD
:102C200001FD08BD70B590B0402A18D812F0010619
:102C300017D1520833460AE031F813502C0A44EAFF
:102C4000052410AD05EB430525F8404C01339342B4
:102C5000F2D3694600F0F9FC304610B070BD092689
:102C6000FAE70926F8E770B590B0402A18D812F0B4
:102C7000010617D1520833460AE031F813502C0AE6
:102C800044EA052410AD05EB430525F8404C01331B
:102C90009342F2D3694600F005FD304610B070BD96
:102CA0000926FAE70926F8E770B588B004460D460C
:102CB000164600230193029303930493059306930E
:102CC00001238DF80F30F8F727FB059006950DF1DD
:102CD0001E0103A806F070F804A8F8F7ADFA80B951
:102CE000054601A9E06CFAF7BEFD0123E26C31460E
:102CF00001A8FAF76DFF2046FFF7A0FD284608B0AF
:102D000070BD2046FFF774FD1125F7E738B504467E
:102D10000D460421FFF751FF80B10322027094F8A1
:102D200042204270B4F840100A0A42EA012242806E
:102D3000042229462046FFF7B7FF38BD0420FCE7F0
:102D400070B59AB01446531E412B0AD92B4B1B6801
:102D500013F0010F03D02A4B1B68012B41DC1AB082
:102D600070BD054609AB03A8FFF739FFA0B9234B97
:102D70001B6813F0010FF2D0214B1B68032BEEDD13
:102D8000204BD3F80435204A009240F225221F49F7
:102D90000420FBF7E5F9E2E709A8FAF7CEFD0646BD
:102DA000214603A8FAF7BDFD421E3378012B0ED051
:102DB000022B11D0002BD2D1711C2846FFF729FF1E
:102DC0000028CCD108992846FFF7A0FFC7E7711C5F
:102DD0002846FFF727FFF3E7711C2846FFF743FF5C
:102DE000EEE7084BD3F804350192094A009240F20D
:102DF0002A2206490220FBF7B3F9B0E7302E002063
:102E00002C2E00200010014020460400174604002C
:102E1000344604002DE9F0418AB007460D4690463D
:102E20001E4600240494059406940794089409947B
:102E300001238DF81030F9F797F905901D4C3C1BD4
:102E4000A4101D4B03FB04F4ADF818401B4B1B688A
:102E500013F0010F03D01A4B1B68032B07DC012D65
:102E600019D0022D1FD085B10AB0BDE8F081154BF5
:102E7000D3F8043502960195134A009240F23B22A2
:102E800012490420FBF76CF9E9E704AA31464046F1
:102E9000FAF704FCE8E7711E04AAC9B208F10100C0
:102EA000FDF70CFCE0E7324641463846FFF748FFA5
:102EB000DAE700BF04460020A737BDE9302E002026
:102EC0002C2E002000100140644604001746040028
:102ED00010B500240CB1002010BD0B4A5C2303FB8D
:102EE000042393F844300BB90134F3E75C2000FB72
:102EF0000420801A8010054B03FB00F080B2FFF71E
:102F0000F3F80028F0D0E7E704460020A737BDE932
:102F100000B583B001900B7813B10F4A12786AB1F3
:102F2000B3B90D4B1B78ABB10B4B00221A700B4B96
:102F30001B7843B9002003B05DF804FB064B012267
:102F40001A700020F7E7F5F743F9FFF7FDFDF1E709
:102F50000820F0E70820EEE7582E002084450020E6
:102F600038B504460D46154B58701B78C3B9D5B11A
:102F7000FFF7E4FCF9F7F8F8104B19690144181D44
:102F8000F9F7C8F89CB94FF448610020F5F7FAF852
:102F9000FFF740FDF5F70CF9084B01221A7038BD18
:102FA000F5F716F9E3E70648F9F79CF8EAE74FF476
:102FB000A0714EF66020F5F7E5F8E9E784450020BA
:102FC0008845002070B582B0194B93E8030000904B
:102FD000ADF80410002217496846FEF749FF16486D
:102FE000164B0360F8F7EEFD154808238360154B78
:102FF000036004234360FAF79FFF134B134ADA6020
:10300000134A1A6100241C700CB102B070BD114D3E
:103010005C2606FB04F606F1500002220E49284405
:10302000FCF7FCFD3544002385F844300134EBE720
:10303000F04604002932030060460020092B0300FB
:10304000A8450020C445002084450020612A0300D3
:1030500080969800044600200047040008B50F4BF6
:103060001B78C3B10E4B1B7813B9194613B159B174
:10307000002008BD0B485C2202FB030292F84420AA
:1030800002B101310133F1E70020054BD861012184
:10309000FFF766FFECE70820EBE700BF582E0020A3
:1030A000844500200446002030B583B00C4609B3A7
:1030B000002301930DF1030201A9204605F0D8FD7C
:1030C000019BDBB1019C9DF803300CB1D3B90834EE
:1030D000F8F71CF90546F8F739F902469DF8033070
:1030E000022B14BF0023012329462046FFF7E4FCEE
:1030F00003B030BD7846F5F7E3F9D9E77846F5F740
:10310000DFF9DFE73034E3E70B78012B00D07047BD
:1031100010B50C89104A5C2303FB042393F8443058
:1031200073B15C2303FB042393F842304BB90122B3
:1031300000F10801084B5C2000FB043000F085FA28
:1031400010BD012200F10801034B5C2000FB04309C
:1031500000F0A8FAF4E700BF044600200D4B1B78EE
:103160007BB10D4B1B7873B10B4B5B78012B01D0FE
:103170000020704748B1084BDB69834207D000202C
:1031800070470020704700207047012070470120E1
:10319000704700BF582E002084450020014B18784E
:1031A000704700BF582E002010B582B001900C4629
:1031B000FFF7F4FF207002B010BD00000B4B1B782E
:1031C0007BB9002070470A485C2202FB030292F898
:1031D000442002B101310133002BF4D021B1012090
:1031E000704700231946F7E700207047582E00204B
:1031F0000446002010B5002404B110BD094A5C2328
:1032000003FB042393F844300BB90134F4E7A0B274
:10321000FEF77CFF034A5C2303FB0423002283F8B0
:103220004420F2E70446002070B58EB0044646788C
:103230009A4D5C2000FB06552278052A00F2168183
:10324000DFE812F0A100BD00F30006003E00870099
:10325000934B1B6813F0010F03D0924B1B68032B99
:1032600018DCFFF771FC8D4A5C2303FB0626012363
:1032700086F844302846FFF771FC2846FFF77CFBB0
:103280000023194693B100296FD101210020FFF7D7
:1032900067FE6AE0844BD3F80435844A009240F21A
:1032A000552283490420FAF75BFFDAE77B485C226A
:1032B00002FB030292F8442002B101310133E1E73D
:1032C000774B1B6813F0010F03D0764B1B68032B61
:1032D00022DC724A5C2303FB0626002386F8443076
:1032E000744B1B7813B1744B1B780BB3734B1B7867
:1032F000002B3AD0002319460BB3002935D16F4B70
:1033000019702C2203A80FF0D3FF1B238DF80C306B
:1033100003A8F6F7BDFC28E0634BD3F80435684AF0
:10332000009240F2652262490420FAF719FFD0E7C3
:103330000020614BD8610121FFF712FED6E7574804
:103340005C2202FB030292F8442002B101310133F6
:10335000D2E7534B1B6813F0010F03D0514B1B688E
:10336000032B04DC2846FFF700FC0EB070BD4E4B6B
:10337000D3F80435534A009240F27B224C49042092
:10338000FAF7EEFEEEE7464B1B6813F0010F03D091
:10339000444B1B68032B06DCA389A26821792846CD
:1033A000FFF738FDE1E7404BD3F80435464A009279
:1033B0004FF420723E490420FAF7D2FEECE7384B76
:1033C0001B6813F0010F03D0364B1B68032B0CDC7A
:1033D000237AB3B1394B1B78002BC6D0FFF778FDA9
:1033E0000028C2D1FFF706FFBFE72F4BD3F8043503
:1033F000364A00924FF422722D490420FAF7B0FEAB
:10340000E6E76568B5F1FF3F14BF00250125F8F731
:10341000ABFE02465C2303FB06F650366368294682
:103420001E483044FCF7E2FBD4E71D4B1B6813F049
:10343000010F03D01B4B1B68032B0BDC1E4B002220
:103440001A701C4B1B78002B8FD001211046FFF700
:1034500087FD8AE7144BD3F804351D4A009240F2E9
:10346000A12213490420FAF77BFEE7E70C4B1B6807
:1034700013F0010F3FF479AF0A4B1B68012B7FF764
:1034800074AF094BD3F804350192124A009240F20E
:10349000AB2207490220FAF763FE66E704460020E4
:1034A000302E00202C2E0020001001408446040005
:1034B00017460400582E0020844500206D46002049
:1034C00090460400A0460400AC460400B046040048
:1034D000C0460400D04604001B4B1B7893B300B5D4
:1034E0008DB01A4B1B78A3B90023174A13701A46E4
:1034F000A2B1EBB92C22002101A80FF0D9FE1B23A9
:103500008DF8043001A8F6F7C3FB00200DB05DF87C
:1035100004FBF4F75DFEFFF717FBE5E70C485C21C1
:1035200001FB020191F8441001B101330132DFE7E0
:10353000084B01221A70FFF7CBFC0028E5D1FFF7FA
:1035400059FEE2E708207047582E002084450020ED
:10355000044600206D46002038B500231C461BB1F0
:1035600064B11124204638BD0A4D5C2202FB03528F
:1035700092F8442002B101340133F0E7064BD861E0
:1035800083F82010B0FA80F149090120FFF7E8FC28
:10359000E8E700BF044600208445002008B500206D
:1035A000FFF7DCFD68B1084B1B782BB1012100202F
:1035B000FFF7D6FC002008BDF4F70AFEFFF7C4FAB7
:1035C000F8E70820F7E700BF582E002000B583B0C9
:1035D0008DF807000DF10701034B1868FDF722FB7A
:1035E00003B05DF804FB00BFF84604000023B0F808
:1035F00040209A4205D930F813208A4203D0013383
:10360000F5E7002070470120704710B5044628B147
:10361000002384F84230A4F8403010BD7846F4F717
:103620004FFFF5E738B50C46054640B1012C0AD8E6
:103630002846FFF7EAFF85F84240002038BD78466B
:10364000F4F73EFFF2E70B20F8E72DE9F8430F46C9
:103650009046064610B12FB1002408E07846F4F7F2
:103660002FFFF8E77846F4F72BFFF5E701344445E0
:1036700016D2B6F840501F2D12D84FEA440937F839
:1036800014100029F2D03046FFF7B0FF0028EDD12A
:103690006B1CA6F8403037F8093026F81530E5E7FE
:1036A000BDE8F883F8B50E461746044610B12EB1B2
:1036B000002110E07846F4F703FFF8E77846F4F7C6
:1036C000FFFEF5E7013880B2A4F8400034F810207E
:1036D00024F813200131B9420CD20023B4F8400081
:1036E0009842F7D936F8112034F81350AA42E9D09D
:1036F0000133F3E7F8BD38B50C46054650B1214615
:103700002846FFF773FF95F8423013B180F00100AF
:10371000C0B238BD7846F4F7D3FEF0E738B50546B9
:10372000837803F00303032B21D8DFE803F0020CB6
:10373000131981788B081A4A11681944A960194B2A
:103740001B6800241AE0837803F0FC0101EB93016D
:103750004B00F0E783789B08642101FB03F3EAE761
:1037600083789B0841F2707101FB03F3E3E778462D
:10377000F4F7A6FE0023DEE71C46DB681BB19A685F
:103780008A1A002AF8DA1CB133B1E560EB6038BD63
:10379000EB60044B1D60FAE7E5600023EB60F6E7A1
:1037A000884600209046002010B5714B19688B7830
:1037B00003F003036F4A1278934240F3B5808C689C
:1037C0006D4B1B68E31A6D4C04FB03F4032A26D8E7
:1037D000DFE802F0022A2123684BB4FBF3F4644BC8
:1037E0001B689B7803F00303022B36D0032B57D0C2
:1037F000012B1BD000231846002B40F0AC80F8F7BB
:10380000B3FC04465B4B1B78032B00F28680DFE899
:1038100003F07D8980825A4BDFE75A4BDDE778461B
:10382000F4F74EFE0023D8E7574BD6E703F1CC332D
:10383000A3FB0423DB0803EB8303B4EB430F02D0A9
:1038400000231846D8E7F8F78FFC00F5742000F540
:1038500010700123474A1370CEE7464B1A783AB9E5
:103860004A4BA3FB04135B09642101FB13436BB1B7
:10387000012A02D000231846BEE7454BA3FB0423D0
:10388000DB0803EB8303B4EB430F3CD1F8F76CFC8C
:1038900003463B481844374B02221A700123ABE71A
:1038A000344B1A7842B93B4BA3FB0413DB0941F2BA
:1038B000707101FB134383B1012A04D0022A16D090
:1038C0000023184698E7344BA3FB04139B094FF4DD
:1038D000167101FB1343002BF0D1F8F745FC0346AA
:1038E00028481844234B03221A70012384E72B4BEA
:1038F000A3FB04235B09C3EB0313B4EB830FECD0EE
:103900000023184678E70023184675E71B48204433
:1039100021E01B48FBE71B48F9E77846F4F7D0FDA8
:103920000020F4E71848F2E7F8F71EFC0446104BB5
:103930001B689B7803F00303032B11D8DFE803F027
:1039400002150C0E0D482044094B1B689B78C3F3ED
:103950000103084A137010BD0948F4E70948F2E76B
:103960007846F4F7ADFD0020EDE70748EBE700BF30
:10397000904600208D46002088460020A086010049
:10398000809698000046C32340420F001F85EB51EC
:10399000CDCCCCCCF1197605B5814E1B89888888B1
:1039A00038B5294B1B7873B9284B1B68002B43D0C3
:1039B000FFF7FAFE0146244B1B78002B34D0244835
:1039C000F8F7A8FB3BE0224B5D68F8F7CDFB044617
:1039D000204B1B78032B16D8DFE803F0021A1113D3
:1039E0001D4B601B18441B4B1B789BB94CF250338A
:1039F00098420FD9194A136801331360D4E7184B62
:103A0000EFE7184BEDE77846F4F75AFD0023E8E7B7
:103A1000154BE6E74009154BA3FB00300F4A13682E
:103A200003EBD0101060BFE7074B01221A70084863
:103A30004160F8F731FB02E0034B1B7803B938BD56
:103A40000348F8F74FFBFAE78C4600209046002029
:103A5000704600208D460020A08601008846002088
:103A6000809698000046C32340420F00C55A7C0A46
:103A700030B583B009E07846F4F722FD6368019918
:103A8000284698472046FFF749FE0F4B1C68B4B103
:103A9000A3680E4A1268934204D00C4A12689B1A1B
:103AA000002B0CDA2588E268074B1A60002301938B
:103AB00001A9284602F0F0F80028DFD0DBE7FFF785
:103AC0006FFF03B030BD00BF904600208846002045
:103AD00008B5134B1B78032B1ED8DFE803F0020C4C
:103AE0001116104A1368013313600F4B00221A702D
:103AF000FFF7BEFF08BD0B4A13680A331360F4E7F3
:103B0000084A136864331360EFE7064A136803F545
:103B1000BB5310331360E8E77846F4F7D1FCE4E7D1
:103B20008D460020884600208C46002010B50446B3
:103B3000FFF7F4FD034B1B68A34200D010BDFFF755
:103B40002FFFFBE790460020074A002313605360D5
:103B5000D3601361536105499160054A1360054ABA
:103B60001360054A1370704770460020D13A030075
:103B700088460020904600208C46002070B50E46F6
:103B80001546044650B1F9F7A3F8144B1B68002002
:103B900043B1A34206D01846DB68F9E77846F4F74C
:103BA0008FFCF0E7A17866F3010165F38701A1704E
:103BB00013B138B1DA68C26045B903B150B1F9F751
:103BC000CBF870BDD968054A1160F5E72046FFF7CC
:103BD000ADFFF4E7FFF7E4FEF1E700BF90460020F9
:103BE00000234FF6FF70052B22D830B404E01846AE
:103BF00001339BB2052B19D803EBC30291000D4A88
:103C00000A4492F83920002AF2D04FF6FF7290420F
:103C1000EDD0084A1144096B00EBC005AC0022440A
:103C2000126B8A1A002AE3DA1846E1E730BC7047C3
:103C3000704700BF9446002070B5044600EBC002F8
:103C40001A4B03EB820393F8393033B3174BB3F8B5
:103C5000F03033B3154A04EBC40302EB83030021B5
:103C600083F83910B2F8F030013B9BB2A2F8F03083
:103C700023B913464FF6FF72A3F8F2200B4DE6006E
:103C800004EBC40305EB8303986AFDF762FE34443A
:103C900005EB84050023AB6270BD7846F4F710FC99
:103CA000D4E77846F4F70CFCD4E700BF9446002034
:103CB000F8B506464E4BB3F8F0301BB106F57A77EF
:103CC000002421E07846F4F7FBFBF7E72046FFF7F6
:103CD000B3FF17E0002861D105EBC502444B03EBAD
:103CE000820292F83830013BDBB282F83830002B88
:103CF00058D03F4A05EBC50302EB8303596B1A6B9F
:103D0000114419630134A4B2052C4FD8254604EBA5
:103D1000C403374A02EB830393F83930002BF1D008
:103D200004EBC40302EB83031B6BDB1B002BE9DA00
:103D3000104604EBC4018900183104EBC40200EB07
:103D40008202938D926A0144204601F011F91028F5
:103D5000C0D801A353F820F0D93C0300D53C0300A0
:103D6000D53C0300D53C0300D93C0300CD3C030007
:103D7000D53C0300CD3C0300D93C0300CD3C0300FF
:103D8000D53C0300D53C0300D53C0300D53C0300E3
:103D9000D53C0300D93C0300CD3C03007846F4F742
:103DA0008FFB99E72046FFF747FFABE7FFF718FFC8
:103DB0000F4BA3F8F200B3F8F030A3B105280CD8EC
:103DC0000B4BB3F8F22002EBC20203EB82031B6B36
:103DD0009A1B06D4064BDA60F8BD7846F4F770FB00
:103DE000EEE7F21AF6E7024B0022DA60F4E700BFD2
:103DF000944600202DE9F843044688461646994625
:103E0000F8F7B2F98646154F04EBC40507EB8505B4
:103E100005F1180C96E80F008CE80F00C5F8289003
:103E2000BDF82030AB8598F80030C3F3020385F865
:103E3000383098F80000C3084CF2503003FB000003
:103E4000686370442863012385F83930B7F8F0308F
:103E50000133A7F8F030BDE8F88300BF9446002096
:103E600010B50446FFF7BCFE0E4BB3F8F2308342A8
:103E700011D00C4BA3F8F2004FF6FF7398420DD00F
:103E80000848B0F8F23003EBC30300EB8303196B6F
:103E9000F8F740F910BDA342FCD1EAE77846F4F701
:103EA0000FFBEDE79446002010B5064CF2220021EE
:103EB00020460FF0FDF9044BA3604FF6FF73A4F802
:103EC000F23010BD94460020B13C03002DE9F041D2
:103ED00082B004460D4616461F46BDF820800528D0
:103EE0001FD815B32EB32B7813F0070F25D047B387
:103EF000B8F1000F29D004EBC403184A02EB830386
:103F000093F839302BBBCDF800803B46324629462A
:103F10002046FFF76FFF2046FFF7A2FF02B0BDE883
:103F2000F0817846F4F7CCFADBE77846F4F7C8FA84
:103F3000D8E77846F4F7C4FAD5E77846F4F7C0FA3C
:103F4000D5E77846F4F7BCFAD2E77846F4F7B8FA42
:103F5000D1E72046FFF770FED5E700BF944600206A
:103F60004FF6FF7399420CD00C4B00EB400203EB71
:103F70004202D27800EB400003EB4000531CC370B8
:103F80007047064B00EB400203EB4202927800EBD5
:103F9000400003EB4000531C83707047B84700207B
:103FA00030B482B001911B4B00EB400103EB4101A7
:103FB000897800EB400403EB4403DB78D94201D05D
:103FC000002303E0002021E001339BB2052B1CD825
:103FD000C3EBC301104C04EBC10189898142F3D1C9
:103FE000C3EBC30104EBC1014C88BDF806108C4241
:103FF000EAD1C3EBC305084931F83540BDF80410D8
:104000008C42E1D11380012000E0002002B030BCDE
:10401000704700BFB8470020DC47002082B0002373
:104020000093027802F0C003802B1ED012D80BB18F
:10403000402B05D1ADF800204FF6FF73ADF80230EC
:10404000009B00209AB262F30F001B0C63F31F4029
:1040500002B07047C02BF3D1ADF8002043788278CE
:1040600043EA0223ADF80230EAE7437843EA02224A
:10407000ADF800204FF6FF73ADF80230E0E782B0F4
:1040800001904FF6FF72B2EB104F08D0030CBDF851
:1040900004200A704B701B0A8B7002B07047BDF889
:1040A000043013F47F4F03D01A0A0A704B70F4E700
:1040B0000B70F2E782B001904FF6FF73B3EB104F35
:1040C00018D1BDF8040010F47F4F07D000F4404031
:1040D000B0F5004F14BF0020012014E020F07F0352
:1040E0009BB22BB97F2801D001200CE000200AE010
:1040F000002008E0BDF8040020F03F0080B2C02896
:1041000014BF0020012002B0704770B506460D466E
:104110000024AC4207D256F83400FFF7CBFF034629
:1041200010B10134F5E70123184670BD30B482B0F8
:104130000191002300E00133818D994210D9816AF9
:1041400001EBC30531F83340BDF804108C42F2D1C5
:104150006C88BDF806108C42EDD11360012000E0A0
:10416000002002B030BC7047C289052A0FD80A4B24
:1041700003EBC20304334A0953F8223001F01F0154
:1041800023FA01F111F0010F03D001207047002044
:1041900070470020704700BF38490020000CA0F590
:1041A000405080B2052821D8114B1B7813F0040F22
:1041B0000CD00020704751F82320D44303EB400576
:1041C0000C4A02EB85025460013302E030B482B045
:1041D0000023002BEFD0074A12F8303003F0F90328
:1041E00002F83030002002B030BC70470520704724
:1041F0003449002038490020000CA0F5805080B2DE
:10420000022817D80D4B1B7813F0040F14D110B4EB
:1042100083B00C880A4B00EB400203EB420123F809
:1042200012404A7902F0F9034B71002003B05DF8A7
:10423000044B704705207047002070473449002028
:10424000B847002010B582B001900C46000C012840
:1042500006D1032363800623A380238002B010BD10
:104260007846F4F72DF9F4E710B582B001900C46CA
:10427000000C01280FD16388032B10D1A388062BD3
:1042800010D12388062B0FD1084A137843F001037D
:104290001370002004E07846F4F712F9EBE70B20E6
:1042A00002B010BD0B20FBE70B20F9E734490020DA
:1042B00030B583B001900D46040CA4F54054A4B26F
:1042C000052C03D800232BB103B030BD7846F4F79A
:1042D000F7F8F7E703EB4401044A02EB8102526866
:1042E000D24345F823200133EDE700BF38490020D1
:1042F00030B583B001900D46040CA4F58054A4B2EF
:10430000022C07D804EB4404044B33F814302B8000
:1043100003B030BD7846F4F7D3F8F3E7B847002090
:10432000F8B504460D4616461F4653B12B89B3F522
:10433000BE7F0AD309233B603868B0FA80F0400999
:10434000F8BD7846F4F7BCF8F0E7052C0BD8C4EBC1
:10435000C4031C4A02EBC30393F8343013F0010F7B
:104360000ED1002300E000233BB1C4EBC403154A87
:1043700002EBC3039B89022B04D905233B60DBE7D7
:104380000123F1E736B12868FFF794FEB8B9072397
:104390003B60D1E7C4EBC4030A4A02EBC3039A882B
:1043A0004FF6FF739A42F2D0C4EBC404054B03EB03
:1043B000C404E2884FF6FF739A42E4D1E7E7002392
:1043C0003B60B9E7DC470020F8B50E4617461D46AE
:1043D0000C4603281AD8DFE800F00502101401EBA0
:1043E00081004400BDF81800B4FBF0F0092816D88D
:1043F00000233B7076B92B70F8BD642000FB01F4FC
:10440000F0E741F2707000FB01F4EBE77846F4F757
:1044100057F8E7E7012838BF01202870ECE7632848
:1044200008D801233B7003F1CC33A3FB0030C00854
:104430002870E1E741F26F73984207D802233B707E
:10444000064BA3FB003040092870D5E703233B70DF
:10445000034BA3FB0030C0092870CDE71F85EB514B
:10446000F119760530B583B001900D46040CA4F522
:104470000054A4B2052C11D80A4AC4EBC40402EBC0
:10448000C40352F834205C689868D9682A606C606C
:10449000A860E9601A692A6103B030BD7846F4F774
:1044A0000FF8E9E7DC470020000CA0F5005080B2CF
:1044B000052826D8144B1B7813F0040F01D00020D8
:1044C0007047F0B482B0114BC0EBC00503EBC502DE
:1044D0000C68D1F804C08F68CE6843F83540C2F844
:1044E00004C09760D6600C69146192F8342003EB25
:1044F000C50002F0F90380F83430002002B0F0BCAF
:1045000070470520704700BF34490020DC47002079
:1045100038B50446C0884FF6FF7398420AD1E28945
:10452000062A40D0214B03EBC2031D1D5B683BB93B
:10453000082421E003F01EFB03460028EFD033E0FF
:104540005A4213401A4A02FB03F3DB0E194AD45CA9
:1045500012E055F823401CB90133FAD008240BE0CF
:1045600062421440124A02FB04F4E40E114A145D44
:1045700004EB431400E00824082C12D0A0B203F08E
:104580008DFB034680B90134072CF4D8630955F834
:10459000232004F01F04012101FA04F464421440B2
:1045A000D9E7002300E00023184638BD3849002031
:1045B00031B57C0720480400104B1B7813F0040F22
:1045C00007D10F4A12F8303043F0040302F83030BC
:1045D000704700B583B00B4B1B68019300F540504A
:1045E000ADF806000198FCF74EFB10B903B05DF87A
:1045F00004FB7846F3F764FFF8E700BF3449002076
:1046000038490020F447040010B582B01E4A1378E0
:1046100003F0FC036FF3820313701C4B1868FCF764
:1046200032FB1B4B1B6801930024052C09D804F5B1
:104630004053ADF806300198FCF725FB0134A4B2D5
:10464000F3E7134B5B6801930024022C09D804F5AF
:104650008053ADF806300198FCF715FB0134A4B285
:10466000F3E70B4B9B6801930024052C09D804F554
:104670000053ADF806300198FCF705FB0134A4B2F5
:10468000F3E702B010BD00BF344900200C4804001D
:10469000F4470400184B1B7813F0040F12D000B538
:1046A00083B0164B1B68009300F54053ADF8023001
:1046B00000237BB101A90098FCF7B4FAC0B903B09C
:1046C0005DF804FB0E4A12F8303043F0020302F8A2
:1046D0003030704703EB4001094A02EB8102526817
:1046E000D24302A901EB830141F8042C0133E0E736
:1046F0007846F3F7E5FEE2E734490020F44704008A
:1047000038490020134B1B7813F0040F09D1124BCA
:1047100000EB400203EB4202537943F00203537172
:10472000704700B583B00D4B5B68019300F5805373
:10473000ADF8063000EB4000074901EB400101985D
:10474000FCF770FA10B903B05DF804FB7846F3F794
:10475000B7FEF8E734490020B8470020F4470400CA
:10476000144B1B7813F0040F0BD1134BC0EBC0029A
:1047700003EBC20292F8343043F0020382F8343083
:10478000704700B583B00D4B9B68019300F5005353
:10479000ADF80630C0EBC000074901EBC00101983D
:1047A000FCF740FA10B903B05DF804FB7846F3F764
:1047B00087FEF8E734490020DC470020F447040076
:1047C00038B500240BE02046FFF7F6FE2B4A12F81E
:1047D000353003F0F90302F835300134A4B2052C6A
:1047E0000DD82546254B13F8343013F0040FEAD1C9
:1047F00013F0020FEAD02046FFF74CFFE6E7002453
:104800000DE02046FFF77EFF1D4A05EB45014B00FA
:1048100013445A7922F002025A710134A4B2022CD4
:104820000AD8254604EB44035A00154B13445B7920
:1048300013F0020FE8D0E4E700240FE02046FFF772
:104840008FFF104AC5EBC501CB00134493F8342009
:1048500022F0020283F834200134A4B2052C0BD8D4
:104860002546C4EBC403DA00064B134493F83430F6
:1048700013F0020FE5D0E1E738BD00BF3849002052
:10488000B8470020DC47002000B585B0084B5969C7
:1048900018690190ADF8081001A9D868FCF7C2F9B1
:1048A00010B905B05DF804FB7846F3F709FEF8E7A8
:1048B000F447040030B583B004460D460378012B5D
:1048C00007D042884FF6FB739A420CD8002003B001
:1048D00030BD01A803F03AF96388BDF804209B1AA3
:1048E0002B800120F3E700230B800120EFE700007D
:1048F00010B54FF4A872002113480EF0D9FC134BE9
:1049000000241C605C609C60DC601C8230222146BC
:104910000F480EF0CDFC2146052914D80A4AC1EBF8
:10492000C100C30013444FF6FF70D880988006245E
:10493000DC819881C1EBC100C3001A440123938438
:10494000194489B2E8E710BDDC470020B8470020D1
:10495000384900202DE9F04FD3B00546884614466B
:104960001F46BDF8709151A803F0F0F8C5EBC502E1
:10497000644B03EBC2039E89BDF846319E4280F032
:10498000BA80BDF844311E44B6B23CB3B4F81EA0A0
:10499000B4F824B04FAB2169E06883E803000CB1A0
:1049A000247F3CB1C5EBC505564800EBC5056C7CC2
:1049B000FF2C28D057B3B9F1000F2BD024220021AF
:1049C00046A80EF075FC4CAA5146584604F06EF805
:1049D000054618B3284653B0BDE8F08FC5EBC503B4
:1049E000484A02EBC303B3F804A04FA9D88803F0E8
:1049F00099F9002840F08180BDF83E31002B7ED02F
:104A00004FF6FF7BCBE7404B1C78D3E77846F3F7B4
:104A100057FDD0E77846F3F753FDCFE746AB509903
:104A20004F9883E80300ADF820618DF8224198F893
:104A30000A208DF8232198F80B208DF824214A971D
:104A4000ADF82C91D8F80C204E9200211846F7F7BB
:104A5000B5F805460028BDD12C4B1B6813F4005F48
:104A600003D02B4B1B68042B20DC284B1B6813F452
:104A7000005FAFD0264B1B68042BABDDB9F1800F74
:104A800028BF4FF080092B464B451ED2FA5C2149C6
:104A90000C6810095900265C05A800F8136002F0A4
:104AA0000F020131A25C42540133EDE71A4BD3F8F7
:104AB0000435B8F800200192184A009240F2A91279
:104AC00017490520F9F74CFBCFE705AA002302F8A8
:104AD000193003F1804303F58833D3F8043502928B
:104AE000104A0192104A00924FF4D5720C490520E9
:104AF000F9F736FB6EE710256CE705256AE7102508
:104B000068E700BFDC470020592E0020302E00202F
:104B10002C2E0020342E0020001001406447040099
:104B20005947040078470400DC3A04002DE9F047B7
:104B300084B0064690461F460C4691B303AB4246EE
:104B400021463046FFF7ECFB78B3236802934FF61B
:104B5000FF72B2EB134F2CD04FF0030A2589554456
:104B6000ADB22846FCF7F1FE814688B301462068C5
:104B7000FFF785FA2289616809EB0A000EF06FFBE6
:104B800000954B46424621463046FFF7E3FE039030
:104B9000C8B9C7B10C9BB3B1C7F800900C9B1D807E
:104BA00004E07846F3F78CFCC8E7039804B0BDE84E
:104BB000F087BDF80830FF2B02D94FF0020ACDE78D
:104BC0004FF0010ACAE74846FCF7C3FE0398EDE739
:104BD0000420EBE738B5224B1B7813F0020F3BD1D2
:104BE00013F0010F27D0002401E00134A4B2052CFA
:104BF00021D8C4EBC4031B4A02EBC3039A894FF6C6
:104C0000FF739A42F1D0C4EBC400164B03EBC00013
:104C1000FFF77EFC10BB134BC4EBC40203EBC202D4
:104C2000927CC4EBC40503EBC50502F0FC036FF3F3
:104C30008703AB74D9E70A4C237843F0040323704D
:104C4000FFF7BEFD237813F0010F01D0002038BD1F
:104C5000FFF71AFE0520FAE70B20F8E70B20F6E72E
:104C600034490020DC4700202DE9F04F8DB080460C
:104C700000F11404204604F0B1F810B90DB0BDE8FD
:104C8000F08F4FF6FF73ADF82A300AA92046FFF7E0
:104C900011FE099008B100243DE00DF12A012046E3
:104CA00003F0EAF80028F6D07846F3F709FCF2E7BB
:104CB000BDF82A103046FFF757FA81463EE0404BD8
:104CC000D3F804353F4AC4EBC40102EBC10032F80B
:104CD000312041880696CDF814B0CDF81090CDF86B
:104CE0000CA002910192384A009240F21A423749D0
:104CF0000720F9F735FA49E0C4EBC403314A02EB67
:104D0000C3039A6A0B9902EBC10255681A6B4146BC
:104D1000A0B2A8470134052CB0DCC4EBC406294B73
:104D200003EBC606099B002BC2D0B089BDF82890C2
:104D3000814514BF4FF000094FF00109214AC4EB2F
:104D4000C40302EBC30393F8347007F0010AC4EB09
:104D5000C403DB0008331344B8F81E20510953F88C
:104D6000215002F01F02D54005F0010B0BAAD8F824
:104D700000103046FFF7DAF90646154B1B6813F4AE
:104D8000005F03D0134B1B68062B98DCBAF1000FB1
:104D9000C0D0B9F1000FBDD0BBF1000FBAD0002ECA
:104DA000B8D098F81430012BA6D1C4EBC403054A3F
:104DB00002EBC3031A6B4146A0B201F06BFA9BE70A
:104DC00000100140DC4700208047040059470400E0
:104DD000302E00202C2E00202DE9F041D0B00446CA
:104DE000002868D02068FFF719F94F9085B27F2D11
:104DF00000F095804B4B1B6813F4005F03D04A4BC7
:104E00001B68042B5BDCE06903F0B9F88046A069FD
:104E100003F09EF84F9B459326684FF6FF72B2EB66
:104E2000134F58D003231E444696A3884F9A0492EA
:104E30004FF6FF71B1EB124F53D003229B1A9FB272
:104E4000ADF81C71237A8DF820316389ADF82231D9
:104E5000E3684993237C8DF82831638AADF82A31C1
:104E600063694B9394F820308DF83031ADF832817E
:104E7000636A4D93ADF838012A4B1B6813F4005F49
:104E80004AD0294B1B68042B46DD802F28BF802782
:104E90000023BB422BD2F25C24490C681009590054
:104EA000255C04A800F8135002F00F020131A25C47
:104EB00042540133EDE77846F3F702FB92E71C4BCF
:104EC000D3F8043501951B4A0092FD221A490520AA
:104ED000F9F746F997E7FF2D01D90223A3E701234C
:104EE000A1E7FF2D01D90222A8E70122A6E704AA23
:104EF000002302F8173003F1804303F58833D3F819
:104F0000043502920D4A01920D4A00924FF48A72C2
:104F100009490520F9F724F945A8FFF7A5FE50B087
:104F2000BDE8F081302E00202C2E0020342E0020F1
:104F300000100140D847040059470400EC47040022
:104F4000DC3A040008B5037813B1142B04D008BD73
:104F50000430FFF741FFFAE7C388022BF7D1034A79
:104F6000137843F002031370F1E700BF34490020C7
:104F7000B1B1F0B585B0064614461D460F468AB15C
:104F800093B103AB0022FFF7CBF908B903980CE00B
:104F900000952346002239463046FFF7DBFC04E04B
:104FA0000E2070470E2000E00E2005B0F0BD08B5C1
:104FB000FFF79EFC01F0D2F9FFF726FB08BD0000C9
:104FC00008B5FFF795FC0948094B0360F6F7FAFDB1
:104FD00001F0B4F9FEF7B8FDFEF766FF054A137855
:104FE00003F0FC036FF38203137008BDD047002069
:104FF000454F030034490020002800F0B08070B510
:105000000C460546002900F0AC80C3681BB18368DC
:10501000002B00F0A8804FF6FF732380EB681BB9CC
:10502000AB68002B40F0A180AB88022B00F29F8080
:1050300003F0FAFE002841D122462968A888FEF72D
:10504000AFFF50B12388C3EBC3034C4A02EBC30349
:1050500093F8343013F0010F30D1E968A868FFF7F6
:1050600054F8002800F0858020884FF6FF7398429E
:1050700066D022882969414BC2EBC20203EBC2020F
:1050800011632288A968C2EBC20203EBC2029162DB
:10509000E9682288C2EBC20203EBC2029185228832
:1050A0006969C2EBC20203EBC20291612288C2EBC2
:1050B000C20103EBC1039A82002059E00F2057E0A0
:1050C00098B220804FF6FF73984254D02B4EC0EB1D
:1050D000C00006EBC0001A46C3802388C3EBC3039D
:1050E00006EBC3039A802388A988C3EBC30306EBAE
:1050F000C303998123886988C3EBC30306EBC30309
:10510000598023882988C3EBC30326F833102388EA
:10511000C3EBC30306EBC3035A742988A888FEF7C0
:105120001FFF2388C3EBC30206EBC20292F83430A0
:1051300043F0010382F834302088FFF711FB98E731
:105140000023052BBDD8C3EBC3020C4901EBC202FF
:1051500092F8342012F0010FB2D00133F1E70E20A3
:1051600070470E2004E00E2002E0092000E0052038
:1051700070BD0720FCE70420FAE700BFDC470020F1
:1051800070B584B051B304460D460022ADF80E2030
:105190000DF10E03009302ABFFF7C8FC0646B0B951
:1051A000C4EBC4030E4A02EBC303DB7C13F0070F0E
:1051B00010D0C4EBC401C90010311144BDF80E3049
:1051C0000093029B2A4603312046FEF77FFE3046BD
:1051D00004B070BD0298FCF7BCFBF8E70E26F6E7BA
:1051E000DC47002059B110B582B014460A4644B1DC
:1051F000002300932146FFF799FC02B010BD0E205A
:1052000070470E20F9E7000008B505280BD8C0EB61
:10521000C003144A02EBC30393F8343013F0010FB8
:105220000FD1002300E00023BBB1072917D8C0EB42
:10523000C0030C4A02EBC303DB888B4203D100207E
:1052400008BD0123F0E7C0EBC002064B03EBC2032D
:10525000D980FFF785FA0020F2E70520F0E7072064
:10526000EEE700BFDC470020F1B110B40C46052882
:105270000BD8C0EBC0030E4A02EBC30393F83430E3
:1052800013F0010F0ED1002300E0002373B1C0EB37
:10529000C000074B03EBC000C388238000205DF8EB
:1052A000044B70470123F1E70E2070470520F6E715
:1052B000DC47002005282AD808B5C0EBC003174AF0
:1052C00002EBC30393F8343013F0010F21D0C0EB8D
:1052D000C00302EBC303DB7C03F0070301F007020A
:1052E00093420AD1C0EBC0030C4A02EBC303DA7C41
:1052F000C1F3C403B3EBD20F0DD0C0EBC002074B18
:1053000003EBC203D974FFF72BFA002008BD052078
:1053100070470520FAE70020F8E700BFDC470020CF
:10532000B1B110B4052815D8C0EBC0030B4A02EB8D
:10533000C30393F8343013F0010F0DD0C0EBC0005D
:1053400002EBC000C37C0B7000205DF8044B70477B
:105350000E2070470520F8E70520F6E7DC4700201F
:1053600081B310B40C467AB305280BD8C0EBC00348
:10537000184901EBC30393F8343013F0010F1FD128
:10538000002300E000230BB3C0EBC003114901EB85
:10539000C3039B69E3B10B46C0EBC00103EBC10142
:1053A000897CC1F301012170C0EBC00003EBC00098
:1053B000837CC3F38503137000205DF8044B7047B2
:1053C0000123E0E70E2070470E20F6E70520F4E702
:1053D0000620F2E7DC47002070B584B005460DF1E9
:1053E0000D020DF10F01FFF7BBFFE8B9104EEC0005
:1053F000C5EBC50306EBC3039B8C009303AB0DF118
:105400000E029DF80D109DF80F00FEF7DDFF601BEA
:10541000C000103030449DF80C209DF80E10043070
:10542000FEF7ACFB04B070BD7846F3F749F8DDE752
:10543000DC47002005281BD808B5C0EBC003104A84
:1054400002EBC30393F8343013F0010F12D0C0EB1A
:10545000C00302EBC3039B6973B179B1C0EBC00217
:10546000074B03EBC2039984FFF7B6FF002008BD8A
:10547000052070470520FAE70620F8E70720F6E741
:10548000DC47002005283DD810B50446C0EBC0031A
:10549000224800EBC30393F8343013F0010F33D0EC
:1054A000C4EBC40300EBC3039B697BB33F2A2FD833
:1054B00003292FD8C4EBC40300EBC3039B7CB2EBDE
:1054C000930F08D1C4EBC40300EBC3039B7C03F030
:1054D00003038B4220D01148C4EBC40300EBC30389
:1054E0009B7C62F38703C4EBC40200EBC20061F350
:1054F000010383742046FFF76FFF2046FFF730F962
:10550000002010BD052070470520FAE70620F8E7C7
:105510000720F6E70720F4E70020F2E7DC47002049
:1055200010B5044603F080FC002839D1052C0BD8B7
:10553000C4EBC4031D4A02EBC30393F8343013F0E9
:10554000010F16D1002300E000235BB3C4EBC403BA
:10555000164A02EBC303DB89062B25D10023052B5A
:105560001CD8134A12F8332012F0010F03D0013374
:10557000F5E70123E9E742F001020D4901F8332084
:1055800098B2C4EBC401094A02EBC102D081FFF713
:1055900081F82046FFF7E4F8002006E0042004E04C
:1055A0000F2002E0052000E0002010BDDC470020B5
:1055B0003849002070B505280BD8C0EBC0031F4A3E
:1055C00002EBC30393F8343013F0010F1ED1002314
:1055D00000E000235BB3C0EBC003184A02EBC30337
:1055E000DA89062A25D0072925D8154B03EBC203F3
:1055F00004334D0953F8252001F01F0122FA01F46C
:1056000014F0010404D00024204670BD0123E1E71A
:10561000012606FA01F10A4343F82520C0EBC00039
:10562000064B03EBC000C089FFF734F8ECE7052414
:10563000EAE70624E8E70724E6E700BFDC470020A6
:105640003849002038B5034605280BD8C0EBC00206
:105650001E4800EBC20292F8342012F0010F1CD158
:10566000002200E000225AB3C3EBC302174800EB4C
:10567000C202D089062825D0072925D8144A02EB72
:10568000C00204324D0952F8254001F01F0124FAEE
:1056900001F010F0010002D138BD0122E3E7012042
:1056A00000FA01F124EA010442F82540C3EBC303E8
:1056B000064A02EBC303D889FEF7ECFF0020EBE7B4
:1056C0000520E9E70620E7E70720E5E7DC470020BB
:1056D0003849002000293FD02DE9F8431546884677
:1056E000002A3BD005280BD8C0EBC0031F4A02EBB1
:1056F000C30393F8343013F0010F11D1002300E0FD
:1057000000236BB30746C0EBC000184B03EBC0008F
:10571000C389062B26D0B5F8009000242C8002E027
:105720000123EEE70134072C13D8C7EBC700A6B25C
:1057300031460E4B03EBC000FEF716FD0028F1D0FA
:105740002B88994510D928F813602B8801332B80BA
:10575000E8E70020BDE8F8830E2070470E20F9E747
:105760000520F7E70620F5E70920F3E7DC470020EE
:1057700070B505280BD8C0EBC003184A02EBC30371
:1057800093F8343013F0010F18D1002300E0002308
:10579000FBB108291FD8C0EBC003DB0008330F4A58
:1057A00013444D0953F8252001F01F0122FA01F49A
:1057B00014F0010404D00024204670BD0123E7E763
:1057C000012606FA01F10A4343F82520FEF7C8FF37
:1057D000F2E70524F0E70724EEE700BFDC470020EE
:1057E00038B5034605280BD8C0EBC002184800EBBB
:1057F000C20292F8342012F0010F16D1002200E00C
:10580000002202B3082920D8C3EBC302D200083219
:105810000F4802444D0952F8254001F01F0124FAB7
:1058200001F010F0010002D138BD0122E9E70120AA
:1058300000FA01F124EA010442F825401846FEF777
:105840008FFF0020F0E70520EEE70720ECE700BF20
:10585000DC470020B1B370B40D46AAB305280BD8BD
:10586000C0EBC0031B4901EBC30393F8343013F0C2
:10587000010F07D1002300E000233BB3168800236B
:10588000138002E00123F8E70133072B17D8C0EBA0
:10589000C001C90008310F4C21445C0951F82410A3
:1058A00003F01F04E14011F0010FEDD011888E428A
:1058B0000ED925F81130118801311180E4E700205C
:1058C00070BC70470E2070470E20F9E70520F7E7FF
:1058D0000920F5E7DC47002008B505280BD8C0EB08
:1058E000C003144A02EBC30393F8343013F0010FE2
:1058F0000FD1002300E00023BBB1082917D8C0EB6B
:10590000C0030C4A02EBC3039B888B4203D10020E7
:1059100008BD0123F0E7C0EBC002064B03EBC20356
:105920009980FEF71DFF0020F2E70520F0E7072031
:10593000EEE700BFDC470020F1B110B40C460528AB
:105940000BD8C0EBC0030E4A02EBC30393F834300C
:1059500013F0010F0ED1002300E0002373B1C0EB60
:10596000C000074B03EBC0008388238000205DF854
:10597000044B70470123F1E70E2070470520F6E73E
:10598000DC47002010F0800F05D1012805D0044B22
:10599000187000207047072070470720704700BF2D
:1059A000592E0020014B1878704700BF592E002057
:1059B00008B505280BD8C0EBC003124A02EBC3039D
:1059C00093F8343013F0010F15D1002300E00023C9
:1059D0009BB1C0EBC0030B4A02EBC3031B7C8B42A1
:1059E0000DD0C0EBC002074B03EBC2031974FEF7E6
:1059F000B7FE002008BD0123EAE70520FAE70020F2
:105A0000F8E700BFDC470020F1B110B40C460528D0
:105A10000BD8C0EBC0030E4A02EBC30393F834303B
:105A200013F0010F0ED1002300E0002373B1C0EB8F
:105A3000C000074B03EBC000037C237000205DF81F
:105A4000044B70470123F1E70E2070470520F6E76D
:105A5000DC47002008B505280BD8C0EBC003154A69
:105A600002EBC30393F8343013F0010F11D100237C
:105A700000E00023CBB181F080037E2B17D9C0EB6F
:105A8000C0030C4A02EBC3035B7C8B4203D10020B2
:105A900008BD0123EEE7C0EBC002064B03EBC203D7
:105AA0005974FEF75DFE0020F2E70520F0E70720BD
:105AB000EEE700BFDC470020F1B110B40C4605282A
:105AC0000BD8C0EBC0030E4A02EBC30393F834308B
:105AD00013F0010F0ED1002300E0002373B1C0EBDF
:105AE000C000074B03EBC000437C237000205DF82F
:105AF000044B70470123F1E70E2070470520F6E7BD
:105B0000DC47002049B1022809D800EB4000054AD3
:105B100032F810200A80002070470E2070470520C0
:105B2000704700BFB847002051B102280AD800EBE7
:105B30004000054B03EB400083780B70002070475A
:105B40000E20704705207047B847002051B1022849
:105B50000AD800EB4000054B03EB4000C3780B7004
:105B6000002070470E20704705207047B84700207E
:105B70000A46F9B105280BD8C0EBC0030F4901EB69
:105B8000C30393F8343013F0010F11D1002300E068
:105B900000238BB10949C0EBC00301EBC3035B8851
:105BA0005380C0EBC00031F83030138000207047C4
:105BB0000123EEE70E20704705207047DC470020E8
:105BC00030B482B0019162B3154602282BD84FF64B
:105BD000FF731380002301E001339BB2052B1CD817
:105BE000C3EBC302114901EBC20292898242F3D195
:105BF000C3EBC30201EBC2025188BDF806209142FB
:105C0000EAD1C3EBC304094A32F83410BDF80420CA
:105C10009142E1D12B80002000E0052002B030BC91
:105C200070470E20FAE70520F8E700BFDC470020A8
:105C300041B3F0B40F463AB3022827D816880023A0
:105C4000138000E00133052B19D81588B5421FD207
:105C5000C3EBC3010F4C04EBC10191F8341011F0F8
:105C6000010FEFD0C3EBC30104EBC101898981426D
:105C7000E8D127F81530118801311180E2E70020C2
:105C8000F0BC70470E2070470E20F9E70520F7E7BB
:105C90000920F5E7DC470020F1B110B40C460528D7
:105CA0000BD8C0EBC0030E4A02EBC30393F83430A9
:105CB00013F0010F0ED1002300E0002373B1C0EBFD
:105CC000C000074B03EBC000036B236000205DF8AE
:105CD000044B70470123F1E70E2070470520F6E7DB
:105CE000DC4700202DE9F041044605280BD8C0EB25
:105CF000C003224A02EBC30393F8343013F0010FC0
:105D000038D1002300E00023B3B31C4F4FEAC4088E
:105D1000C4EBC400C00010303844002211460430E7
:105D2000FDF72CFF204600F055FBA8EB040507EB20
:105D3000C505E88801F068FF4FF6FF73EB80AB8084
:105D4000EA7C02F0F8026FF3C702EA7400266E7470
:105D5000AA7C02F0030266F30102AA74AB7D03F091
:105D6000030366F30103AB752046FEF7F9FC3046EA
:105D7000BDE8F0810123C7E70520F9E7DC470020F3
:105D800008281AD830B583B00546002404E0204620
:105D9000FFF7A8FF0134A4B2052C0BD80DF10601C2
:105DA0002046FFF7C9FD0028F4D1BDF80630AB420C
:105DB000F0D1ECE7002003B030BD072070470000B1
:105DC00010B44FF6FF730B80002300E00133052B66
:105DD0000ED80C4C2C2202FB034292F84020002AE1
:105DE000F4D02C2202FB0342128B8242EED10B80B4
:105DF00008884FF6FF73C01A18BF01205DF8044BE6
:105E0000704700BF704900200B4BB3F8203173B1CD
:105E1000094AB2F822312C2101FB03239B6B01FBC1
:105E20000020826B9B1A002B03DB012070470120AE
:105E300070470020704700BF7049002010B4124B1B
:105E40002C2202FB0030836B104C1C4400234FF6C5
:105E5000FF7001E001339BB2052B11D80A492C22B7
:105E600002FB031292F84020002AF3D02C2202FBFE
:105E70000312926B111B0029ECDA18461446E9E76D
:105E80005DF8044B704700BF704900200087930302
:105E9000F8B507460D4616464FF6FF730B800423F0
:105EA0001360F6F715FF164BB3F82031062B25D9F2
:105EB000F6F752FF3068B0FA80F04009F8BD10499B
:105EC0002C2202FB0312118B3A88914213D001332A
:105ED000052BEDD80A4A2C2404FB032494F8402017
:105EE000002AECD129884FF6FF729142EFD10022AF
:105EF00032602B80EBE708233360D9E70023E7E724
:105F00007049002010B50446204A2C2303FB0023CF
:105F100093F84030B3B11D4BB3F82031B3B11B4AF5
:105F20002C2303FB0423002183F84010B2F8203116
:105F3000013B9BB2A2F8203123B3B2F82231A34235
:105F400008D010BD7846F2F7BBFAE4E77846F2F7DE
:105F5000B7FAE4E72046FFF771FF0C4BA3F82201E4
:105F60004FF6FF73984209D00848B0F822312C222E
:105F700002FB0303996BF6F7CDF8E2E77846F2F7F8
:105F80009FFAF1E70148F6F7ADF8DAE7704900202B
:105F9000F0B585B00546684BB3F8203143B105F53F
:105FA0007A76654B4FF6FF72A3F8222100248EE02B
:105FB0007846F2F785FAF2E72C2303FB042300214D
:105FC00083F84010B2F820110139A2F8201103A97A
:105FD000188BFFF761FE48B9574A2C2303FB0423B3
:105FE0005F6B01220399188BB8476FE07846F2F790
:105FF00067FAF1E7504BA3F822412C2202FB04F28E
:1060000002F11801194413440431188BFFF7B8F852
:10601000074640B1494B1B6813F4005F03D0484B5F
:106020001B68042B0ADCAFB1082F13D0042F2AD031
:106030000F2F28D07846F2F743FA15E0414BD3F8FA
:1060400004350190404A0092802240490520F8F72B
:1060500087F8E8E7384A2C2303FB0423DA6B996BB3
:10606000114499635200DA63334A2C2303FB04235F
:106070001A6B9B6BD31A002B28DA2F492C2303FBB6
:1060800004139A6322E02C4B2C2202FB0434A36BF2
:1060900003F51C434033A363274BB3F82031002B97
:1060A00046D0254BB3F82231052B3BD8224AB2F813
:1060B00022312C2101FB03239B6B5A1B36D41E4B30
:1060C000DA6005B0F0BD1C4BA3F822410134052C69
:1060D000E2D8194A2C2303FB042393F84030002B09
:1060E000F4D02C2303FB04231B6B9B1B002BFFF61C
:1060F00063AF114A2C2303FB04239B6B9A1B002ADA
:10610000FFF678AF0C4AB2F822214FF6FF718A42AF
:10611000D9D009492C2000FB0212926B9B1A002B4C
:10612000D4DAD0E77846F2F7CBF9BFE7EA1AC6E748
:10613000014B0022DA60C4E770490020302E0020B5
:106140002C2E002000100140A04804008D480400BF
:1061500010B582B004460DF107010088FFF7ACFCD2
:1061600048BB9DF80730FF2B29D0636800934FF69A
:10617000FF72B2EB134F27D00322A38913449BB2C3
:106180009DF8070044F6206202FB00F202F543325C
:1061900002F5A0720B2B08D90B330F4981FB0313B7
:1061A0005B1044F6206101FB0322A069904228BFE6
:1061B000104602B010BD7846F2F782F9D1E7FFF73A
:1061C000F1FB8DF80700D0E7BDF80030FF2B01D9B7
:1061D0000222D2E70122D0E7ABAAAA2A2DE9F04198
:1061E00005460C462A4A2C2303FB002393F8403033
:1061F000002B3FD1F5F7B8FF0746254E2C2303FBB4
:1062000005F808F1180E06EB0E03D4F800C060681C
:10621000A168E26846F80EC058609960DA60D4F868
:1062200010C06069A169E269C3F810C05861996142
:10623000DA612046FFF78CFF06EB0803D8631A6B80
:106240003A441A6338449863F6F742FD2846FFF74C
:10625000DBFD98B90E4B2C2000FB0535012285F89B
:106260004020B3F820210132A3F82021F6F774FD75
:10627000BDE8F0817846F2F723F9BBE72C2303FB56
:106280000563996B3046F5F745FFA6F82251E1E723
:106290007049002070B582B004460E4615460528A8
:1062A00015D8F6F715FD0DF106012046FFF788FD1C
:1062B00048B1BDF80600134A2C2303FB00239A8D36
:1062C00033889A4207D0F6F747FD02B070BD784692
:1062D000F2F7F6F8E5E70B4A2C2303FB0023DA8DEF
:1062E00073889A42EFD1FFF70DFEBDF80630054ADC
:1062F0002C2101FB03235B6B002229462046984793
:10630000E1E700BF70490020002300E00133052BC6
:106310000FD809492C2202FB031292F84020002AD0
:10632000F4D02C2202FB0312128B8242EED1002009
:1063300070470120704700BF7049002010B5054C20
:106340004FF49272002120460CF0B2FF024BA36082
:1063500010BD00BF70490020915F030070B582B08E
:10636000F6F7B6FC1A4BB3F820310BB900240BE05A
:1063700017480023A0F82031F5F7B4FEF6E7022213
:1063800001992846B0470134052C1DD8104A2C230A
:1063900003FB042393F84030002BF4D010462C224A
:1063A00002FB04F3C1180D8B4E6B18330021184407
:1063B0000CF07EFF01A92846FFF76EFC0028DED016
:1063C0007846F2F77DF8DAE7F6F7C6FC02B070BD62
:1063D0007049002010B582B0052803D90524204655
:1063E00002B010BD0446F6F773FC0DF10201204621
:1063F000FFF7E6FC18B90524F6F7AEFCEFE7BDF8A9
:106400000200FFF77FFD01A92046FFF745FC60B9B8
:10641000BDF80230074A2C2101FB03235B6B0222EB
:106420000199204698470024E6E77846F2F748F8B5
:10643000EEE700BF7049002048B310B582B00446B3
:10644000C36933B30388052B25D88369A3F5F413F7
:10645000A3F59063124A93421FD801AA0DF10201DD
:10646000FFF716FD08B9019818E0214631F8040B32
:10647000FEF786FE019018B1042801D008280DD13E
:106480002146BDF80200FFF7A9FE002006E00E201D
:1064900070470E2002E0052000E0072002B010BD8A
:1064A0008002750303460F4A126812F0010F0AD0EA
:1064B0000D4A128890420AD30B4840880244934206
:1064C00007DB002200E00022104622B970470022BC
:1064D000FAE70122F8E74B8001230B7000234B60A1
:1064E000F4E700BF984A0020904C00200B8833B995
:1064F00001334FF6FF720A80FBB910B40AE00023A3
:10650000F7E703EB83020E4C34F8222082420DD0D1
:10651000013373B95A090B4C54F8222003F01F04BD
:10652000E24012F0010FECD10B80F1E70B8001206B
:1065300000E000205DF8044B70470020704700BF6A
:10654000D84F00209C4A00204FF6FF730B80002399
:10655000062B21D810B407E00C884FF6FF72944246
:1065600014D00133062B13D85A090C4C54F82220AE
:1065700003F01F04E24012F0010FEDD0084A32F898
:1065800023208242EDD10B80012002E00B80E8E75E
:1065900000205DF8044B704700207047944A0020AB
:1065A000A04A00204FF6FF730B80002373B1002038
:1065B000704708330B8001201EE00C884FF6FF72F5
:1065C000944215D103F108020A8011E010B45A096F
:1065D0000B4C54F8222003F01F04E24012F0010F8C
:1065E000EBD0162202FB03F2064CA25A8242E0D004
:1065F0000133002BEBD000205DF8044B704700BF47
:10660000104C0020144C00204FF6FF730B80002329
:10661000072B23D810B407E00C884FF6FF72944282
:1066200016D00133072B15D85A090D4C54F82220E7
:1066300003F01F04E24012F0010FEDD02A2202FB0A
:1066400003F2084CA25A8242EBD10B80012002E0F7
:106650000B80E6E700205DF8044B70470020704790
:10666000BC4A0020C04A0020F0B416680023136022
:1066700000E00133072B1ED85C09114D55F824406A
:1066800003F01F05EC4014F0010FF2D00D4D2A2449
:1066900004FB035464888442EBD11568B5420DD0E5
:1066A0002A2404FB03F4074F3C5B21F815401468CF
:1066B00001341460DDE70120F0BC70470020FBE7E7
:1066C000BC4A0020C04A002070B40D6800230B6053
:1066D00000E00133032B17D85A090E4C54F822203E
:1066E00003F01F04E24012F0010FF2D00C68AC423C
:1066F0000DD0CC2202FB03F2074EB25A20F8142030
:106700000A6801320A60E4E7012070BC704700208B
:10671000FBE700BFA44C0020A84C002030B4450982
:106720001A4C54F8254000F01F05EC4014F0010FFE
:106730002AD0174CCC2505FB004090F8640010B11E
:1067400014788C4209D010B1187888420ED0137892
:106750008B4212D0002030BC70471C788C42F2D1A2
:1067600002990A60039A13600120F4E7029A136009
:106770000023039A13600120EDE7029B1A600023B7
:10678000039A13600120E6E70020E4E7A44C002010
:10679000A84C0020014688B100230BB100207047AF
:1067A000162202FB03F20648825A8A4201D00133C4
:1067B000F3E7162202FB0303181D70470020704701
:1067C000144C0020082865D830B4072831D8354C3F
:1067D000072830D803465D0954F8254003F01F030D
:1067E00024FA03F313F0010F56D00C884FF6FF7311
:1067F0009C4223D00B88032B50D859092A4C54F8BB
:10680000211003F01F04E14011F0010F48D00728C8
:1068100036D82649CC2404FB031393F86430022BAA
:106820001DD023492A2303FB0010043010600020F0
:106830002EE0204CCCE7A0F10803CCE7072806D8CF
:106840001B4C2A2303FB00435B880B80D2E7A0F19B
:106850000803194C162505FB03435B88F5E714492B
:106860002A2303FB00139B7D002BDAD02A2303FB92
:1068700000F010300B46034407331360002007E09C
:1068800008380D4B162101FB003004301060002049
:1068900030BC7047052070470520F9E70820F7E76E
:1068A0000820F5E7BC4A0020A44C0020A84C00209A
:1068B000C04A0020104C0020144C00200A4B23F842
:1068C000210003EB81030022DA709A704809074A1D
:1068D00001F01F01012303FA01F152F820300B43AC
:1068E00042F82030704700BFA04A0020944A0020A0
:1068F00010B582B001900B46000CA0F5805081B21B
:10690000062911D84A09094850F8224001F01F020F
:10691000D44014F0010403D00024204602B010BD7E
:106920001888FFF7CBFFF8E70524F6E7944A002024
:1069300010B582B001900C46000C01280AD1042346
:1069400023800123A3800822628023810723E38020
:1069500002B010BD7846F1F7B3FDF0E710B582B094
:1069600001900C46000C012815D12388042B16D168
:10697000A388012B16D16388082B15D12389012BFD
:1069800014D1E388072B13D10A4A137843F001038B
:106990001370002004E07846F1F792FDE5E70B2044
:1069A00002B010BD0B20FBE70B20F9E70B20F7E747
:1069B0000B20F5E7A04C002010B582B001900C46EA
:1069C000000C022809D1094B1B6813F0010F08D0F5
:1069D000074B1B68236002B010BD7846F1F770FDCD
:1069E000F1E77846F1F76CFDF2E700BF984A002026
:1069F000904C002010B582B001900C46000C02288B
:106A00000ED1094B1B6813F0010F06D12168074A0C
:106A1000116043F00103044A1360002002B010BD6E
:106A20007846F1F74DFDECE7984A0020904C0020A5
:106A300030B583B001900D46040CA4F58054A4B287
:106A4000062C0FD863090B4A52F8233004F01F02BA
:106A5000D34013F0010F09D0074B33F824302B80BB
:106A600003B030BD7846F1F72BFDEBE77846F1F740
:106A700027FDF1E7944A0020A04A002010B5044603
:106A800048B10D4B9C4213D303F519739C4206D9B0
:106A90004FF6FF700EE07846F1F712FDF1E7A3F52F
:106AA0001970201A054CA4FB0030C0F3CF1001E090
:106AB0004FF6FF7010BD00BF1C4D0020A1A0A0A08C
:106AC00038B5044608B100200FE07846F1F7F8FC2D
:106AD000F9E7CC2303FB00F303F12002144B13442A
:106AE0000233A34222D0013080B203281CD81049BF
:106AF000CC2303FB001393F864100029E9D0CC23C6
:106B000003FB00F303F12002094B13440233A342B9
:106B10000CD0CC2303FB00F303F14002044B1344DD
:106B20000333A342DFD101E04FF6FF7038BD00BF51
:106B3000A84C002010B5044668B1134B9C4203D307
:106B400003F593739C420AD9104B9C4219D310D978
:106B50004FF6FF7017E07846F1F7B2FCEDE7A3F5CA
:106B60009370201A40080A4CA4FB0030C0F38F0039
:106B700009E0E01A074CA4FB00300009083080B29D
:106B800001E04FF6FF7010BDC44A0020184C0020F1
:106B9000310CC330A38B2EBAF8B505460E46174606
:106BA000106828B3FFF7C6FF431C00E00133072B32
:106BB00020D85C09114A52F8244003F01F02D44047
:106BC00014F0010FF2D00E492A2202FB0312528860
:106BD000AA42EBD12A2202FB03125279724012F030
:106BE0003F0FE3D12A2202FB031304333B6003E08F
:106BF0000023DCE700233B60F8BD00BFBC4A002057
:106C0000C04A002030B583B001900D46040CB4F5A5
:106C1000005F1ED1A4F5005084B2C0F34A12114B9C
:106C200053F8223000F01F0023FA00F010F0010F9B
:106C300013D004EB84040C4B03EB840353F8040FD0
:106C400059689A68DB6828606960AA60EB6003B0E5
:106C500030BD7846F1F734FCDCE77846F1F730FCDC
:106C6000E7E700BF9C4A0020D84F0020F0B583B072
:106C700001900D46040CB4F5A04F23D1A4F5A0401B
:106C800084B2C0F34A12134B53F8223000F01F00B5
:106C900023FA00F010F0010F18D00F48162202FB63
:106CA00004F281180B4653F8067F5E689C68DB6827
:106CB0006F60AE60EC602B61835A2B804B886B80D9
:106CC00003B0F0BD7846F1F7FBFBD7E77846F1F764
:106CD000F7FBE2E7104C0020144C0020F0B5083B15
:106CE000124E162505FB03F57419D2F800E0D2F810
:106CF00004C09768D268C4F806E0C4F80AC0C4F8B3
:106D00000E70C4F81220002262710122227161808B
:106D100070535809064903F01F0302FA03F351F8B0
:106D20002020134341F82030F0BD00BF144C002058
:106D3000104C002030B583B00190000CB0F5A04F8E
:106D400019D10D46A0F5A043C3F34A110C4A52F8DD
:106D5000214003F01F03DC4014F0010401D00024A3
:106D60000AE0A0F59F40783883B22A1D69882888F8
:106D7000FFF7B4FF00E00524204603B030BD00BF9C
:106D8000104C002070B5CC1F04EB84020F4901EBBE
:106D90008201066845688268C3684E608D60CA607B
:106DA0000B61F7F78DF860B96109094A04F01F0417
:106DB000012303FA04F452F82130234342F821302E
:106DC00070BD7846F1F77CFBEEE700BFD84F00209E
:106DD0009C4A002010B582B00190030CB3F5005F0F
:106DE00017D10A46A3F50051C1F34A140B4850F8D5
:106DF000244001F01F01CC4014F0010401D0002414
:106E000008E0A3F5FF53193B99B21046FFF7BAFF0C
:106E100000E00524204602B010BD00BF9C4A0020BF
:106E200070B582B001900D46040CA4F54054A4B294
:106E3000032C2BD82422002128460CF039FA6309B0
:106E4000214A52F8233004F01F02D34013F0010FFF
:106E500020D01E49CC2303FB04F3CA18CB5A2B8045
:106E600092F86430AB70134653F8026F5868996813
:106E7000DB68C5F80360C5F80700C5F80B10C5F856
:106E80000F3092F864304BB902B070BD7846F1F71C
:106E900017FBCFE77846F1F713FBDAE7CC2303FBC8
:106EA00004F404F11003094C1C4454F8020F616807
:106EB000A268E368C5F81300C5F81710C5F81B20D1
:106EC000C5F81F30E0E700BFA44C0020A84C00200C
:106ED000F0B583B001900C46050CA5F58045ADB228
:106EE000072D2AD82622002120460CF0E1F96B0953
:106EF0001F4A52F8233005F01F02D34013F0010F50
:106F00001FD01C482A2202FB05F281180B4653F8B9
:106F100006CF5F689E68DB68C4F805C0C4F80970D6
:106F2000C4F80D60C4F81130835A23804B88638005
:106F30008B7D23714BB903B0F0BD7846F1F7C0FAF1
:106F4000D0E77846F1F7BCFADBE702F1100305461B
:106F50001D4455F8090F6968AA68EB68C4F8150064
:106F6000C4F81910C4F81D20C4F82130E3E700BFAD
:106F7000BC4A0020C04A0020F8B50D461446364BE6
:106F8000CC2202FB04F202F1680119441344996710
:106F9000064610B9314B01221A70CC2101FB04F1D5
:106FA00020312D4B194402312846F6F722FF0028E4
:106FB00045D1CC2101FB04F17831274B1944043130
:106FC0002846F6F72BFF00283DD1CC2101FB04F128
:106FD0009031214B194404312846F6F749FFB0BBE4
:106FE0001D4FCC2000FB04F03A18D5F800E0D5F88E
:106FF00004C0A968EB68C2F802E0C2F806C0C2F893
:107000000A10C2F80E3000F110033B440021C3F80F
:107010000210C3F80610C3F80A10C3F80E103E524F
:1070200082F8641061090E4A04F01F04012303FA78
:1070300004F452F82130234342F82130F8BD784659
:10704000F1F73EFAB5E77846F1F73AFABDE7784648
:10705000F1F736FAC4E700BFA84C00208D4C0020A1
:10706000A44C0020F0B583B00190040CA4F540546A
:10707000A4B2032C3CD80E4663091E4A52F8235092
:1070800004F01F03DD4015F0010503D0002528465C
:1070900003B0F0BD31F8030B2246FFF76DFFB27865
:1070A0001549CC2303FB041383F86420002AEED097
:1070B000CC2303FB04F404F110030B44304650F8D6
:1070C00013CF47688668C268C3F802C0C3F8067069
:1070D000C3F80A60C3F80E20403421440331F6F7A8
:1070E00088FE08B90546D2E77846F1F7E9F9CEE718
:1070F0000525CCE7A44C0020A84C002030B583B077
:1071000001900D46040C04F54054A4B231F8030B71
:107110002246FFF731FFAB78064ACC2101FB04245D
:1071200084F86430044A137843F004031370002099
:1071300003B030BDA84C0020A04C00202DE9F04148
:1071400006460D4610461C461F4B2A2202FB04F23F
:107150009918D0F80080D0F804E0D0F808C0C768CB
:10716000C1F80680C1F80AE0C1F80EC0C1F812707B
:10717000103213440022C3F80920C3F80D20C3F8CD
:107180001120C3F815200531F6F728FEB8B90E49CD
:107190002A2303FB04F3CA18002010719075CE5205
:1071A00055806109094B04F01F04012202FA04F41E
:1071B00053F82120224343F82120BDE8F08178468E
:1071C000F1F77EF9E3E700BFC04A0020BC4A002087
:1071D000F0B583B00190040CA4F58044A4B2072C50
:1071E00040D80E466309204A52F8235004F01F038A
:1071F000DD4015F0010503D00025284603B0F0BDA1
:1072000023464A1D49883088FFF798FF327917498D
:107210002A2303FB04139A75002AEED02A2101FBCE
:1072200004F101F1100311491944304650F8157F5B
:1072300046688268C368C1F80970C1F80D60C1F87A
:107240001120C1F815300831F6F7C8FD30B9074BE9
:107250002A2202FB04342379E375CEE77846F1F75E
:107260002FF9F4E70525C8E7BC4A0020C04A0020F2
:10727000F0B583B001900D46000C00F50054A4B2A7
:10728000072C1AD900F5805084B2072C3BD8012670
:107290001E4A137843F00403137023462A1D69889D
:1072A0002888FFF74BFF2746194A2A2303FB0423AC
:1072B0009E7526B9002003B0F0BD0026E8E72A211C
:1072C00001FB04F4103411462144284650F8145FA1
:1072D00044688268C368C1F80950C1F80D40C1F81C
:1072E0001120C1F815300831F6F778FD38B9084B90
:1072F0002A2202FB07373B79FB750020DBE7784643
:10730000F1F7DEF8F3E70520D5E700BFA04C002039
:10731000C04A002010B584B0084A52F8044B6B46AE
:1073200007CA03C31A8069462046F9F77BFC08B9EF
:1073300004B010BD7846F1F7C3F8F9E758490400E6
:1073400030B583B005460C460023ADF800304B093C
:1073500052F8233001F01F02D34013F0010F0CD07C
:107360000123ADF804302C44ADF80640694601987D
:10737000F9F758FC28B903B030BD7846F1F7A0F80A
:10738000EEE77846F1F79CF8F5E70000284B1B780C
:1073900013F0040F4AD030B583B0254B1A786FF341
:1073A00082021A70234B1B690193002400E0013410
:1073B000032C18D86309204A52F8233004F01F0226
:1073C000D34013F0010FF2D0A5B205F54053ADF84C
:1073D00006300198F9F757FC174A29464FF44050F8
:1073E000FFF7AEFFE3E7134B5B690193002400E076
:1073F0000134072C18D86309104A52F8233004F0DE
:107400001F02D34013F0010FF2D0A5B205F580435F
:10741000ADF806300198F9F736FC084A29464FF4D2
:107420008040FFF78DFFE3E703B030BD704700BF3A
:10743000A04C002058490400A44C0020BC4A002065
:1074400010B582B02F4A137803F0FE036FF34103A7
:1074500013702D4B1868F9F716FC2C4B1868F9F7C8
:1074600012FC2B4B9B690193002408E004F5805328
:10747000ADF806300198F9F706FC0134A4B2062CE9
:10748000F4D9234BDB690193002424B1204B1B6901
:107490000193002412E004F50053ADF80630019882
:1074A000F9F7F1FB0134A4B2EFE704F54053ADF86E
:1074B00006300198F9F7E7FB0134A4B2032CF4D9A4
:1074C000134B5B690193002408E004F58043ADF899
:1074D00006300198F9F7D7FB0134A4B2072CF4D990
:1074E0000B4B1B6A019300240CB102B010BD04F5D4
:1074F000A043ADF806300198F9F7C5FB0134A4B2FA
:10750000F2E700BFA04C00207C4904008049040041
:10751000584904002DE9F04182B007460C46154653
:107520004E0952F8263001F01F0823FA08F313F031
:10753000010F15D00123ADF804303C44ADF80640EE
:107540000198F9F7A0FB78B9012303FA08F255F87E
:10755000263023EA020345F8263002B0BDE8F08168
:107560007846F0F7ADFFE5E77846F0F7A9FFEBE7DF
:1075700008B5062820D84309254A52F8233000F0E0
:107580001F02D34013F0010F16D0224B03EB8003F0
:107590009B7823B91F4B03EB8003DB780BB10020F2
:1075A00008BD1C4B002223F82020194A01464FF445
:1075B0008050FFF7AFFFF2E7C11F89B219BB4B093B
:1075C000154A52F8233001F01F02D34013F0010F87
:1075D0001BD001EB8103114A02EB83039B782BB98B
:1075E00001EB810302EB8303DB780BB10020D7E7CB
:1075F00001EB81039B000020D052074A4FF400505A
:10760000FFF788FFF2E70520CAE70520C8E700BFBB
:10761000944A0020A04A00209C4A0020D84F002015
:1076200070B505460C4616464FF6FF730B80F4F70F
:1076300065F93070022822D0032841D0012841D0BA
:10764000002020E021884FF6FF72914208D003EB22
:1076500083021E4931F82220AA420DD001330FE0E7
:107660005A091B4951F8222003F01F01CA4012F0A9
:10767000010FECD12380F1E72380012003E00023F8
:10768000002BDFD0002070BD124A32F82320AA421E
:1076900013D00133062B17D821884FF6FF72914281
:1076A000F2D15A090C4951F8222003F01F01CA40B7
:1076B00012F0010FE8D12380EBE723800120E2E7FD
:1076C0000023E7E70023E5E70020DCE7D84F0020B0
:1076D0009C4A0020A04A0020944A0020002940D063
:1076E00070B582B0054614460E460DF1070201A999
:1076F000FFF796FF2CB99DF80730032B01D010201F
:107700001DE0012C1DD078B9BDF804104FF6FF73B1
:10771000994228D02846FFF7D1F8144ABDF8041042
:107720004FF48050FFF70CFEBDF80430338084B96D
:107730000F4A02EB8303DA780132DA70002002B0DC
:1077400070BD9DF80730032BDDD0012BDBD010205E
:10775000F5E7074A02EB83039A7801329A7000201A
:10776000EDE70E2070470420E9E700BF944A0020AF
:10777000A04A002070B506460D464FF6FF730B80F9
:1077800000240CB1002070BD6309104A52F8233068
:1077900004F01F02D34013F0010F06D12A884FF6E0
:1077A000FF739A420CD12C800AE004EB8400084B52
:1077B00003EB80001022314604300BF01DFD08B1B0
:1077C0000134DEE72C800120DDE700BF9C4A002069
:1077D000D84F0020F0B583B04FF6FF73ADF80630F8
:1077E00000283FD00C461646074600293CD00DF134
:1077F0000601FFF7BFFFBDF80630DD1DADB270B961
:107800004FF6FF72934231D029463846FFF7BAFA55
:10781000174ABDF806104FF40050FFF791FD258080
:1078200086B9BDF80630134A03EB830102EB8101F0
:10783000C97803EB830302EB83034A1CDA70002050
:1078400003B0F0BDBDF806300A4A03EB830102EB3A
:107850008101897803EB830302EB83034A1C9A704E
:107860000020EDE70E20EBE70E20E9E70420E7E734
:107870009C4A0020D84F002030B583B005460C4606
:10788000486820B10DF10601FFF774FF18B94FF6F3
:10789000FF73ADF806300DF106012846FEF726FE0F
:1078A000B0B1BDF8063003EB83030A4A02EB830351
:1078B000DB7863B1658002232370BDF8063003EBEB
:1078C0008302044B03EB82030433636000E0002077
:1078D00003B030BDD84F002038B505464FF6FF73D2
:1078E0000B8000230BE05A09134850F8222003F0C4
:1078F0001F00C24012F0010F08D10B800133062B8C
:1079000012D80C884FF6FF729442ECD00B4A32F832
:107910002320AA42F2D1094A02EB8302D278002A3C
:10792000ECD00B80012006E0F8F776FC4088A842F6
:1079300014BF0020012038BD944A0020A04A002036
:1079400000B583B0488003230B7000234B60A0F583
:107950007F43FC3B032B16D8DFE803F0060209192E
:10796000002003B05DF804FBFBF718FCF9E701A960
:107970000120F9F793FF10B99DF80400F1E778466C
:10798000F0F79EFDF8E701A9FFF7A6FFE9E7012060
:10799000E7E70388012B02D0012B24D0704710B4F5
:1079A0004488A4F5405292B2032A01D8142904D085
:1079B000012B06D05DF8044B7047A4F5C044448009
:1079C000F8E74288A2F580439BB2072BF2D824291E
:1079D00005D01429EED1A2F5C0424280EAE7A2F513
:1079E000A0424280E6E74288A2F580439BB2072B83
:1079F000D4D8242905D01429D0D1A2F5C042428080
:107A00007047A2F5A04242807047000008B5094BBC
:107A10001B7813F0020F0AD113F0010F03D0FFF708
:107A2000B5FC002008BDFFF775FC0520FAE70B2028
:107A3000F8E700BFA04C002008B5002206E0154B77
:107A400003EB82030021D97099700132062AF6D91E
:107A50000023A3B10023104A1360104A1360104A98
:107A60001360104A1360104A1360104A1360104AE2
:107A7000138053800F4A1370FFF7E2FC08BD03EB3D
:107A8000830291000C4A0A440021D17091700133A5
:107A9000DFE700BFA04A0020984A0020944A002057
:107AA0009C4A0020A44C0020BC4A0020104C00201E
:107AB000904C00208D4C0020D84F002008B506487F
:107AC000064B0360F4F77EF8054A137803F0FD03D4
:107AD0006FF30003137008BD944C0020AD850300C4
:107AE000A04C002038B5054670B1164B1C6814F048
:107AF000010424D16B8823B12888F3F7FFFE012805
:107B000006D00B24204638BD7846F0F7D9FCECE7C8
:107B100028886B88184480B2013880B2F3F7EEFEF3
:107B20000128EED1074A136843F001031360296866
:107B3000054B196000210220FFF702FCE2E70F2449
:107B4000E0E700BF984A0020904C002010B50446A2
:107B500018B1044B1B68236010BD7846F0F7B0FCE9
:107B6000F7E700BF904C002008B50122FFF7B6FDF3
:107B700008BD0000062809D843091C4A52F82330E2
:107B800000F01F02D34013F0010F0FD1C31F9BB2AF
:107B9000FBB95909164A52F8212003F01F0322FAB3
:107BA00003F313F0010F16D1002300E00123DBB132
:107BB000062812D907380F4B00EB800203EB820234
:107BC000927800EB800003EB8000531C8370002050
:107BD00070470023EBE70123E9E7074B03EB800045
:107BE000837801338370F2E705207047944A0020C0
:107BF0009C4A0020D84F0020A04A002008B501224E
:107C0000FFF7E8FD08BD000008B5062812D84309B3
:107C1000194A52F8233000F01F02D34013F0010F2D
:107C200008D0164B03EB80039A78013A9A70FFF75D
:107C30009FFC08BDC31F9BB2D3B95909104A52F823
:107C4000212003F01F0322FA03F313F0010F11D0D8
:107C5000C31F0C4A03EB830102EB8101897803EB1C
:107C6000830302EB83034A1E9A70FFF781FCE0E76F
:107C70000520DEE70520DCE7944A0020A04A00202A
:107C80009C4A0020D84F002008B50022FFF726FDAF
:107C900008BD08B50022FFF79DFD08BD062809D8DC
:107CA00043091C4A52F8233000F01F02D34013F05E
:107CB000010F0FD1C31F9BB2FBB95909164A52F8E5
:107CC000212003F01F0322FA03F313F0010F16D152
:107CD000002300E00123DBB1062812D907380F4B3F
:107CE00000EB800203EB8202D27800EB800003EB12
:107CF0008000531CC370002070470023EBE7012372
:107D0000E9E7074B03EB8000C3780133C370F2E768
:107D100005207047944A00209C4A0020D84F00203C
:107D2000A04A0020B1B310B50C46062813D8430969
:107D30001B4A52F8233000F01F02D34013F0010F0A
:107D400009D0184B33F820004880F3F7D7FD207096
:107D50000020606010BDC31F9BB2EBB95909124AE5
:107D600052F8212003F01F0322FA03F313F0010F4E
:107D700014D007380D4B00EB800233F822206280CC
:107D800000EB800003EB800004306060022323706E
:107D90000020DFE70E2070470520DBE70520D9E74C
:107DA000944A0020A04A00209C4A0020D84F00207E
:107DB00010B582B00446062809D843092A4A52F869
:107DC000233000F01F02D34013F0010F0FD1E31F47
:107DD0009BB21BBB5909254A52F8212003F01F030F
:107DE00022FA03F313F0010F1AD1002300E001235C
:107DF000B3B369462046FFF795FF68BB9DF8003096
:107E0000032B0FD0022B29D1E31F03EB8301184A68
:107E100002EB8102D278AAB9052022E00023E7E72D
:107E20000123E5E7134B03EB8403DB780BB9052053
:107E300017E0104A02EB8402013BD3702046FFF7A3
:107E400097FB0EE00B460A4901EB8303013ADA7017
:107E50002046FFF78DFB04E0002002E00F2000E049
:107E6000052002B010BD00BF944A00209C4A0020AB
:107E7000D84F0020A04A002070B330B583B00C4624
:107E8000054659B34088F3F739FD02280FD003287F
:107E900004D0012802D0102003B030BD21466888EC
:107EA000FEF752FB08B10020F6E70520F4E74FF695
:107EB000FF73ADF80630686850B10DF10601FFF7A9
:107EC00059FC38B1BDF80630073323800020E3E7C2
:107ED0000E20E1E70520DFE70E2070470E20DBE7EC
:107EE00002464FF6FF700023032B26D810B406E09D
:107EF0004FF6FF71884216D00133032B15D859096C
:107F0000114C54F8211003F01F04E14011F0010F4F
:107F1000EED0CC2101FB03F10C4C615A8A42EBD12B
:107F200098B2012302E098B2E6E7002313B15DF8AE
:107F3000044B70474FF6FF70F9E7002303B1704719
:107F40004FF6FF70704700BFA44C0020A84C0020E3
:107F500018B108B5FEF7B4FD08BD4FF6FF707047C5
:107F600000B583B00DF10601FEF74EFB20B1BDF860
:107F7000060003B05DF804FB4FF6FF70F9E718B197
:107F800008B5FEF7D7FD08BD4FF6FF70704700003B
:107F90000A4699B1072813D843090B4951F82330F1
:107FA00000F01F01CB4013F0010F0BD02A2303FB7D
:107FB00000F0064B1B5A1380002070470E207047BC
:107FC0000520704705207047BC4A0020C04A0020A9
:107FD00008286AD838B504460D46002967D0072816
:107FE00030D84309354A52F8233000F01F02D340FD
:107FF00013F0010F5DD0324A2A2303FB00235B8874
:10800000032B17D82E4A2A2303FB04235B88590924
:108010002C4A52F8212003F01F0322FA03F313F035
:10802000010F0BD0264B2A2000FB043463882B80E1
:10803000002038BD7846F0F743FAE3E77846F0F7DA
:108040003FFAEFE7A0F1080462091F4B53F8223012
:1080500004F01F02D34013F0010F2CD01B4A16234B
:1080600003FB04235B88032B17D8184A162303FB52
:1080700004235B885909134A52F8212003F01F0397
:1080800022FA03F313F0010F0BD01048162303FB61
:10809000040463882B800020CBE77846F0F710FAC1
:1080A000E3E77846F0F70CFAEFE7052070470E207B
:1080B000BFE70520BDE70520BBE700BFBC4A0020A5
:1080C000C04A0020A44C0020104C0020144C00207A
:1080D000002900F08D8070B5C6B0054614460E46E6
:1080E000002A00F08780B0F5805F80F085804FF631
:1080F000FF731380002305E021884FF6FF72914241
:1081000016D00133032B15D85A093F4951F82220C4
:1081100003F01F01CA4012F0010FEDD0CC2202FB88
:1081200003F23A498A5A9542EBD12380012302E0B7
:108130002380E6E700236BB12088344BCC2202FB7E
:1081400000301022314602300BF056F8002856D18C
:10815000032052E022884FF6FF739A4251D03146F5
:108160002846FEF709FF284A21884FF44050FFF7C0
:10817000E7F82388CC2101FB03F18831234B194414
:1081800004312846F3F72BFD214B1B6813F4802F95
:1081900003D0204B1B68062B01DC00202DE00023C0
:1081A0000F2B0FD8F25C1C490C6810095900255C94
:1081B00005A800F8135002F00F020131A25C4254EE
:1081C0000133EDE705AA00238DF8343003F1804335
:1081D00003F58833D3F804350292104A0192104A0D
:1081E00000924FF413620F490720F5F7B9FFD4E767
:1081F0000E2070470E2000E0072046B070BD0F2013
:10820000FBE70420F9E700BFA44C0020A84C0020A5
:10821000302E00202C2E0020342E0020284904006F
:10822000DC3A040011490400032812D843090B4A20
:1082300052F8233000F01F02D34013F0010F0AD090
:10824000074BCC2202FB003090F864300B7000200A
:108250007047052070470520704700BFA44C0020E0
:10826000A84C002000297AD0F8B504460D46032812
:1082700077D843093E4A52F8233000F01F02D3401A
:1082800013F0010F6FD03B4ACC2303FB002393F87C
:10829000643073B1012B68D1CC2000FB04F01030A6
:1082A0001044102202300AF0A7FF00285AD00820FC
:1082B00058E03049CC2202FB00F202F110030B44DB
:1082C0009E1CD5F800E0D5F804C0AF68E868C3F894
:1082D00002E0C3F806C0C3F80A70C3F80E004032CB
:1082E000114403312846F5F784FD60BBCC2101FB26
:1082F00004F1A0311F4B194404313046F5F78EFDCF
:1083000028BBCC2101FB04F1B8311A4B19440431CC
:108310002846F5F7ADFDF0B91648CC2303FB04F36E
:10832000C118012281F8642003F1B0010144043135
:10833000C05AF2F7DBFF0E4A21464FF44050FEF7D9
:10834000FFFF00200EE07846F0F7BAF8CEE7784657
:10835000F0F7B6F8D5E77846F0F7B2F8DCE70E208C
:1083600070470520F8BD0520FCE70820FAE700BFAC
:10837000A44C0020A84C002003282CD810B504469B
:108380004309174A52F8233000F01F02D34013F07C
:10839000010F22D0134ACC2303FB002393F864304F
:1083A000012B01D0082010BD1046CC2303FB04F3A1
:1083B000D118022281F8642003F1B0010144043194
:1083C000C05AF2F793FF064A21464FF44050FEF799
:1083D000B7FF0020E7E7052070470520E3E700BF6F
:1083E000A44C0020A84C0020032800F2AA80F8B575
:1083F00005464309554A52F8233000F01F02D34086
:1084000013F0010F00F09F80514ACC2303FB00239F
:1084100093F864300BB90820F8BDCC2101FB00F1C2
:10842000501801F11003134453F8027F5E689C68F2
:10843000DB68C0F80270C0F80660C0F80A40C0F8F7
:108440000E3001F12003134440311144CA1C0233A1
:108450002331176856689468D0681F605E609C601E
:10846000D860103210338A42F3D112781A7038492A
:10847000CC2202FB05F202F178030B44A032114436
:108480000A1D04332431176856689468D0681F6049
:108490005E609C60D860103210338A42F3D111685C
:1084A000526819605A602A48CC2303FB05F3C218AE
:1084B000002482F8644003F188010144224604311B
:1084C000C05AF2F713FF00E00134072C31D86309DA
:1084D000204A52F8233004F01F02D34013F0010F5A
:1084E000F2D01D4A2A2303FB04235B88AB42EBD165
:1084F0002A2303FB04239B7D002BE5D013462A216E
:1085000001FB04F10A4410310B4453F8077F5E6805
:108510009868D96857609660D06011611B8A938211
:10852000002393750B4AA1B24FF48040FEF708FF79
:10853000CAE7064A29464FF44050FEF701FF0020E3
:108540006AE705207047052066E700BFA44C0020BD
:10855000A84C0020BC4A0020C04A002070B5044648
:108560000D469DF81060FEF789FA4FF6FF739842AA
:1085700002D03034AC4200D070BD56B10A4ACC2390
:1085800003FB002393F86430012BF5D1FFF7F4FED1
:10859000F2E7054ACC2303FB002393F86430002B59
:1085A000EAD0FFF721FFE7E7A84C00200378042B6F
:1085B00002D0142B10D0704700B583B0037E427EEA
:1085C0000092003B18BF0123426981684068FFF7B1
:1085D000C5FF03B05DF804FBC388012B00D07047D2
:1085E000024A137843F0020313707047A04C002036
:1085F00040B108B541B1FEF767F808B1002008BDE9
:108600000920FCE70E2070470E20F8E7002A67D00B
:10861000F0B5C7B007460C461D461646002B61D084
:10862000F3F76CF901285FD1032C60D86309344A51
:1086300052F8233004F01F02D34013F0010F58D03A
:108640000DF58B713846FDF7ADFF002853D1BDF80D
:1086500016314FF6FF7293424FD0324621463846CC
:10866000FEF73CFBBDF816110839264A89B24FF4D3
:10867000A040FEF765FEBDF816312B80224B18682E
:1086800010F4802031D0214B1B68062B01DC002028
:108690002BE000230F2B0FD8F25C1D490C6810094A
:1086A0005900255C05A800F8135002F00F020131B3
:1086B000A25C42540133EDE705AA00248DF8344052
:1086C000144BD3F804350292134A0192134A0092D4
:1086D0004FF4236212490720F5F742FD204604E0DB
:1086E0000E2070470E2000E0102047B0F0BD05209E
:1086F000FBE70520F9E70F20F7E70420F5E700BFC7
:10870000A44C0020104C0020302E00202C2E0020E5
:10871000342E00200010014038490400DC3A0400E7
:1087200011490400002A6AD0F0B5C7B006460C46CD
:108730001D461746002B64D0032964D84B09374ADD
:1087400052F8233001F01F02D34013F0010F5CD028
:10875000B0F5805F5BD22946FDF756FF68B12888E7
:108760002F4B2A2202FB00301022394606300AF035
:1087700043FD00284ED103204AE02B884FF6FF72BC
:10878000934249D03A4621463046FEF7D7FC254A67
:1087900029884FF48040FEF7D3FD234B186810F46E
:1087A000802035D0214B1B68062B01DC00202FE0F8
:1087B00000230F2B0FD8FA5C1D490C6810095900D3
:1087C000255C05A800F8135002F00F020131A25CED
:1087D00042540133EDE705AA00248DF83440154BCF
:1087E000D3F804350292144A0192144A009240F6DA
:1087F0007F2213490720F5F7B3FC204608E00E203E
:1088000070470E2004E0052002E0052000E007206C
:1088100047B0F0BD0F20FBE70420F9E7A44C00208F
:10882000C04A0020BC4A0020302E00202C2E002000
:10883000342E00200010014048490400DC3A0400B6
:108840001149040000295AD070B504460846072C87
:1088500057D863092E4A52F8233004F01F02D34040
:1088600013F0010F4FD02B4A2A2303FB04235B880C
:10887000294ACC2101FB032393F86430012B44D116
:10888000244A2A2303FB04239B7D6BB12A2303FB89
:1088900004F4103414441022014604F109000AF0D3
:1088A000ABFC78B308202DE01A492A2303FB04F31C
:1088B000CA18012595751033194406684568826801
:1088C000C368C1F80960C1F80D50C1F81120C1F8A2
:1088D00015300831F5F782FA68B90E4A2A2303FBEE
:1088E00004231A79DA750A4A21464FF48040FEF7CC
:1088F00027FD002006E07846EFF7E2FDEDE70E20C9
:108900007047052070BD0520FCE70820FAE700BF8E
:10891000BC4A0020C04A0020A84C0020072814D8D8
:1089200008B543090A4A52F8233000F01F02D34029
:1089300013F0010F01D1052008BD054A01464FF48F
:108940008040FEF7E7FD0020F6E70520704700BFF6
:10895000BC4A0020032873D838B5044643093B4A73
:1089600052F8233000F01F02D34013F0010F69D0FA
:10897000364B1B6813B90423002514E05A421340F8
:10898000334A02FB03F3DB0E324AD35CF4E759426D
:108990000B402F4901FB03F3DB0E2E49CB5C03EBAD
:1089A000421300E00423042B18D001350133032BBC
:1089B000F8D85A09254951F8221003F01F03012065
:1089C00000FA03F35B420B40002BE0D1013203D1EC
:1089D0001E4B53F82230F7E70423E4E7012D33D090
:1089E000002500E00135072D19D86B091A4A52F805
:1089F000233005F01F02D34013F0010FF2D0174AC5
:108A00002A2303FB05235B88A342EBD1A8B2FFF71F
:108A100085FF0028E6D07846EFF752FDE2E7CC2349
:108A200003FB04F30E4AD35A13B90E4B00221A70FB
:108A3000064A21464FF44050FEF76CFD002038BD39
:108A4000052070470520FAE70F20F8E7A44C002026
:108A500031B57C07AC490400BC4A0020C04A002064
:108A6000A84C00208D4C0020B1B110B50C46AAB125
:108A7000032815D843090C4951F8233000F01F0191
:108A8000CB4013F0010F0DD02146FDF7EDFD08B1ED
:108A9000002010BD0920FCE70E2070470E20F8E7EB
:108AA0000520F6E70520F4E7A44C002010B582B0BD
:108AB000ADF8060032B30B46144604320DF1060140
:108AC0001846FDF77FFE90B9BDF806100E4BCC227C
:108AD00002FB013292F86430022B0AD0CC2303FB54
:108AE00001F303F12002084B13440233236002B068
:108AF00010BDCC2303FB01F303F14001024B0B44F7
:108B00000333F3E70E20F2E7A84C00200A46B1B188
:108B1000032816D843090D4951F8233000F01F01EE
:108B2000CB4013F0010F0ED0CC2303FB00F000F17B
:108B300070030748184404301060002070470E206E
:108B40007047052070470520704700BFA44C0020E7
:108B5000A84C002010B50C46FFF7C2F9B4B10328A9
:108B600016D843090C4A52F8233000F01F02D340B4
:108B700013F0010F0ED0CC2303FB00F000F1200313
:108B80000648184402302060002010BD0E20FCE78B
:108B90000520FAE70520F8E7A44C0020A84C0020A7
:108BA000F0B583B0064615460F4669B185B106F0AB
:108BB0007F06386880B1FDF783FF4FF6FF73984258
:108BC00025D0013084B208E07846EFF779FCEDE774
:108BD0007846EFF775FCEAE7002400233B602B6042
:108BE000032C16D80C4BCC2101FB04F101F120021F
:108BF0001A4440310B440195009703330232314649
